{
  "_format": "hh-sol-artifact-1",
  "contractName": "GridFirePayment",
  "sourceName": "contracts/GridFirePayment.sol",
  "abi": [
    {
      "anonymous": false,
      "inputs": [
        {
          "indexed": true,
          "internalType": "address",
          "name": "artist",
          "type": "address"
        },
        {
          "indexed": false,
          "internalType": "uint256",
          "name": "amount",
          "type": "uint256"
        }
      ],
      "name": "Claim",
      "type": "event"
    },
    {
      "anonymous": false,
      "inputs": [
        {
          "indexed": true,
          "internalType": "address",
          "name": "previousOwner",
          "type": "address"
        },
        {
          "indexed": true,
          "internalType": "address",
          "name": "newOwner",
          "type": "address"
        }
      ],
      "name": "OwnershipTransferred",
      "type": "event"
    },
    {
      "anonymous": false,
      "inputs": [
        {
          "indexed": true,
          "internalType": "address",
          "name": "buyer",
          "type": "address"
        },
        {
          "indexed": true,
          "internalType": "address",
          "name": "artist",
          "type": "address"
        },
        {
          "indexed": false,
          "internalType": "uint256",
          "name": "amount",
          "type": "uint256"
        },
        {
          "indexed": false,
          "internalType": "uint256",
          "name": "fee",
          "type": "uint256"
        }
      ],
      "name": "Purchase",
      "type": "event"
    },
    {
      "anonymous": false,
      "inputs": [
        {
          "indexed": false,
          "internalType": "address",
          "name": "from",
          "type": "address"
        },
        {
          "indexed": false,
          "internalType": "uint256",
          "name": "amount",
          "type": "uint256"
        }
      ],
      "name": "Received",
      "type": "event"
    },
    {
      "inputs": [
        {
          "components": [
            {
              "internalType": "address",
              "name": "artist",
              "type": "address"
            },
            {
              "internalType": "uint256",
              "name": "amountPaid",
              "type": "uint256"
            },
            {
              "internalType": "uint256",
              "name": "releasePrice",
              "type": "uint256"
            }
          ],
          "internalType": "struct GridFirePayment.BasketItem[]",
          "name": "basket",
          "type": "tuple[]"
        }
      ],
      "name": "checkout",
      "outputs": [],
      "stateMutability": "nonpayable",
      "type": "function"
    },
    {
      "inputs": [],
      "name": "claim",
      "outputs": [],
      "stateMutability": "nonpayable",
      "type": "function"
    },
    {
      "inputs": [
        {
          "internalType": "address",
          "name": "artist",
          "type": "address"
        }
      ],
      "name": "getBalance",
      "outputs": [
        {
          "internalType": "uint256",
          "name": "",
          "type": "uint256"
        }
      ],
      "stateMutability": "view",
      "type": "function"
    },
    {
      "inputs": [],
      "name": "getServiceFee",
      "outputs": [
        {
          "internalType": "uint256",
          "name": "",
          "type": "uint256"
        }
      ],
      "stateMutability": "view",
      "type": "function"
    },
    {
      "inputs": [],
      "name": "owner",
      "outputs": [
        {
          "internalType": "address",
          "name": "",
          "type": "address"
        }
      ],
      "stateMutability": "view",
      "type": "function"
    },
    {
      "inputs": [
        {
          "internalType": "address",
          "name": "artist",
          "type": "address"
        },
        {
          "internalType": "uint256",
          "name": "amountPaid",
          "type": "uint256"
        },
        {
          "internalType": "uint256",
          "name": "releasePrice",
          "type": "uint256"
        }
      ],
      "name": "purchase",
      "outputs": [],
      "stateMutability": "nonpayable",
      "type": "function"
    },
    {
      "inputs": [],
      "name": "renounceOwnership",
      "outputs": [],
      "stateMutability": "nonpayable",
      "type": "function"
    },
    {
      "inputs": [
        {
          "internalType": "uint256",
          "name": "newFee",
          "type": "uint256"
        }
      ],
      "name": "setServiceFee",
      "outputs": [],
      "stateMutability": "nonpayable",
      "type": "function"
    },
    {
      "inputs": [
        {
          "internalType": "address",
          "name": "newOwner",
          "type": "address"
        }
      ],
      "name": "transferOwnership",
      "outputs": [],
      "stateMutability": "nonpayable",
      "type": "function"
    },
    {
      "inputs": [],
      "name": "withdraw",
      "outputs": [],
      "stateMutability": "nonpayable",
      "type": "function"
    },
    {
      "stateMutability": "payable",
      "type": "receive"
    }
  ],
  "bytecode": "0x60806040526005600155736b175474e89094c44da98b954eedeac495271d0f600360006101000a81548173ffffffffffffffffffffffffffffffffffffffff021916908373ffffffffffffffffffffffffffffffffffffffff16021790555034801561006a57600080fd5b5061008761007c61008c60201b60201c565b61009460201b60201c565b610158565b600033905090565b60008060009054906101000a900473ffffffffffffffffffffffffffffffffffffffff169050816000806101000a81548173ffffffffffffffffffffffffffffffffffffffff021916908373ffffffffffffffffffffffffffffffffffffffff1602179055508173ffffffffffffffffffffffffffffffffffffffff168173ffffffffffffffffffffffffffffffffffffffff167f8be0079c531659141344cd1fd0a4f28419497f9722a3daafe3b4186f6b6457e060405160405180910390a35050565b6113a3806101676000396000f3fe6080604052600436106100955760003560e01c80638da5cb5b116100595780638da5cb5b1461017357806398968f151461019e578063c980b32c146101c7578063f2fde38b146101f0578063f8b2cb4f14610219576100d5565b806311a1933c146100da5780633ccfd60b146101055780634e71d92d1461011c5780635cdf76f814610133578063715018a61461015c576100d5565b366100d5577f88a5966d370b9919b20f3e2c13ff65706f196a4e32cc2c12bf57088f8852587433346040516100cb929190610d22565b60405180910390a1005b600080fd5b3480156100e657600080fd5b506100ef610256565b6040516100fc9190610d4b565b60405180910390f35b34801561011157600080fd5b5061011a610260565b005b34801561012857600080fd5b50610131610325565b005b34801561013f57600080fd5b5061015a60048036038101906101559190610d9c565b6104e6565b005b34801561016857600080fd5b50610171610579565b005b34801561017f57600080fd5b50610188610601565b6040516101959190610dc9565b60405180910390f35b3480156101aa57600080fd5b506101c560048036038101906101c09190610e10565b61062a565b005b3480156101d357600080fd5b506101ee60048036038101906101e99190610ec8565b610654565b005b3480156101fc57600080fd5b5061021760048036038101906102129190610f15565b610836565b005b34801561022557600080fd5b50610240600480360381019061023b9190610f15565b61092e565b60405161024d9190610d4b565b60405180910390f35b6000600154905090565b610268610977565b73ffffffffffffffffffffffffffffffffffffffff16610286610601565b73ffffffffffffffffffffffffffffffffffffffff16146102dc576040517f08c379a00000000000000000000000000000000000000000000000000000000081526004016102d390610f9f565b60405180910390fd5b3373ffffffffffffffffffffffffffffffffffffffff166108fc479081150290604051600060405180830381858888f19350505050158015610322573d6000803e3d6000fd5b50565b6000600260003373ffffffffffffffffffffffffffffffffffffffff1673ffffffffffffffffffffffffffffffffffffffff16815260200190815260200160002054905060008114156103ad576040517f08c379a00000000000000000000000000000000000000000000000000000000081526004016103a49061100b565b60405180910390fd5b6000600260003373ffffffffffffffffffffffffffffffffffffffff1673ffffffffffffffffffffffffffffffffffffffff16815260200190815260200160002081905550600360009054906101000a900473ffffffffffffffffffffffffffffffffffffffff1673ffffffffffffffffffffffffffffffffffffffff166323b872dd3033846040518463ffffffff1660e01b81526004016104519392919061102b565b6020604051808303816000875af1158015610470573d6000803e3d6000fd5b505050506040513d601f19601f82011682018060405250810190610494919061109a565b503373ffffffffffffffffffffffffffffffffffffffff167f47cee97cb7acd717b3c0aa1435d004cd5b3c8c57d70dbceb4e4458bbd60e39d4826040516104db9190610d4b565b60405180910390a250565b6104ee610977565b73ffffffffffffffffffffffffffffffffffffffff1661050c610601565b73ffffffffffffffffffffffffffffffffffffffff1614610562576040517f08c379a000000000000000000000000000000000000000000000000000000000815260040161055990610f9f565b60405180910390fd5b6064811061056f57600080fd5b8060018190555050565b610581610977565b73ffffffffffffffffffffffffffffffffffffffff1661059f610601565b73ffffffffffffffffffffffffffffffffffffffff16146105f5576040517f08c379a00000000000000000000000000000000000000000000000000000000081526004016105ec90610f9f565b60405180910390fd5b6105ff600061097f565b565b60008060009054906101000a900473ffffffffffffffffffffffffffffffffffffffff16905090565b600082141561063857600080fd5b8082101561064557600080fd5b61064f8383610a43565b505050565b6000805b8383905081101561078d576000848483818110610678576106776110c7565b5b90506060020160000160208101906106909190610f15565b905060008585848181106106a7576106a66110c7565b5b90506060020160200135905060008686858181106106c8576106c76110c7565b5b90506060020160400135905060008214156106e257600080fd5b808210156106ef57600080fd5b81856106fb9190611125565b945060008061070a8585610b64565b915091508473ffffffffffffffffffffffffffffffffffffffff163373ffffffffffffffffffffffffffffffffffffffff167f46661dab58311a6838247afecbee792192b4f27fc8b3e7168c66bc55ec2e404e848460405161076d92919061117b565b60405180910390a350505050508080610785906111a4565b915050610658565b50600360009054906101000a900473ffffffffffffffffffffffffffffffffffffffff1673ffffffffffffffffffffffffffffffffffffffff166323b872dd3330846040518463ffffffff1660e01b81526004016107ed9392919061102b565b6020604051808303816000875af115801561080c573d6000803e3d6000fd5b505050506040513d601f19601f82011682018060405250810190610830919061109a565b50505050565b61083e610977565b73ffffffffffffffffffffffffffffffffffffffff1661085c610601565b73ffffffffffffffffffffffffffffffffffffffff16146108b2576040517f08c379a00000000000000000000000000000000000000000000000000000000081526004016108a990610f9f565b60405180910390fd5b600073ffffffffffffffffffffffffffffffffffffffff168173ffffffffffffffffffffffffffffffffffffffff161415610922576040517f08c379a00000000000000000000000000000000000000000000000000000000081526004016109199061125f565b60405180910390fd5b61092b8161097f565b50565b6000600260008373ffffffffffffffffffffffffffffffffffffffff1673ffffffffffffffffffffffffffffffffffffffff168152602001908152602001600020549050919050565b600033905090565b60008060009054906101000a900473ffffffffffffffffffffffffffffffffffffffff169050816000806101000a81548173ffffffffffffffffffffffffffffffffffffffff021916908373ffffffffffffffffffffffffffffffffffffffff1602179055508173ffffffffffffffffffffffffffffffffffffffff168173ffffffffffffffffffffffffffffffffffffffff167f8be0079c531659141344cd1fd0a4f28419497f9722a3daafe3b4186f6b6457e060405160405180910390a35050565b600080610a508484610b64565b91509150600360009054906101000a900473ffffffffffffffffffffffffffffffffffffffff1673ffffffffffffffffffffffffffffffffffffffff166323b872dd3330866040518463ffffffff1660e01b8152600401610ab39392919061102b565b6020604051808303816000875af1158015610ad2573d6000803e3d6000fd5b505050506040513d601f19601f82011682018060405250810190610af6919061109a565b508373ffffffffffffffffffffffffffffffffffffffff163373ffffffffffffffffffffffffffffffffffffffff167f46661dab58311a6838247afecbee792192b4f27fc8b3e7168c66bc55ec2e404e8484604051610b5692919061117b565b60405180910390a350505050565b6000806000831415610b7557600080fd5b6000806001541415610bdc5783600260008773ffffffffffffffffffffffffffffffffffffffff1673ffffffffffffffffffffffffffffffffffffffff1681526020019081526020016000206000828254610bd09190611125565b92505081905550610cba565b606460015485610bec919061127f565b610bf69190611308565b90508060026000610c05610601565b73ffffffffffffffffffffffffffffffffffffffff1673ffffffffffffffffffffffffffffffffffffffff1681526020019081526020016000206000828254610c4e9190611125565b925050819055508084610c619190611339565b935083600260008773ffffffffffffffffffffffffffffffffffffffff1673ffffffffffffffffffffffffffffffffffffffff1681526020019081526020016000206000828254610cb29190611125565b925050819055505b838192509250509250929050565b600073ffffffffffffffffffffffffffffffffffffffff82169050919050565b6000610cf382610cc8565b9050919050565b610d0381610ce8565b82525050565b6000819050919050565b610d1c81610d09565b82525050565b6000604082019050610d376000830185610cfa565b610d446020830184610d13565b9392505050565b6000602082019050610d606000830184610d13565b92915050565b600080fd5b600080fd5b610d7981610d09565b8114610d8457600080fd5b50565b600081359050610d9681610d70565b92915050565b600060208284031215610db257610db1610d66565b5b6000610dc084828501610d87565b91505092915050565b6000602082019050610dde6000830184610cfa565b92915050565b610ded81610ce8565b8114610df857600080fd5b50565b600081359050610e0a81610de4565b92915050565b600080600060608486031215610e2957610e28610d66565b5b6000610e3786828701610dfb565b9350506020610e4886828701610d87565b9250506040610e5986828701610d87565b9150509250925092565b600080fd5b600080fd5b600080fd5b60008083601f840112610e8857610e87610e63565b5b8235905067ffffffffffffffff811115610ea557610ea4610e68565b5b602083019150836060820283011115610ec157610ec0610e6d565b5b9250929050565b60008060208385031215610edf57610ede610d66565b5b600083013567ffffffffffffffff811115610efd57610efc610d6b565b5b610f0985828601610e72565b92509250509250929050565b600060208284031215610f2b57610f2a610d66565b5b6000610f3984828501610dfb565b91505092915050565b600082825260208201905092915050565b7f4f776e61626c653a2063616c6c6572206973206e6f7420746865206f776e6572600082015250565b6000610f89602083610f42565b9150610f9482610f53565b602082019050919050565b60006020820190508181036000830152610fb881610f7c565b9050919050565b7f4e6f7468696e6720746f20636c61696d2e000000000000000000000000000000600082015250565b6000610ff5601183610f42565b915061100082610fbf565b602082019050919050565b6000602082019050818103600083015261102481610fe8565b9050919050565b60006060820190506110406000830186610cfa565b61104d6020830185610cfa565b61105a6040830184610d13565b949350505050565b60008115159050919050565b61107781611062565b811461108257600080fd5b50565b6000815190506110948161106e565b92915050565b6000602082840312156110b0576110af610d66565b5b60006110be84828501611085565b91505092915050565b7f4e487b7100000000000000000000000000000000000000000000000000000000600052603260045260246000fd5b7f4e487b7100000000000000000000000000000000000000000000000000000000600052601160045260246000fd5b600061113082610d09565b915061113b83610d09565b9250827fffffffffffffffffffffffffffffffffffffffffffffffffffffffffffffffff038211156111705761116f6110f6565b5b828201905092915050565b60006040820190506111906000830185610d13565b61119d6020830184610d13565b9392505050565b60006111af82610d09565b91507fffffffffffffffffffffffffffffffffffffffffffffffffffffffffffffffff8214156111e2576111e16110f6565b5b600182019050919050565b7f4f776e61626c653a206e6577206f776e657220697320746865207a65726f206160008201527f6464726573730000000000000000000000000000000000000000000000000000602082015250565b6000611249602683610f42565b9150611254826111ed565b604082019050919050565b600060208201905081810360008301526112788161123c565b9050919050565b600061128a82610d09565b915061129583610d09565b9250817fffffffffffffffffffffffffffffffffffffffffffffffffffffffffffffffff04831182151516156112ce576112cd6110f6565b5b828202905092915050565b7f4e487b7100000000000000000000000000000000000000000000000000000000600052601260045260246000fd5b600061131382610d09565b915061131e83610d09565b92508261132e5761132d6112d9565b5b828204905092915050565b600061134482610d09565b915061134f83610d09565b925082821015611362576113616110f6565b5b82820390509291505056fea26469706673582212207956aaef067551df5692f6886d932c9dea628327c840cfb1200d7c934c5ecdd664736f6c634300080a0033",
  "linkReferences": {},
  "deployedLinkReferences": {}
}