{
  "_format": "hh-sol-artifact-1",
  "contractName": "GridFirePayment",
  "sourceName": "contracts/GridFirePayment.sol",
  "abi": [
    {
      "anonymous": false,
      "inputs": [
        {
          "indexed": true,
          "internalType": "address",
          "name": "buyer",
          "type": "address"
        },
        {
          "indexed": false,
          "internalType": "uint256",
          "name": "amount",
          "type": "uint256"
        }
      ],
      "name": "Checkout",
      "type": "event"
    },
    {
      "anonymous": false,
      "inputs": [
        {
          "indexed": true,
          "internalType": "address",
          "name": "artist",
          "type": "address"
        },
        {
          "indexed": false,
          "internalType": "uint256",
          "name": "amount",
          "type": "uint256"
        }
      ],
      "name": "Claim",
      "type": "event"
    },
    {
      "anonymous": false,
      "inputs": [
        {
          "indexed": true,
          "internalType": "address",
          "name": "previousOwner",
          "type": "address"
        },
        {
          "indexed": true,
          "internalType": "address",
          "name": "newOwner",
          "type": "address"
        }
      ],
      "name": "OwnershipTransferred",
      "type": "event"
    },
    {
      "anonymous": false,
      "inputs": [
        {
          "indexed": true,
          "internalType": "address",
          "name": "buyer",
          "type": "address"
        },
        {
          "indexed": true,
          "internalType": "address",
          "name": "artist",
          "type": "address"
        },
        {
          "indexed": false,
          "internalType": "uint256",
          "name": "amount",
          "type": "uint256"
        },
        {
          "indexed": false,
          "internalType": "uint256",
          "name": "fee",
          "type": "uint256"
        }
      ],
      "name": "Purchase",
      "type": "event"
    },
    {
      "anonymous": false,
      "inputs": [
        {
          "indexed": false,
          "internalType": "address",
          "name": "from",
          "type": "address"
        },
        {
          "indexed": false,
          "internalType": "uint256",
          "name": "amount",
          "type": "uint256"
        }
      ],
      "name": "Received",
      "type": "event"
    },
    {
      "inputs": [
        {
          "components": [
            {
              "internalType": "address",
              "name": "artist",
              "type": "address"
            },
            {
              "internalType": "uint256",
              "name": "amountPaid",
              "type": "uint256"
            },
            {
              "internalType": "uint256",
              "name": "releasePrice",
              "type": "uint256"
            }
          ],
          "internalType": "struct GridFirePayment.BasketItem[]",
          "name": "basket",
          "type": "tuple[]"
        }
      ],
      "name": "checkout",
      "outputs": [],
      "stateMutability": "nonpayable",
      "type": "function"
    },
    {
      "inputs": [],
      "name": "claim",
      "outputs": [],
      "stateMutability": "nonpayable",
      "type": "function"
    },
    {
      "inputs": [
        {
          "internalType": "address",
          "name": "artist",
          "type": "address"
        }
      ],
      "name": "getBalance",
      "outputs": [
        {
          "internalType": "uint256",
          "name": "",
          "type": "uint256"
        }
      ],
      "stateMutability": "view",
      "type": "function"
    },
    {
      "inputs": [],
      "name": "getServiceFee",
      "outputs": [
        {
          "internalType": "uint256",
          "name": "",
          "type": "uint256"
        }
      ],
      "stateMutability": "view",
      "type": "function"
    },
    {
      "inputs": [],
      "name": "owner",
      "outputs": [
        {
          "internalType": "address",
          "name": "",
          "type": "address"
        }
      ],
      "stateMutability": "view",
      "type": "function"
    },
    {
      "inputs": [
        {
          "internalType": "address",
          "name": "artist",
          "type": "address"
        },
        {
          "internalType": "uint256",
          "name": "amountPaid",
          "type": "uint256"
        },
        {
          "internalType": "uint256",
          "name": "releasePrice",
          "type": "uint256"
        }
      ],
      "name": "purchase",
      "outputs": [],
      "stateMutability": "nonpayable",
      "type": "function"
    },
    {
      "inputs": [],
      "name": "renounceOwnership",
      "outputs": [],
      "stateMutability": "nonpayable",
      "type": "function"
    },
    {
      "inputs": [
        {
          "internalType": "uint256",
          "name": "newFee",
          "type": "uint256"
        }
      ],
      "name": "setServiceFee",
      "outputs": [],
      "stateMutability": "nonpayable",
      "type": "function"
    },
    {
      "inputs": [
        {
          "internalType": "address",
          "name": "newOwner",
          "type": "address"
        }
      ],
      "name": "transferOwnership",
      "outputs": [],
      "stateMutability": "nonpayable",
      "type": "function"
    },
    {
      "inputs": [],
      "name": "withdraw",
      "outputs": [],
      "stateMutability": "nonpayable",
      "type": "function"
    },
    {
      "stateMutability": "payable",
      "type": "receive"
    }
  ],
  "bytecode": "0x60806040526005600155736b175474e89094c44da98b954eedeac495271d0f600360006101000a81548173ffffffffffffffffffffffffffffffffffffffff021916908373ffffffffffffffffffffffffffffffffffffffff16021790555034801561006a57600080fd5b5061008761007c61008c60201b60201c565b61009460201b60201c565b610158565b600033905090565b60008060009054906101000a900473ffffffffffffffffffffffffffffffffffffffff169050816000806101000a81548173ffffffffffffffffffffffffffffffffffffffff021916908373ffffffffffffffffffffffffffffffffffffffff1602179055508173ffffffffffffffffffffffffffffffffffffffff168173ffffffffffffffffffffffffffffffffffffffff167f8be0079c531659141344cd1fd0a4f28419497f9722a3daafe3b4186f6b6457e060405160405180910390a35050565b6113e5806101676000396000f3fe6080604052600436106100955760003560e01c80638da5cb5b116100595780638da5cb5b1461017357806398968f151461019e578063c980b32c146101c7578063f2fde38b146101f0578063f8b2cb4f14610219576100d5565b806311a1933c146100da5780633ccfd60b146101055780634e71d92d1461011c5780635cdf76f814610133578063715018a61461015c576100d5565b366100d5577f88a5966d370b9919b20f3e2c13ff65706f196a4e32cc2c12bf57088f8852587433346040516100cb929190610d65565b60405180910390a1005b600080fd5b3480156100e657600080fd5b506100ef610256565b6040516100fc9190610d8e565b60405180910390f35b34801561011157600080fd5b5061011a610260565b005b34801561012857600080fd5b50610131610325565b005b34801561013f57600080fd5b5061015a60048036038101906101559190610ddf565b6104e5565b005b34801561016857600080fd5b50610171610578565b005b34801561017f57600080fd5b50610188610600565b6040516101959190610e0c565b60405180910390f35b3480156101aa57600080fd5b506101c560048036038101906101c09190610e53565b610629565b005b3480156101d357600080fd5b506101ee60048036038101906101e99190610f0b565b610652565b005b3480156101fc57600080fd5b5061021760048036038101906102129190610f58565b610874565b005b34801561022557600080fd5b50610240600480360381019061023b9190610f58565b61096b565b60405161024d9190610d8e565b60405180910390f35b6000600154905090565b6102686109b4565b73ffffffffffffffffffffffffffffffffffffffff16610286610600565b73ffffffffffffffffffffffffffffffffffffffff16146102dc576040517f08c379a00000000000000000000000000000000000000000000000000000000081526004016102d390610fe2565b60405180910390fd5b3373ffffffffffffffffffffffffffffffffffffffff166108fc479081150290604051600060405180830381858888f19350505050158015610322573d6000803e3d6000fd5b50565b6000600260003373ffffffffffffffffffffffffffffffffffffffff1673ffffffffffffffffffffffffffffffffffffffff168152602001908152602001600020549050600081036103ac576040517f08c379a00000000000000000000000000000000000000000000000000000000081526004016103a39061104e565b60405180910390fd5b6000600260003373ffffffffffffffffffffffffffffffffffffffff1673ffffffffffffffffffffffffffffffffffffffff16815260200190815260200160002081905550600360009054906101000a900473ffffffffffffffffffffffffffffffffffffffff1673ffffffffffffffffffffffffffffffffffffffff166323b872dd3033846040518463ffffffff1660e01b81526004016104509392919061106e565b6020604051808303816000875af115801561046f573d6000803e3d6000fd5b505050506040513d601f19601f8201168201806040525081019061049391906110dd565b503373ffffffffffffffffffffffffffffffffffffffff167f47cee97cb7acd717b3c0aa1435d004cd5b3c8c57d70dbceb4e4458bbd60e39d4826040516104da9190610d8e565b60405180910390a250565b6104ed6109b4565b73ffffffffffffffffffffffffffffffffffffffff1661050b610600565b73ffffffffffffffffffffffffffffffffffffffff1614610561576040517f08c379a000000000000000000000000000000000000000000000000000000000815260040161055890610fe2565b60405180910390fd5b6064811061056e57600080fd5b8060018190555050565b6105806109b4565b73ffffffffffffffffffffffffffffffffffffffff1661059e610600565b73ffffffffffffffffffffffffffffffffffffffff16146105f4576040517f08c379a00000000000000000000000000000000000000000000000000000000081526004016105eb90610fe2565b60405180910390fd5b6105fe60006109bc565b565b60008060009054906101000a900473ffffffffffffffffffffffffffffffffffffffff16905090565b6000820361063657600080fd5b8082101561064357600080fd5b61064d8383610a80565b505050565b6000805b8383905081101561077d5760008484838181106106765761067561110a565b5b905060600201600001602081019061068e9190610f58565b905060008585848181106106a5576106a461110a565b5b90506060020160200135905060008686858181106106c6576106c561110a565b5b905060600201604001359050808210156106df57600080fd5b81856106eb9190611168565b94506000806106fa8585610ba1565b915091508473ffffffffffffffffffffffffffffffffffffffff163373ffffffffffffffffffffffffffffffffffffffff167f46661dab58311a6838247afecbee792192b4f27fc8b3e7168c66bc55ec2e404e848460405161075d9291906111be565b60405180910390a350505050508080610775906111e7565b915050610656565b50600360009054906101000a900473ffffffffffffffffffffffffffffffffffffffff1673ffffffffffffffffffffffffffffffffffffffff166323b872dd3330846040518463ffffffff1660e01b81526004016107dd9392919061106e565b6020604051808303816000875af11580156107fc573d6000803e3d6000fd5b505050506040513d601f19601f8201168201806040525081019061082091906110dd565b503373ffffffffffffffffffffffffffffffffffffffff167f10190e7f174afbe5482194d509017e9df854671cd62fb4ef901fbd0080c1e6b6826040516108679190610d8e565b60405180910390a2505050565b61087c6109b4565b73ffffffffffffffffffffffffffffffffffffffff1661089a610600565b73ffffffffffffffffffffffffffffffffffffffff16146108f0576040517f08c379a00000000000000000000000000000000000000000000000000000000081526004016108e790610fe2565b60405180910390fd5b600073ffffffffffffffffffffffffffffffffffffffff168173ffffffffffffffffffffffffffffffffffffffff160361095f576040517f08c379a0000000000000000000000000000000000000000000000000000000008152600401610956906112a1565b60405180910390fd5b610968816109bc565b50565b6000600260008373ffffffffffffffffffffffffffffffffffffffff1673ffffffffffffffffffffffffffffffffffffffff168152602001908152602001600020549050919050565b600033905090565b60008060009054906101000a900473ffffffffffffffffffffffffffffffffffffffff169050816000806101000a81548173ffffffffffffffffffffffffffffffffffffffff021916908373ffffffffffffffffffffffffffffffffffffffff1602179055508173ffffffffffffffffffffffffffffffffffffffff168173ffffffffffffffffffffffffffffffffffffffff167f8be0079c531659141344cd1fd0a4f28419497f9722a3daafe3b4186f6b6457e060405160405180910390a35050565b600080610a8d8484610ba1565b91509150600360009054906101000a900473ffffffffffffffffffffffffffffffffffffffff1673ffffffffffffffffffffffffffffffffffffffff166323b872dd3330866040518463ffffffff1660e01b8152600401610af09392919061106e565b6020604051808303816000875af1158015610b0f573d6000803e3d6000fd5b505050506040513d601f19601f82011682018060405250810190610b3391906110dd565b508373ffffffffffffffffffffffffffffffffffffffff163373ffffffffffffffffffffffffffffffffffffffff167f46661dab58311a6838247afecbee792192b4f27fc8b3e7168c66bc55ec2e404e8484604051610b939291906111be565b60405180910390a350505050565b6000806000808403610bb95783819250925050610d04565b600060015403610c1e5783600260008773ffffffffffffffffffffffffffffffffffffffff1673ffffffffffffffffffffffffffffffffffffffff1681526020019081526020016000206000828254610c129190611168565b92505081905550610cfc565b606460015485610c2e91906112c1565b610c38919061134a565b90508060026000610c47610600565b73ffffffffffffffffffffffffffffffffffffffff1673ffffffffffffffffffffffffffffffffffffffff1681526020019081526020016000206000828254610c909190611168565b925050819055508084610ca3919061137b565b935083600260008773ffffffffffffffffffffffffffffffffffffffff1673ffffffffffffffffffffffffffffffffffffffff1681526020019081526020016000206000828254610cf49190611168565b925050819055505b838192509250505b9250929050565b600073ffffffffffffffffffffffffffffffffffffffff82169050919050565b6000610d3682610d0b565b9050919050565b610d4681610d2b565b82525050565b6000819050919050565b610d5f81610d4c565b82525050565b6000604082019050610d7a6000830185610d3d565b610d876020830184610d56565b9392505050565b6000602082019050610da36000830184610d56565b92915050565b600080fd5b600080fd5b610dbc81610d4c565b8114610dc757600080fd5b50565b600081359050610dd981610db3565b92915050565b600060208284031215610df557610df4610da9565b5b6000610e0384828501610dca565b91505092915050565b6000602082019050610e216000830184610d3d565b92915050565b610e3081610d2b565b8114610e3b57600080fd5b50565b600081359050610e4d81610e27565b92915050565b600080600060608486031215610e6c57610e6b610da9565b5b6000610e7a86828701610e3e565b9350506020610e8b86828701610dca565b9250506040610e9c86828701610dca565b9150509250925092565b600080fd5b600080fd5b600080fd5b60008083601f840112610ecb57610eca610ea6565b5b8235905067ffffffffffffffff811115610ee857610ee7610eab565b5b602083019150836060820283011115610f0457610f03610eb0565b5b9250929050565b60008060208385031215610f2257610f21610da9565b5b600083013567ffffffffffffffff811115610f4057610f3f610dae565b5b610f4c85828601610eb5565b92509250509250929050565b600060208284031215610f6e57610f6d610da9565b5b6000610f7c84828501610e3e565b91505092915050565b600082825260208201905092915050565b7f4f776e61626c653a2063616c6c6572206973206e6f7420746865206f776e6572600082015250565b6000610fcc602083610f85565b9150610fd782610f96565b602082019050919050565b60006020820190508181036000830152610ffb81610fbf565b9050919050565b7f4e6f7468696e6720746f20636c61696d2e000000000000000000000000000000600082015250565b6000611038601183610f85565b915061104382611002565b602082019050919050565b600060208201905081810360008301526110678161102b565b9050919050565b60006060820190506110836000830186610d3d565b6110906020830185610d3d565b61109d6040830184610d56565b949350505050565b60008115159050919050565b6110ba816110a5565b81146110c557600080fd5b50565b6000815190506110d7816110b1565b92915050565b6000602082840312156110f3576110f2610da9565b5b6000611101848285016110c8565b91505092915050565b7f4e487b7100000000000000000000000000000000000000000000000000000000600052603260045260246000fd5b7f4e487b7100000000000000000000000000000000000000000000000000000000600052601160045260246000fd5b600061117382610d4c565b915061117e83610d4c565b9250827fffffffffffffffffffffffffffffffffffffffffffffffffffffffffffffffff038211156111b3576111b2611139565b5b828201905092915050565b60006040820190506111d36000830185610d56565b6111e06020830184610d56565b9392505050565b60006111f282610d4c565b91507fffffffffffffffffffffffffffffffffffffffffffffffffffffffffffffffff820361122457611223611139565b5b600182019050919050565b7f4f776e61626c653a206e6577206f776e657220697320746865207a65726f206160008201527f6464726573730000000000000000000000000000000000000000000000000000602082015250565b600061128b602683610f85565b91506112968261122f565b604082019050919050565b600060208201905081810360008301526112ba8161127e565b9050919050565b60006112cc82610d4c565b91506112d783610d4c565b9250817fffffffffffffffffffffffffffffffffffffffffffffffffffffffffffffffff04831182151516156113105761130f611139565b5b828202905092915050565b7f4e487b7100000000000000000000000000000000000000000000000000000000600052601260045260246000fd5b600061135582610d4c565b915061136083610d4c565b9250826113705761136f61131b565b5b828204905092915050565b600061138682610d4c565b915061139183610d4c565b9250828210156113a4576113a3611139565b5b82820390509291505056fea2646970667358221220de345b4502025c728459c2fc173fcb272c9ea16438720ee5517bfc3e2227fdeb64736f6c634300080e0033",
  "linkReferences": {},
  "deployedLinkReferences": {}
}