{
  "_format": "hh-sol-artifact-1",
  "contractName": "GridFirePayment",
  "sourceName": "contracts/GridFirePayment.sol",
  "abi": [
    {
      "anonymous": false,
      "inputs": [
        {
          "indexed": true,
          "internalType": "address",
          "name": "artist",
          "type": "address"
        },
        {
          "indexed": false,
          "internalType": "uint256",
          "name": "amount",
          "type": "uint256"
        }
      ],
      "name": "Claim",
      "type": "event"
    },
    {
      "anonymous": false,
      "inputs": [
        {
          "indexed": true,
          "internalType": "address",
          "name": "previousOwner",
          "type": "address"
        },
        {
          "indexed": true,
          "internalType": "address",
          "name": "newOwner",
          "type": "address"
        }
      ],
      "name": "OwnershipTransferred",
      "type": "event"
    },
    {
      "anonymous": false,
      "inputs": [
        {
          "indexed": true,
          "internalType": "address",
          "name": "buyer",
          "type": "address"
        },
        {
          "indexed": true,
          "internalType": "address",
          "name": "artist",
          "type": "address"
        },
        {
          "indexed": false,
          "internalType": "uint256",
          "name": "amount",
          "type": "uint256"
        },
        {
          "indexed": false,
          "internalType": "uint256",
          "name": "fee",
          "type": "uint256"
        }
      ],
      "name": "Purchase",
      "type": "event"
    },
    {
      "anonymous": false,
      "inputs": [
        {
          "indexed": false,
          "internalType": "address",
          "name": "from",
          "type": "address"
        },
        {
          "indexed": false,
          "internalType": "uint256",
          "name": "amount",
          "type": "uint256"
        }
      ],
      "name": "Received",
      "type": "event"
    },
    {
      "inputs": [],
      "name": "claim",
      "outputs": [],
      "stateMutability": "nonpayable",
      "type": "function"
    },
    {
      "inputs": [
        {
          "internalType": "address",
          "name": "_artist",
          "type": "address"
        }
      ],
      "name": "getBalance",
      "outputs": [
        {
          "internalType": "uint256",
          "name": "",
          "type": "uint256"
        }
      ],
      "stateMutability": "view",
      "type": "function"
    },
    {
      "inputs": [],
      "name": "getOwnerBalance",
      "outputs": [
        {
          "internalType": "uint256",
          "name": "",
          "type": "uint256"
        }
      ],
      "stateMutability": "view",
      "type": "function"
    },
    {
      "inputs": [],
      "name": "getServiceFee",
      "outputs": [
        {
          "internalType": "uint256",
          "name": "",
          "type": "uint256"
        }
      ],
      "stateMutability": "view",
      "type": "function"
    },
    {
      "inputs": [],
      "name": "owner",
      "outputs": [
        {
          "internalType": "address",
          "name": "",
          "type": "address"
        }
      ],
      "stateMutability": "view",
      "type": "function"
    },
    {
      "inputs": [
        {
          "internalType": "address",
          "name": "_artist",
          "type": "address"
        },
        {
          "internalType": "uint256",
          "name": "_paid",
          "type": "uint256"
        },
        {
          "internalType": "uint256",
          "name": "_releasePrice",
          "type": "uint256"
        }
      ],
      "name": "purchase",
      "outputs": [],
      "stateMutability": "nonpayable",
      "type": "function"
    },
    {
      "inputs": [],
      "name": "renounceOwnership",
      "outputs": [],
      "stateMutability": "nonpayable",
      "type": "function"
    },
    {
      "inputs": [
        {
          "internalType": "uint256",
          "name": "_newFee",
          "type": "uint256"
        }
      ],
      "name": "setServiceFee",
      "outputs": [],
      "stateMutability": "nonpayable",
      "type": "function"
    },
    {
      "inputs": [
        {
          "internalType": "address",
          "name": "newOwner",
          "type": "address"
        }
      ],
      "name": "transferOwnership",
      "outputs": [],
      "stateMutability": "nonpayable",
      "type": "function"
    },
    {
      "inputs": [],
      "name": "withdraw",
      "outputs": [],
      "stateMutability": "nonpayable",
      "type": "function"
    },
    {
      "inputs": [],
      "name": "withdrawOwnerBalance",
      "outputs": [],
      "stateMutability": "nonpayable",
      "type": "function"
    },
    {
      "stateMutability": "payable",
      "type": "receive"
    }
  ],
  "bytecode": "0x60806040526005600155736b175474e89094c44da98b954eedeac495271d0f600360006101000a81548173ffffffffffffffffffffffffffffffffffffffff021916908373ffffffffffffffffffffffffffffffffffffffff16021790555034801561006a57600080fd5b5061008761007c61008c60201b60201c565b61009460201b60201c565b610158565b600033905090565b60008060009054906101000a900473ffffffffffffffffffffffffffffffffffffffff169050816000806101000a81548173ffffffffffffffffffffffffffffffffffffffff021916908373ffffffffffffffffffffffffffffffffffffffff1602179055508173ffffffffffffffffffffffffffffffffffffffff168173ffffffffffffffffffffffffffffffffffffffff167f8be0079c531659141344cd1fd0a4f28419497f9722a3daafe3b4186f6b6457e060405160405180910390a35050565b61159e806101676000396000f3fe6080604052600436106100a05760003560e01c8063715018a611610064578063715018a6146101925780638da5cb5b146101a9578063941b80ac146101d457806398968f15146101eb578063f2fde38b14610214578063f8b2cb4f1461023d576100e0565b806311a1933c146100e55780633ccfd60b146101105780634e71d92d14610127578063590791f21461013e5780635cdf76f814610169576100e0565b366100e0577f88a5966d370b9919b20f3e2c13ff65706f196a4e32cc2c12bf57088f8852587433346040516100d6929190610f32565b60405180910390a1005b600080fd5b3480156100f157600080fd5b506100fa61027a565b6040516101079190610f5b565b60405180910390f35b34801561011c57600080fd5b50610125610284565b005b34801561013357600080fd5b5061013c610349565b005b34801561014a57600080fd5b506101536105e8565b6040516101609190610f5b565b60405180910390f35b34801561017557600080fd5b50610190600480360381019061018b9190610fa7565b61062f565b005b34801561019e57600080fd5b506101a76106c2565b005b3480156101b557600080fd5b506101be61074a565b6040516101cb9190610fd4565b60405180910390f35b3480156101e057600080fd5b506101e9610773565b005b3480156101f757600080fd5b50610212600480360381019061020d919061101b565b610a40565b005b34801561022057600080fd5b5061023b6004803603810190610236919061106e565b610a6a565b005b34801561024957600080fd5b50610264600480360381019061025f919061106e565b610b62565b6040516102719190610f5b565b60405180910390f35b6000600154905090565b61028c610bab565b73ffffffffffffffffffffffffffffffffffffffff166102aa61074a565b73ffffffffffffffffffffffffffffffffffffffff1614610300576040517f08c379a00000000000000000000000000000000000000000000000000000000081526004016102f7906110f8565b60405180910390fd5b3373ffffffffffffffffffffffffffffffffffffffff166108fc479081150290604051600060405180830381858888f19350505050158015610346573d6000803e3d6000fd5b50565b6000600260003373ffffffffffffffffffffffffffffffffffffffff1673ffffffffffffffffffffffffffffffffffffffff16815260200190815260200160002054905060008114156103d1576040517f08c379a00000000000000000000000000000000000000000000000000000000081526004016103c890611164565b60405180910390fd5b80600360009054906101000a900473ffffffffffffffffffffffffffffffffffffffff1673ffffffffffffffffffffffffffffffffffffffff166370a08231306040518263ffffffff1660e01b815260040161042d9190610fd4565b602060405180830381865afa15801561044a573d6000803e3d6000fd5b505050506040513d601f19601f8201168201806040525081019061046e9190611199565b10156104af576040517f08c379a00000000000000000000000000000000000000000000000000000000081526004016104a690611212565b60405180910390fd5b6000600260003373ffffffffffffffffffffffffffffffffffffffff1673ffffffffffffffffffffffffffffffffffffffff16815260200190815260200160002081905550600360009054906101000a900473ffffffffffffffffffffffffffffffffffffffff1673ffffffffffffffffffffffffffffffffffffffff166323b872dd3033846040518463ffffffff1660e01b815260040161055393929190611232565b6020604051808303816000875af1158015610572573d6000803e3d6000fd5b505050506040513d601f19601f8201168201806040525081019061059691906112a1565b503373ffffffffffffffffffffffffffffffffffffffff167f47cee97cb7acd717b3c0aa1435d004cd5b3c8c57d70dbceb4e4458bbd60e39d4826040516105dd9190610f5b565b60405180910390a250565b6000600260003073ffffffffffffffffffffffffffffffffffffffff1673ffffffffffffffffffffffffffffffffffffffff16815260200190815260200160002054905090565b610637610bab565b73ffffffffffffffffffffffffffffffffffffffff1661065561074a565b73ffffffffffffffffffffffffffffffffffffffff16146106ab576040517f08c379a00000000000000000000000000000000000000000000000000000000081526004016106a2906110f8565b60405180910390fd5b606481106106b857600080fd5b8060018190555050565b6106ca610bab565b73ffffffffffffffffffffffffffffffffffffffff166106e861074a565b73ffffffffffffffffffffffffffffffffffffffff161461073e576040517f08c379a0000000000000000000000000000000000000000000000000000000008152600401610735906110f8565b60405180910390fd5b6107486000610bb3565b565b60008060009054906101000a900473ffffffffffffffffffffffffffffffffffffffff16905090565b61077b610bab565b73ffffffffffffffffffffffffffffffffffffffff1661079961074a565b73ffffffffffffffffffffffffffffffffffffffff16146107ef576040517f08c379a00000000000000000000000000000000000000000000000000000000081526004016107e6906110f8565b60405180910390fd5b6000600260003073ffffffffffffffffffffffffffffffffffffffff1673ffffffffffffffffffffffffffffffffffffffff1681526020019081526020016000205490506000811415610877576040517f08c379a000000000000000000000000000000000000000000000000000000000815260040161086e9061131a565b60405180910390fd5b80600360009054906101000a900473ffffffffffffffffffffffffffffffffffffffff1673ffffffffffffffffffffffffffffffffffffffff166370a08231306040518263ffffffff1660e01b81526004016108d39190610fd4565b602060405180830381865afa1580156108f0573d6000803e3d6000fd5b505050506040513d601f19601f820116820180604052508101906109149190611199565b1015610955576040517f08c379a000000000000000000000000000000000000000000000000000000000815260040161094c90611212565b60405180910390fd5b6000600260003073ffffffffffffffffffffffffffffffffffffffff1673ffffffffffffffffffffffffffffffffffffffff16815260200190815260200160002081905550600360009054906101000a900473ffffffffffffffffffffffffffffffffffffffff1673ffffffffffffffffffffffffffffffffffffffff166323b872dd3033846040518463ffffffff1660e01b81526004016109f993929190611232565b6020604051808303816000875af1158015610a18573d6000803e3d6000fd5b505050506040513d601f19601f82011682018060405250810190610a3c91906112a1565b5050565b6000821415610a4e57600080fd5b80821015610a5b57600080fd5b610a658383610c77565b505050565b610a72610bab565b73ffffffffffffffffffffffffffffffffffffffff16610a9061074a565b73ffffffffffffffffffffffffffffffffffffffff1614610ae6576040517f08c379a0000000000000000000000000000000000000000000000000000000008152600401610add906110f8565b60405180910390fd5b600073ffffffffffffffffffffffffffffffffffffffff168173ffffffffffffffffffffffffffffffffffffffff161415610b56576040517f08c379a0000000000000000000000000000000000000000000000000000000008152600401610b4d906113ac565b60405180910390fd5b610b5f81610bb3565b50565b6000600260008373ffffffffffffffffffffffffffffffffffffffff1673ffffffffffffffffffffffffffffffffffffffff168152602001908152602001600020549050919050565b600033905090565b60008060009054906101000a900473ffffffffffffffffffffffffffffffffffffffff169050816000806101000a81548173ffffffffffffffffffffffffffffffffffffffff021916908373ffffffffffffffffffffffffffffffffffffffff1602179055508173ffffffffffffffffffffffffffffffffffffffff168173ffffffffffffffffffffffffffffffffffffffff167f8be0079c531659141344cd1fd0a4f28419497f9722a3daafe3b4186f6b6457e060405160405180910390a35050565b6000819050600080821415610c8b57600080fd5b60006001541415610cf15781600260008673ffffffffffffffffffffffffffffffffffffffff1673ffffffffffffffffffffffffffffffffffffffff1681526020019081526020016000206000828254610ce591906113fb565b92505081905550610dc8565b606460015483610d019190611451565b610d0b91906114da565b905080600260003073ffffffffffffffffffffffffffffffffffffffff1673ffffffffffffffffffffffffffffffffffffffff1681526020019081526020016000206000828254610d5c91906113fb565b925050819055508082610d6f919061150b565b915081600260008673ffffffffffffffffffffffffffffffffffffffff1673ffffffffffffffffffffffffffffffffffffffff1681526020019081526020016000206000828254610dc091906113fb565b925050819055505b600360009054906101000a900473ffffffffffffffffffffffffffffffffffffffff1673ffffffffffffffffffffffffffffffffffffffff166323b872dd3330866040518463ffffffff1660e01b8152600401610e2793929190611232565b6020604051808303816000875af1158015610e46573d6000803e3d6000fd5b505050506040513d601f19601f82011682018060405250810190610e6a91906112a1565b508373ffffffffffffffffffffffffffffffffffffffff163373ffffffffffffffffffffffffffffffffffffffff167f46661dab58311a6838247afecbee792192b4f27fc8b3e7168c66bc55ec2e404e8484604051610eca92919061153f565b60405180910390a350505050565b600073ffffffffffffffffffffffffffffffffffffffff82169050919050565b6000610f0382610ed8565b9050919050565b610f1381610ef8565b82525050565b6000819050919050565b610f2c81610f19565b82525050565b6000604082019050610f476000830185610f0a565b610f546020830184610f23565b9392505050565b6000602082019050610f706000830184610f23565b92915050565b600080fd5b610f8481610f19565b8114610f8f57600080fd5b50565b600081359050610fa181610f7b565b92915050565b600060208284031215610fbd57610fbc610f76565b5b6000610fcb84828501610f92565b91505092915050565b6000602082019050610fe96000830184610f0a565b92915050565b610ff881610ef8565b811461100357600080fd5b50565b60008135905061101581610fef565b92915050565b60008060006060848603121561103457611033610f76565b5b600061104286828701611006565b935050602061105386828701610f92565b925050604061106486828701610f92565b9150509250925092565b60006020828403121561108457611083610f76565b5b600061109284828501611006565b91505092915050565b600082825260208201905092915050565b7f4f776e61626c653a2063616c6c6572206973206e6f7420746865206f776e6572600082015250565b60006110e260208361109b565b91506110ed826110ac565b602082019050919050565b60006020820190508181036000830152611111816110d5565b9050919050565b7f4e6f7468696e6720746f20636c61696d2e000000000000000000000000000000600082015250565b600061114e60118361109b565b915061115982611118565b602082019050919050565b6000602082019050818103600083015261117d81611141565b9050919050565b60008151905061119381610f7b565b92915050565b6000602082840312156111af576111ae610f76565b5b60006111bd84828501611184565b91505092915050565b7f4441492062616c616e636520746f6f206c6f772e000000000000000000000000600082015250565b60006111fc60148361109b565b9150611207826111c6565b602082019050919050565b6000602082019050818103600083015261122b816111ef565b9050919050565b60006060820190506112476000830186610f0a565b6112546020830185610f0a565b6112616040830184610f23565b949350505050565b60008115159050919050565b61127e81611269565b811461128957600080fd5b50565b60008151905061129b81611275565b92915050565b6000602082840312156112b7576112b6610f76565b5b60006112c58482850161128c565b91505092915050565b7f4e6f7468696e6720746f2077697468647261772e000000000000000000000000600082015250565b600061130460148361109b565b915061130f826112ce565b602082019050919050565b60006020820190508181036000830152611333816112f7565b9050919050565b7f4f776e61626c653a206e6577206f776e657220697320746865207a65726f206160008201527f6464726573730000000000000000000000000000000000000000000000000000602082015250565b600061139660268361109b565b91506113a18261133a565b604082019050919050565b600060208201905081810360008301526113c581611389565b9050919050565b7f4e487b7100000000000000000000000000000000000000000000000000000000600052601160045260246000fd5b600061140682610f19565b915061141183610f19565b9250827fffffffffffffffffffffffffffffffffffffffffffffffffffffffffffffffff03821115611446576114456113cc565b5b828201905092915050565b600061145c82610f19565b915061146783610f19565b9250817fffffffffffffffffffffffffffffffffffffffffffffffffffffffffffffffff04831182151516156114a05761149f6113cc565b5b828202905092915050565b7f4e487b7100000000000000000000000000000000000000000000000000000000600052601260045260246000fd5b60006114e582610f19565b91506114f083610f19565b925082611500576114ff6114ab565b5b828204905092915050565b600061151682610f19565b915061152183610f19565b925082821015611534576115336113cc565b5b828203905092915050565b60006040820190506115546000830185610f23565b6115616020830184610f23565b939250505056fea264697066735822122061d6a2e3ef2a9435888f63f9bed9b317f34199c42bfba7a30b67c734b0c4689864736f6c634300080a0033",
  "linkReferences": {},
  "deployedLinkReferences": {}
}