{
  "_format": "hh-sol-artifact-1",
  "contractName": "GridFirePayment",
  "sourceName": "contracts/GridFirePayment.sol",
  "abi": [
    {
      "anonymous": false,
      "inputs": [
        {
          "indexed": true,
          "internalType": "address",
          "name": "artist",
          "type": "address"
        },
        {
          "indexed": false,
          "internalType": "uint256",
          "name": "amount",
          "type": "uint256"
        }
      ],
      "name": "Claim",
      "type": "event"
    },
    {
      "anonymous": false,
      "inputs": [
        {
          "indexed": true,
          "internalType": "address",
          "name": "previousOwner",
          "type": "address"
        },
        {
          "indexed": true,
          "internalType": "address",
          "name": "newOwner",
          "type": "address"
        }
      ],
      "name": "OwnershipTransferred",
      "type": "event"
    },
    {
      "anonymous": false,
      "inputs": [
        {
          "indexed": true,
          "internalType": "address",
          "name": "buyer",
          "type": "address"
        },
        {
          "indexed": true,
          "internalType": "address",
          "name": "artist",
          "type": "address"
        },
        {
          "indexed": false,
          "internalType": "uint256",
          "name": "amount",
          "type": "uint256"
        },
        {
          "indexed": false,
          "internalType": "uint256",
          "name": "fee",
          "type": "uint256"
        }
      ],
      "name": "Purchase",
      "type": "event"
    },
    {
      "anonymous": false,
      "inputs": [
        {
          "indexed": false,
          "internalType": "address",
          "name": "from",
          "type": "address"
        },
        {
          "indexed": false,
          "internalType": "uint256",
          "name": "amount",
          "type": "uint256"
        }
      ],
      "name": "Received",
      "type": "event"
    },
    {
      "inputs": [],
      "name": "claim",
      "outputs": [],
      "stateMutability": "nonpayable",
      "type": "function"
    },
    {
      "inputs": [
        {
          "internalType": "address",
          "name": "_address",
          "type": "address"
        }
      ],
      "name": "getBalance",
      "outputs": [
        {
          "internalType": "uint256",
          "name": "",
          "type": "uint256"
        }
      ],
      "stateMutability": "view",
      "type": "function"
    },
    {
      "inputs": [],
      "name": "getServiceFee",
      "outputs": [
        {
          "internalType": "uint256",
          "name": "",
          "type": "uint256"
        }
      ],
      "stateMutability": "view",
      "type": "function"
    },
    {
      "inputs": [],
      "name": "owner",
      "outputs": [
        {
          "internalType": "address",
          "name": "",
          "type": "address"
        }
      ],
      "stateMutability": "view",
      "type": "function"
    },
    {
      "inputs": [
        {
          "internalType": "address",
          "name": "_artist",
          "type": "address"
        },
        {
          "internalType": "uint256",
          "name": "_paid",
          "type": "uint256"
        },
        {
          "internalType": "uint256",
          "name": "_releasePrice",
          "type": "uint256"
        }
      ],
      "name": "purchase",
      "outputs": [],
      "stateMutability": "nonpayable",
      "type": "function"
    },
    {
      "inputs": [],
      "name": "renounceOwnership",
      "outputs": [],
      "stateMutability": "nonpayable",
      "type": "function"
    },
    {
      "inputs": [
        {
          "internalType": "uint256",
          "name": "_newFee",
          "type": "uint256"
        }
      ],
      "name": "setServiceFee",
      "outputs": [],
      "stateMutability": "nonpayable",
      "type": "function"
    },
    {
      "inputs": [
        {
          "internalType": "address",
          "name": "newOwner",
          "type": "address"
        }
      ],
      "name": "transferOwnership",
      "outputs": [],
      "stateMutability": "nonpayable",
      "type": "function"
    },
    {
      "inputs": [],
      "name": "withdraw",
      "outputs": [],
      "stateMutability": "nonpayable",
      "type": "function"
    },
    {
      "stateMutability": "payable",
      "type": "receive"
    }
  ],
  "bytecode": "0x60806040526005600155736b175474e89094c44da98b954eedeac495271d0f600360006101000a81548173ffffffffffffffffffffffffffffffffffffffff021916908373ffffffffffffffffffffffffffffffffffffffff16021790555034801561006a57600080fd5b5061008761007c61008c60201b60201c565b61009460201b60201c565b610158565b600033905090565b60008060009054906101000a900473ffffffffffffffffffffffffffffffffffffffff169050816000806101000a81548173ffffffffffffffffffffffffffffffffffffffff021916908373ffffffffffffffffffffffffffffffffffffffff1602179055508173ffffffffffffffffffffffffffffffffffffffff168173ffffffffffffffffffffffffffffffffffffffff167f8be0079c531659141344cd1fd0a4f28419497f9722a3daafe3b4186f6b6457e060405160405180910390a35050565b611041806101676000396000f3fe60806040526004361061008a5760003560e01c8063715018a611610059578063715018a6146101515780638da5cb5b1461016857806398968f1514610193578063f2fde38b146101bc578063f8b2cb4f146101e5576100ca565b806311a1933c146100cf5780633ccfd60b146100fa5780634e71d92d146101115780635cdf76f814610128576100ca565b366100ca577f88a5966d370b9919b20f3e2c13ff65706f196a4e32cc2c12bf57088f8852587433346040516100c0929190610aef565b60405180910390a1005b600080fd5b3480156100db57600080fd5b506100e4610222565b6040516100f19190610b18565b60405180910390f35b34801561010657600080fd5b5061010f61022c565b005b34801561011d57600080fd5b506101266102f1565b005b34801561013457600080fd5b5061014f600480360381019061014a9190610b64565b6104b2565b005b34801561015d57600080fd5b50610166610545565b005b34801561017457600080fd5b5061017d6105cd565b60405161018a9190610b91565b60405180910390f35b34801561019f57600080fd5b506101ba60048036038101906101b59190610bd8565b6105f6565b005b3480156101c857600080fd5b506101e360048036038101906101de9190610c2b565b610620565b005b3480156101f157600080fd5b5061020c60048036038101906102079190610c2b565b610718565b6040516102199190610b18565b60405180910390f35b6000600154905090565b610234610761565b73ffffffffffffffffffffffffffffffffffffffff166102526105cd565b73ffffffffffffffffffffffffffffffffffffffff16146102a8576040517f08c379a000000000000000000000000000000000000000000000000000000000815260040161029f90610cb5565b60405180910390fd5b3373ffffffffffffffffffffffffffffffffffffffff166108fc479081150290604051600060405180830381858888f193505050501580156102ee573d6000803e3d6000fd5b50565b6000600260003373ffffffffffffffffffffffffffffffffffffffff1673ffffffffffffffffffffffffffffffffffffffff1681526020019081526020016000205490506000811415610379576040517f08c379a000000000000000000000000000000000000000000000000000000000815260040161037090610d21565b60405180910390fd5b6000600260003373ffffffffffffffffffffffffffffffffffffffff1673ffffffffffffffffffffffffffffffffffffffff16815260200190815260200160002081905550600360009054906101000a900473ffffffffffffffffffffffffffffffffffffffff1673ffffffffffffffffffffffffffffffffffffffff166323b872dd3033846040518463ffffffff1660e01b815260040161041d93929190610d41565b6020604051808303816000875af115801561043c573d6000803e3d6000fd5b505050506040513d601f19601f820116820180604052508101906104609190610db0565b503373ffffffffffffffffffffffffffffffffffffffff167f47cee97cb7acd717b3c0aa1435d004cd5b3c8c57d70dbceb4e4458bbd60e39d4826040516104a79190610b18565b60405180910390a250565b6104ba610761565b73ffffffffffffffffffffffffffffffffffffffff166104d86105cd565b73ffffffffffffffffffffffffffffffffffffffff161461052e576040517f08c379a000000000000000000000000000000000000000000000000000000000815260040161052590610cb5565b60405180910390fd5b6064811061053b57600080fd5b8060018190555050565b61054d610761565b73ffffffffffffffffffffffffffffffffffffffff1661056b6105cd565b73ffffffffffffffffffffffffffffffffffffffff16146105c1576040517f08c379a00000000000000000000000000000000000000000000000000000000081526004016105b890610cb5565b60405180910390fd5b6105cb6000610769565b565b60008060009054906101000a900473ffffffffffffffffffffffffffffffffffffffff16905090565b600082141561060457600080fd5b8082101561061157600080fd5b61061b838361082d565b505050565b610628610761565b73ffffffffffffffffffffffffffffffffffffffff166106466105cd565b73ffffffffffffffffffffffffffffffffffffffff161461069c576040517f08c379a000000000000000000000000000000000000000000000000000000000815260040161069390610cb5565b60405180910390fd5b600073ffffffffffffffffffffffffffffffffffffffff168173ffffffffffffffffffffffffffffffffffffffff16141561070c576040517f08c379a000000000000000000000000000000000000000000000000000000000815260040161070390610e4f565b60405180910390fd5b61071581610769565b50565b6000600260008373ffffffffffffffffffffffffffffffffffffffff1673ffffffffffffffffffffffffffffffffffffffff168152602001908152602001600020549050919050565b600033905090565b60008060009054906101000a900473ffffffffffffffffffffffffffffffffffffffff169050816000806101000a81548173ffffffffffffffffffffffffffffffffffffffff021916908373ffffffffffffffffffffffffffffffffffffffff1602179055508173ffffffffffffffffffffffffffffffffffffffff168173ffffffffffffffffffffffffffffffffffffffff167f8be0079c531659141344cd1fd0a4f28419497f9722a3daafe3b4186f6b6457e060405160405180910390a35050565b600081905060008082141561084157600080fd5b600060015414156108a75781600260008673ffffffffffffffffffffffffffffffffffffffff1673ffffffffffffffffffffffffffffffffffffffff168152602001908152602001600020600082825461089b9190610e9e565b92505081905550610985565b6064600154836108b79190610ef4565b6108c19190610f7d565b905080600260006108d06105cd565b73ffffffffffffffffffffffffffffffffffffffff1673ffffffffffffffffffffffffffffffffffffffff16815260200190815260200160002060008282546109199190610e9e565b92505081905550808261092c9190610fae565b915081600260008673ffffffffffffffffffffffffffffffffffffffff1673ffffffffffffffffffffffffffffffffffffffff168152602001908152602001600020600082825461097d9190610e9e565b925050819055505b600360009054906101000a900473ffffffffffffffffffffffffffffffffffffffff1673ffffffffffffffffffffffffffffffffffffffff166323b872dd3330866040518463ffffffff1660e01b81526004016109e493929190610d41565b6020604051808303816000875af1158015610a03573d6000803e3d6000fd5b505050506040513d601f19601f82011682018060405250810190610a279190610db0565b508373ffffffffffffffffffffffffffffffffffffffff163373ffffffffffffffffffffffffffffffffffffffff167f46661dab58311a6838247afecbee792192b4f27fc8b3e7168c66bc55ec2e404e8484604051610a87929190610fe2565b60405180910390a350505050565b600073ffffffffffffffffffffffffffffffffffffffff82169050919050565b6000610ac082610a95565b9050919050565b610ad081610ab5565b82525050565b6000819050919050565b610ae981610ad6565b82525050565b6000604082019050610b046000830185610ac7565b610b116020830184610ae0565b9392505050565b6000602082019050610b2d6000830184610ae0565b92915050565b600080fd5b610b4181610ad6565b8114610b4c57600080fd5b50565b600081359050610b5e81610b38565b92915050565b600060208284031215610b7a57610b79610b33565b5b6000610b8884828501610b4f565b91505092915050565b6000602082019050610ba66000830184610ac7565b92915050565b610bb581610ab5565b8114610bc057600080fd5b50565b600081359050610bd281610bac565b92915050565b600080600060608486031215610bf157610bf0610b33565b5b6000610bff86828701610bc3565b9350506020610c1086828701610b4f565b9250506040610c2186828701610b4f565b9150509250925092565b600060208284031215610c4157610c40610b33565b5b6000610c4f84828501610bc3565b91505092915050565b600082825260208201905092915050565b7f4f776e61626c653a2063616c6c6572206973206e6f7420746865206f776e6572600082015250565b6000610c9f602083610c58565b9150610caa82610c69565b602082019050919050565b60006020820190508181036000830152610cce81610c92565b9050919050565b7f4e6f7468696e6720746f20636c61696d2e000000000000000000000000000000600082015250565b6000610d0b601183610c58565b9150610d1682610cd5565b602082019050919050565b60006020820190508181036000830152610d3a81610cfe565b9050919050565b6000606082019050610d566000830186610ac7565b610d636020830185610ac7565b610d706040830184610ae0565b949350505050565b60008115159050919050565b610d8d81610d78565b8114610d9857600080fd5b50565b600081519050610daa81610d84565b92915050565b600060208284031215610dc657610dc5610b33565b5b6000610dd484828501610d9b565b91505092915050565b7f4f776e61626c653a206e6577206f776e657220697320746865207a65726f206160008201527f6464726573730000000000000000000000000000000000000000000000000000602082015250565b6000610e39602683610c58565b9150610e4482610ddd565b604082019050919050565b60006020820190508181036000830152610e6881610e2c565b9050919050565b7f4e487b7100000000000000000000000000000000000000000000000000000000600052601160045260246000fd5b6000610ea982610ad6565b9150610eb483610ad6565b9250827fffffffffffffffffffffffffffffffffffffffffffffffffffffffffffffffff03821115610ee957610ee8610e6f565b5b828201905092915050565b6000610eff82610ad6565b9150610f0a83610ad6565b9250817fffffffffffffffffffffffffffffffffffffffffffffffffffffffffffffffff0483118215151615610f4357610f42610e6f565b5b828202905092915050565b7f4e487b7100000000000000000000000000000000000000000000000000000000600052601260045260246000fd5b6000610f8882610ad6565b9150610f9383610ad6565b925082610fa357610fa2610f4e565b5b828204905092915050565b6000610fb982610ad6565b9150610fc483610ad6565b925082821015610fd757610fd6610e6f565b5b828203905092915050565b6000604082019050610ff76000830185610ae0565b6110046020830184610ae0565b939250505056fea264697066735822122060b1c4e5e80640d02d8afa85b37b9eb8abb388acf72144871a4867b3f9a610b564736f6c634300080a0033",
  "linkReferences": {},
  "deployedLinkReferences": {}
}