{
  "contractName": "GridFirePayment",
  "abi": [
    {
      "anonymous": false,
      "inputs": [
        {
          "indexed": true,
          "internalType": "address",
          "name": "previousOwner",
          "type": "address"
        },
        {
          "indexed": true,
          "internalType": "address",
          "name": "newOwner",
          "type": "address"
        }
      ],
      "name": "OwnershipTransferred",
      "type": "event"
    },
    {
      "anonymous": false,
      "inputs": [
        {
          "indexed": false,
          "internalType": "address",
          "name": "buyer",
          "type": "address"
        },
        {
          "indexed": false,
          "internalType": "uint256",
          "name": "artistShare",
          "type": "uint256"
        }
      ],
      "name": "PaymentReceived",
      "type": "event"
    },
    {
      "inputs": [],
      "name": "owner",
      "outputs": [
        {
          "internalType": "address",
          "name": "",
          "type": "address"
        }
      ],
      "stateMutability": "view",
      "type": "function",
      "constant": true
    },
    {
      "inputs": [],
      "name": "renounceOwnership",
      "outputs": [],
      "stateMutability": "nonpayable",
      "type": "function"
    },
    {
      "inputs": [
        {
          "internalType": "address",
          "name": "newOwner",
          "type": "address"
        }
      ],
      "name": "transferOwnership",
      "outputs": [],
      "stateMutability": "nonpayable",
      "type": "function"
    },
    {
      "inputs": [
        {
          "internalType": "address",
          "name": "_artist",
          "type": "address"
        },
        {
          "internalType": "uint256",
          "name": "_releasePrice",
          "type": "uint256"
        }
      ],
      "name": "purchase",
      "outputs": [],
      "stateMutability": "payable",
      "type": "function",
      "payable": true
    },
    {
      "inputs": [
        {
          "internalType": "address",
          "name": "_artist",
          "type": "address"
        }
      ],
      "name": "getBalance",
      "outputs": [
        {
          "internalType": "uint256",
          "name": "",
          "type": "uint256"
        }
      ],
      "stateMutability": "view",
      "type": "function",
      "constant": true
    },
    {
      "inputs": [],
      "name": "claim",
      "outputs": [],
      "stateMutability": "nonpayable",
      "type": "function"
    },
    {
      "inputs": [],
      "name": "getServiceFee",
      "outputs": [
        {
          "internalType": "uint256",
          "name": "",
          "type": "uint256"
        }
      ],
      "stateMutability": "view",
      "type": "function",
      "constant": true
    },
    {
      "inputs": [
        {
          "internalType": "uint256",
          "name": "newFee",
          "type": "uint256"
        }
      ],
      "name": "setServiceFee",
      "outputs": [],
      "stateMutability": "nonpayable",
      "type": "function"
    },
    {
      "inputs": [],
      "name": "getOwnerBalance",
      "outputs": [
        {
          "internalType": "uint256",
          "name": "",
          "type": "uint256"
        }
      ],
      "stateMutability": "view",
      "type": "function",
      "constant": true
    },
    {
      "inputs": [],
      "name": "withdrawOwnerBalance",
      "outputs": [],
      "stateMutability": "nonpayable",
      "type": "function"
    }
  ],
  "bytecode": "0x60806040526005600155600060025534801561001a57600080fd5b5061003761002c61003c60201b60201c565b61004460201b60201c565b610108565b600033905090565b60008060009054906101000a900473ffffffffffffffffffffffffffffffffffffffff169050816000806101000a81548173ffffffffffffffffffffffffffffffffffffffff021916908373ffffffffffffffffffffffffffffffffffffffff1602179055508173ffffffffffffffffffffffffffffffffffffffff168173ffffffffffffffffffffffffffffffffffffffff167f8be0079c531659141344cd1fd0a4f28419497f9722a3daafe3b4186f6b6457e060405160405180910390a35050565b610dc4806101176000396000f3fe6080604052600436106100915760003560e01c80638da5cb5b116100595780638da5cb5b146101435780638de932221461016e578063941b80ac1461018a578063f2fde38b146101a1578063f8b2cb4f146101ca57610091565b806311a1933c146100965780634e71d92d146100c1578063590791f2146100d85780635cdf76f814610103578063715018a61461012c575b600080fd5b3480156100a257600080fd5b506100ab610207565b6040516100b89190610909565b60405180910390f35b3480156100cd57600080fd5b506100d6610211565b005b3480156100e457600080fd5b506100ed610335565b6040516100fa9190610909565b60405180910390f35b34801561010f57600080fd5b5061012a60048036038101906101259190610955565b61033f565b005b34801561013857600080fd5b506101416103d2565b005b34801561014f57600080fd5b5061015861045a565b60405161016591906109c3565b60405180910390f35b61018860048036038101906101839190610a0a565b610483565b005b34801561019657600080fd5b5061019f6104ab565b005b3480156101ad57600080fd5b506101c860048036038101906101c39190610a4a565b610590565b005b3480156101d657600080fd5b506101f160048036038101906101ec9190610a4a565b610688565b6040516101fe9190610909565b60405180910390f35b6000600154905090565b6000600360003373ffffffffffffffffffffffffffffffffffffffff1673ffffffffffffffffffffffffffffffffffffffff1681526020019081526020016000205490506000811415610299576040517f08c379a000000000000000000000000000000000000000000000000000000000815260040161029090610ad4565b60405180910390fd5b804710156102a657600080fd5b6000600360003373ffffffffffffffffffffffffffffffffffffffff1673ffffffffffffffffffffffffffffffffffffffff168152602001908152602001600020819055503373ffffffffffffffffffffffffffffffffffffffff166108fc829081150290604051600060405180830381858888f19350505050158015610331573d6000803e3d6000fd5b5050565b6000600254905090565b6103476106d1565b73ffffffffffffffffffffffffffffffffffffffff1661036561045a565b73ffffffffffffffffffffffffffffffffffffffff16146103bb576040517f08c379a00000000000000000000000000000000000000000000000000000000081526004016103b290610b40565b60405180910390fd5b606481106103c857600080fd5b8060018190555050565b6103da6106d1565b73ffffffffffffffffffffffffffffffffffffffff166103f861045a565b73ffffffffffffffffffffffffffffffffffffffff161461044e576040517f08c379a000000000000000000000000000000000000000000000000000000000815260040161044590610b40565b60405180910390fd5b61045860006106d9565b565b60008060009054906101000a900473ffffffffffffffffffffffffffffffffffffffff16905090565b600034141561049157600080fd5b8034101561049e57600080fd5b6104a78261079d565b5050565b6104b36106d1565b73ffffffffffffffffffffffffffffffffffffffff166104d161045a565b73ffffffffffffffffffffffffffffffffffffffff1614610527576040517f08c379a000000000000000000000000000000000000000000000000000000000815260040161051e90610b40565b60405180910390fd5b6000600254141561053757600080fd5b6000600254905060006002819055503373ffffffffffffffffffffffffffffffffffffffff166108fc829081150290604051600060405180830381858888f1935050505015801561058c573d6000803e3d6000fd5b5050565b6105986106d1565b73ffffffffffffffffffffffffffffffffffffffff166105b661045a565b73ffffffffffffffffffffffffffffffffffffffff161461060c576040517f08c379a000000000000000000000000000000000000000000000000000000000815260040161060390610b40565b60405180910390fd5b600073ffffffffffffffffffffffffffffffffffffffff168173ffffffffffffffffffffffffffffffffffffffff16141561067c576040517f08c379a000000000000000000000000000000000000000000000000000000000815260040161067390610bd2565b60405180910390fd5b610685816106d9565b50565b6000600360008373ffffffffffffffffffffffffffffffffffffffff1673ffffffffffffffffffffffffffffffffffffffff168152602001908152602001600020549050919050565b600033905090565b60008060009054906101000a900473ffffffffffffffffffffffffffffffffffffffff169050816000806101000a81548173ffffffffffffffffffffffffffffffffffffffff021916908373ffffffffffffffffffffffffffffffffffffffff1602179055508173ffffffffffffffffffffffffffffffffffffffff168173ffffffffffffffffffffffffffffffffffffffff167f8be0079c531659141344cd1fd0a4f28419497f9722a3daafe3b4186f6b6457e060405160405180910390a35050565b600034905060008114156107b057600080fd5b600060015414156108165780600360008473ffffffffffffffffffffffffffffffffffffffff1673ffffffffffffffffffffffffffffffffffffffff168152602001908152602001600020600082825461080a9190610c21565b925050819055506108b3565b60006064600154836108289190610c77565b6108329190610d00565b905080600260008282546108469190610c21565b9250508190555080826108599190610d31565b915081600360008573ffffffffffffffffffffffffffffffffffffffff1673ffffffffffffffffffffffffffffffffffffffff16815260200190815260200160002060008282546108aa9190610c21565b92505081905550505b7f6ef95f06320e7a25a04a175ca677b7052bdd97131872c2192525a629f51be77033826040516108e4929190610d65565b60405180910390a15050565b6000819050919050565b610903816108f0565b82525050565b600060208201905061091e60008301846108fa565b92915050565b600080fd5b610932816108f0565b811461093d57600080fd5b50565b60008135905061094f81610929565b92915050565b60006020828403121561096b5761096a610924565b5b600061097984828501610940565b91505092915050565b600073ffffffffffffffffffffffffffffffffffffffff82169050919050565b60006109ad82610982565b9050919050565b6109bd816109a2565b82525050565b60006020820190506109d860008301846109b4565b92915050565b6109e7816109a2565b81146109f257600080fd5b50565b600081359050610a04816109de565b92915050565b60008060408385031215610a2157610a20610924565b5b6000610a2f858286016109f5565b9250506020610a4085828601610940565b9150509250929050565b600060208284031215610a6057610a5f610924565b5b6000610a6e848285016109f5565b91505092915050565b600082825260208201905092915050565b7f4e6f7468696e6720746f20636c61696d2e000000000000000000000000000000600082015250565b6000610abe601183610a77565b9150610ac982610a88565b602082019050919050565b60006020820190508181036000830152610aed81610ab1565b9050919050565b7f4f776e61626c653a2063616c6c6572206973206e6f7420746865206f776e6572600082015250565b6000610b2a602083610a77565b9150610b3582610af4565b602082019050919050565b60006020820190508181036000830152610b5981610b1d565b9050919050565b7f4f776e61626c653a206e6577206f776e657220697320746865207a65726f206160008201527f6464726573730000000000000000000000000000000000000000000000000000602082015250565b6000610bbc602683610a77565b9150610bc782610b60565b604082019050919050565b60006020820190508181036000830152610beb81610baf565b9050919050565b7f4e487b7100000000000000000000000000000000000000000000000000000000600052601160045260246000fd5b6000610c2c826108f0565b9150610c37836108f0565b9250827fffffffffffffffffffffffffffffffffffffffffffffffffffffffffffffffff03821115610c6c57610c6b610bf2565b5b828201905092915050565b6000610c82826108f0565b9150610c8d836108f0565b9250817fffffffffffffffffffffffffffffffffffffffffffffffffffffffffffffffff0483118215151615610cc657610cc5610bf2565b5b828202905092915050565b7f4e487b7100000000000000000000000000000000000000000000000000000000600052601260045260246000fd5b6000610d0b826108f0565b9150610d16836108f0565b925082610d2657610d25610cd1565b5b828204905092915050565b6000610d3c826108f0565b9150610d47836108f0565b925082821015610d5a57610d59610bf2565b5b828203905092915050565b6000604082019050610d7a60008301856109b4565b610d8760208301846108fa565b939250505056fea26469706673582212204750135d90f351e4d9672d1c3275fd0c1e81983f11fc406f444803c7cd4808c564736f6c634300080a0033",
  "immutableReferences": {},
  "source": "// SPDX-License-Identifier: UNLICENSED\npragma solidity ^0.8.10;\n\nimport \"@openzeppelin/contracts/access/Ownable.sol\";\n\ncontract GridFirePayment is Ownable {\n    uint256 private feePercent = 5;\n    uint256 private ownerBalance = 0;\n    mapping(address => uint256) balances;\n\n    event PaymentReceived(address buyer, uint256 artistShare);\n\n    function creditArtist(address _artist) private {\n        uint256 artistShare = msg.value;\n        require(artistShare != 0);\n\n        if (feePercent == 0) {\n            balances[_artist] += artistShare;\n        } else {\n            uint256 serviceFee = (artistShare * feePercent) / 100;\n            ownerBalance += serviceFee;\n            artistShare -= serviceFee;\n            balances[_artist] += artistShare;\n        }\n\n        emit PaymentReceived({buyer: msg.sender, artistShare: artistShare});\n    }\n\n    function purchase(address _artist, uint256 _releasePrice) public payable {\n        require(msg.value != 0);\n        require(msg.value >= _releasePrice);\n        creditArtist(_artist);\n    }\n\n    function getBalance(address _artist) public view returns (uint256) {\n        return balances[_artist];\n    }\n\n    function claim() public {\n        uint256 amount = balances[msg.sender];\n        require(amount != 0, \"Nothing to claim.\");\n        require(address(this).balance >= amount);\n        balances[msg.sender] = 0;\n        payable(msg.sender).transfer(amount);\n    }\n\n    function getServiceFee() public view returns (uint256) {\n        return feePercent;\n    }\n\n    function setServiceFee(uint256 newFee) public onlyOwner {\n        require(newFee < 100);\n        feePercent = newFee;\n    }\n\n    function getOwnerBalance() public view returns (uint256) {\n        return ownerBalance;\n    }\n\n    function withdrawOwnerBalance() public onlyOwner {\n        require(ownerBalance != 0);\n        uint256 amount = ownerBalance;\n        ownerBalance = 0;\n        payable(msg.sender).transfer(amount);\n    }\n}\n",
  "sourcePath": "/home/chris/eth-dev/payment-split/contracts/GridFirePayment.sol",
  "compiler": {
    "name": "solc",
    "version": "0.8.10+commit.fc410830.Emscripten.clang"
  },
  "schemaVersion": "3.4.4",
  "updatedAt": "2022-01-02T10:39:57.964Z",
  "networkType": "ethereum",
  "devdoc": {
    "kind": "dev",
    "methods": {
      "owner()": {
        "details": "Returns the address of the current owner."
      },
      "renounceOwnership()": {
        "details": "Leaves the contract without owner. It will not be possible to call `onlyOwner` functions anymore. Can only be called by the current owner. NOTE: Renouncing ownership will leave the contract without an owner, thereby removing any functionality that is only available to the owner."
      },
      "transferOwnership(address)": {
        "details": "Transfers ownership of the contract to a new account (`newOwner`). Can only be called by the current owner."
      }
    },
    "version": 1
  },
  "userdoc": {
    "kind": "user",
    "methods": {},
    "version": 1
  }
}