{
  "contractName": "GridFirePayment",
  "abi": [
    {
      "anonymous": false,
      "inputs": [
        {
          "indexed": false,
          "internalType": "address",
          "name": "buyer",
          "type": "address"
        },
        {
          "indexed": false,
          "internalType": "uint256",
          "name": "artistShare",
          "type": "uint256"
        }
      ],
      "name": "NewPurchase",
      "type": "event"
    },
    {
      "anonymous": false,
      "inputs": [
        {
          "indexed": true,
          "internalType": "address",
          "name": "previousOwner",
          "type": "address"
        },
        {
          "indexed": true,
          "internalType": "address",
          "name": "newOwner",
          "type": "address"
        }
      ],
      "name": "OwnershipTransferred",
      "type": "event"
    },
    {
      "inputs": [],
      "name": "owner",
      "outputs": [
        {
          "internalType": "address",
          "name": "",
          "type": "address"
        }
      ],
      "stateMutability": "view",
      "type": "function",
      "constant": true
    },
    {
      "inputs": [],
      "name": "renounceOwnership",
      "outputs": [],
      "stateMutability": "nonpayable",
      "type": "function"
    },
    {
      "inputs": [
        {
          "internalType": "address",
          "name": "newOwner",
          "type": "address"
        }
      ],
      "name": "transferOwnership",
      "outputs": [],
      "stateMutability": "nonpayable",
      "type": "function"
    },
    {
      "inputs": [
        {
          "internalType": "address",
          "name": "_artist",
          "type": "address"
        },
        {
          "internalType": "uint256",
          "name": "_releasePrice",
          "type": "uint256"
        }
      ],
      "name": "purchase",
      "outputs": [],
      "stateMutability": "payable",
      "type": "function",
      "payable": true
    },
    {
      "inputs": [
        {
          "internalType": "address",
          "name": "_artist",
          "type": "address"
        }
      ],
      "name": "getBalance",
      "outputs": [
        {
          "internalType": "uint256",
          "name": "",
          "type": "uint256"
        }
      ],
      "stateMutability": "view",
      "type": "function",
      "constant": true
    },
    {
      "inputs": [],
      "name": "claim",
      "outputs": [],
      "stateMutability": "nonpayable",
      "type": "function"
    },
    {
      "inputs": [
        {
          "internalType": "uint256",
          "name": "newFee",
          "type": "uint256"
        }
      ],
      "name": "setServiceFee",
      "outputs": [],
      "stateMutability": "nonpayable",
      "type": "function"
    },
    {
      "inputs": [],
      "name": "getOwnerBalance",
      "outputs": [
        {
          "internalType": "uint256",
          "name": "",
          "type": "uint256"
        }
      ],
      "stateMutability": "view",
      "type": "function",
      "constant": true
    },
    {
      "inputs": [],
      "name": "withdrawOwnerBalance",
      "outputs": [],
      "stateMutability": "nonpayable",
      "type": "function"
    }
  ],
  "bytecode": "0x60806040526005600155600060025534801561001a57600080fd5b5061003761002c61003c60201b60201c565b61004460201b60201c565b610108565b600033905090565b60008060009054906101000a900473ffffffffffffffffffffffffffffffffffffffff169050816000806101000a81548173ffffffffffffffffffffffffffffffffffffffff021916908373ffffffffffffffffffffffffffffffffffffffff1602179055508173ffffffffffffffffffffffffffffffffffffffff168173ffffffffffffffffffffffffffffffffffffffff167f8be0079c531659141344cd1fd0a4f28419497f9722a3daafe3b4186f6b6457e060405160405180910390a35050565b610d83806101176000396000f3fe6080604052600436106100865760003560e01c80638da5cb5b116100595780638da5cb5b1461010d5780638de9322214610138578063941b80ac14610154578063f2fde38b1461016b578063f8b2cb4f1461019457610086565b80634e71d92d1461008b578063590791f2146100a25780635cdf76f8146100cd578063715018a6146100f6575b600080fd5b34801561009757600080fd5b506100a06101d1565b005b3480156100ae57600080fd5b506100b76102f5565b6040516100c491906108c8565b60405180910390f35b3480156100d957600080fd5b506100f460048036038101906100ef9190610914565b6102ff565b005b34801561010257600080fd5b5061010b610392565b005b34801561011957600080fd5b5061012261041a565b60405161012f9190610982565b60405180910390f35b610152600480360381019061014d91906109c9565b610443565b005b34801561016057600080fd5b5061016961046a565b005b34801561017757600080fd5b50610192600480360381019061018d9190610a09565b61054f565b005b3480156101a057600080fd5b506101bb60048036038101906101b69190610a09565b610647565b6040516101c891906108c8565b60405180910390f35b6000600360003373ffffffffffffffffffffffffffffffffffffffff1673ffffffffffffffffffffffffffffffffffffffff1681526020019081526020016000205490506000811415610259576040517f08c379a000000000000000000000000000000000000000000000000000000000815260040161025090610a93565b60405180910390fd5b8047101561026657600080fd5b6000600360003373ffffffffffffffffffffffffffffffffffffffff1673ffffffffffffffffffffffffffffffffffffffff168152602001908152602001600020819055503373ffffffffffffffffffffffffffffffffffffffff166108fc829081150290604051600060405180830381858888f193505050501580156102f1573d6000803e3d6000fd5b5050565b6000600254905090565b610307610690565b73ffffffffffffffffffffffffffffffffffffffff1661032561041a565b73ffffffffffffffffffffffffffffffffffffffff161461037b576040517f08c379a000000000000000000000000000000000000000000000000000000000815260040161037290610aff565b60405180910390fd5b6064811061038857600080fd5b8060018190555050565b61039a610690565b73ffffffffffffffffffffffffffffffffffffffff166103b861041a565b73ffffffffffffffffffffffffffffffffffffffff161461040e576040517f08c379a000000000000000000000000000000000000000000000000000000000815260040161040590610aff565b60405180910390fd5b6104186000610698565b565b60008060009054906101000a900473ffffffffffffffffffffffffffffffffffffffff16905090565b600034141580156104545750803410155b61045d57600080fd5b6104668261075c565b5050565b610472610690565b73ffffffffffffffffffffffffffffffffffffffff1661049061041a565b73ffffffffffffffffffffffffffffffffffffffff16146104e6576040517f08c379a00000000000000000000000000000000000000000000000000000000081526004016104dd90610aff565b60405180910390fd5b600060025414156104f657600080fd5b6000600254905060006002819055503373ffffffffffffffffffffffffffffffffffffffff166108fc829081150290604051600060405180830381858888f1935050505015801561054b573d6000803e3d6000fd5b5050565b610557610690565b73ffffffffffffffffffffffffffffffffffffffff1661057561041a565b73ffffffffffffffffffffffffffffffffffffffff16146105cb576040517f08c379a00000000000000000000000000000000000000000000000000000000081526004016105c290610aff565b60405180910390fd5b600073ffffffffffffffffffffffffffffffffffffffff168173ffffffffffffffffffffffffffffffffffffffff16141561063b576040517f08c379a000000000000000000000000000000000000000000000000000000000815260040161063290610b91565b60405180910390fd5b61064481610698565b50565b6000600360008373ffffffffffffffffffffffffffffffffffffffff1673ffffffffffffffffffffffffffffffffffffffff168152602001908152602001600020549050919050565b600033905090565b60008060009054906101000a900473ffffffffffffffffffffffffffffffffffffffff169050816000806101000a81548173ffffffffffffffffffffffffffffffffffffffff021916908373ffffffffffffffffffffffffffffffffffffffff1602179055508173ffffffffffffffffffffffffffffffffffffffff168173ffffffffffffffffffffffffffffffffffffffff167f8be0079c531659141344cd1fd0a4f28419497f9722a3daafe3b4186f6b6457e060405160405180910390a35050565b6000349050600081141561076f57600080fd5b600060015414156107d55734600360008473ffffffffffffffffffffffffffffffffffffffff1673ffffffffffffffffffffffffffffffffffffffff16815260200190815260200160002060008282546107c99190610be0565b92505081905550610872565b60006064600154346107e79190610c36565b6107f19190610cbf565b905080346107ff9190610cf0565b915081600360008573ffffffffffffffffffffffffffffffffffffffff1673ffffffffffffffffffffffffffffffffffffffff16815260200190815260200160002060008282546108509190610be0565b9250508190555080600260008282546108699190610be0565b92505081905550505b7f453f432325042a06f4d628e37adb527edc2f20643c2655ccc268a47766bbf44533826040516108a3929190610d24565b60405180910390a15050565b6000819050919050565b6108c2816108af565b82525050565b60006020820190506108dd60008301846108b9565b92915050565b600080fd5b6108f1816108af565b81146108fc57600080fd5b50565b60008135905061090e816108e8565b92915050565b60006020828403121561092a576109296108e3565b5b6000610938848285016108ff565b91505092915050565b600073ffffffffffffffffffffffffffffffffffffffff82169050919050565b600061096c82610941565b9050919050565b61097c81610961565b82525050565b60006020820190506109976000830184610973565b92915050565b6109a681610961565b81146109b157600080fd5b50565b6000813590506109c38161099d565b92915050565b600080604083850312156109e0576109df6108e3565b5b60006109ee858286016109b4565b92505060206109ff858286016108ff565b9150509250929050565b600060208284031215610a1f57610a1e6108e3565b5b6000610a2d848285016109b4565b91505092915050565b600082825260208201905092915050565b7f4e6f7468696e6720746f20636c61696d2e000000000000000000000000000000600082015250565b6000610a7d601183610a36565b9150610a8882610a47565b602082019050919050565b60006020820190508181036000830152610aac81610a70565b9050919050565b7f4f776e61626c653a2063616c6c6572206973206e6f7420746865206f776e6572600082015250565b6000610ae9602083610a36565b9150610af482610ab3565b602082019050919050565b60006020820190508181036000830152610b1881610adc565b9050919050565b7f4f776e61626c653a206e6577206f776e657220697320746865207a65726f206160008201527f6464726573730000000000000000000000000000000000000000000000000000602082015250565b6000610b7b602683610a36565b9150610b8682610b1f565b604082019050919050565b60006020820190508181036000830152610baa81610b6e565b9050919050565b7f4e487b7100000000000000000000000000000000000000000000000000000000600052601160045260246000fd5b6000610beb826108af565b9150610bf6836108af565b9250827fffffffffffffffffffffffffffffffffffffffffffffffffffffffffffffffff03821115610c2b57610c2a610bb1565b5b828201905092915050565b6000610c41826108af565b9150610c4c836108af565b9250817fffffffffffffffffffffffffffffffffffffffffffffffffffffffffffffffff0483118215151615610c8557610c84610bb1565b5b828202905092915050565b7f4e487b7100000000000000000000000000000000000000000000000000000000600052601260045260246000fd5b6000610cca826108af565b9150610cd5836108af565b925082610ce557610ce4610c90565b5b828204905092915050565b6000610cfb826108af565b9150610d06836108af565b925082821015610d1957610d18610bb1565b5b828203905092915050565b6000604082019050610d396000830185610973565b610d4660208301846108b9565b939250505056fea26469706673582212201d663bef3f5e577791c0e6df34bec13b25070b056ff6bea020a129e036ff346b64736f6c634300080a0033",
  "immutableReferences": {},
  "source": "// SPDX-License-Identifier: UNLICENSED\npragma solidity ^0.8.10;\n\nimport \"@openzeppelin/contracts/access/Ownable.sol\";\n\ncontract GridFirePayment is Ownable {\n    uint256 private feePercent = 5;\n    uint256 private ownerBalance = 0;\n    mapping(address => uint256) balances;\n\n    event NewPurchase(address buyer, uint256 artistShare);\n\n    function creditArtist(address _artist) private {\n        uint256 artistShare = msg.value;\n        require(artistShare != 0);\n\n        if (feePercent == 0) {\n            balances[_artist] += msg.value;\n        } else {\n            uint256 serviceFee = (msg.value * feePercent) / 100;\n            artistShare = msg.value - serviceFee;\n            balances[_artist] += artistShare;\n            ownerBalance += serviceFee;\n        }\n\n        emit NewPurchase(msg.sender, artistShare);\n    }\n\n    function purchase(address _artist, uint256 _releasePrice) public payable {\n        require(msg.value != 0 && msg.value >= _releasePrice);\n        creditArtist(_artist);\n    }\n\n    function getBalance(address _artist) public view returns (uint256) {\n        return balances[_artist];\n    }\n\n    function claim() public {\n        uint256 amount = balances[msg.sender];\n        require(amount != 0, \"Nothing to claim.\");\n        require(address(this).balance >= amount);\n        balances[msg.sender] = 0;\n        payable(msg.sender).transfer(amount);\n    }\n\n    function setServiceFee(uint256 newFee) public onlyOwner {\n        require(newFee < 100);\n        feePercent = newFee;\n    }\n\n    function getOwnerBalance() public view returns (uint256) {\n        return ownerBalance;\n    }\n\n    function withdrawOwnerBalance() public onlyOwner {\n        require(ownerBalance != 0);\n        uint256 amount = ownerBalance;\n        ownerBalance = 0;\n        payable(msg.sender).transfer(amount);\n    }\n}\n",
  "sourcePath": "/home/chris/eth-dev/payment-split/contracts/GridFirePayment.sol",
  "compiler": {
    "name": "solc",
    "version": "0.8.10+commit.fc410830.Emscripten.clang"
  },
  "schemaVersion": "3.4.4",
  "updatedAt": "2021-12-29T14:15:02.229Z",
  "networkType": "ethereum",
  "devdoc": {
    "kind": "dev",
    "methods": {
      "owner()": {
        "details": "Returns the address of the current owner."
      },
      "renounceOwnership()": {
        "details": "Leaves the contract without owner. It will not be possible to call `onlyOwner` functions anymore. Can only be called by the current owner. NOTE: Renouncing ownership will leave the contract without an owner, thereby removing any functionality that is only available to the owner."
      },
      "transferOwnership(address)": {
        "details": "Transfers ownership of the contract to a new account (`newOwner`). Can only be called by the current owner."
      }
    },
    "version": 1
  },
  "userdoc": {
    "kind": "user",
    "methods": {},
    "version": 1
  }
}