{
  "_format": "hh-sol-artifact-1",
  "contractName": "GridFirePayment",
  "sourceName": "contracts/GridFirePayment.sol",
  "abi": [
    {
      "anonymous": false,
      "inputs": [
        {
          "indexed": true,
          "internalType": "address",
          "name": "buyer",
          "type": "address"
        },
        {
          "indexed": false,
          "internalType": "uint256",
          "name": "amount",
          "type": "uint256"
        }
      ],
      "name": "Checkout",
      "type": "event"
    },
    {
      "anonymous": false,
      "inputs": [
        {
          "indexed": true,
          "internalType": "address",
          "name": "artist",
          "type": "address"
        },
        {
          "indexed": false,
          "internalType": "uint256",
          "name": "amount",
          "type": "uint256"
        }
      ],
      "name": "Claim",
      "type": "event"
    },
    {
      "anonymous": false,
      "inputs": [
        {
          "indexed": true,
          "internalType": "address",
          "name": "previousOwner",
          "type": "address"
        },
        {
          "indexed": true,
          "internalType": "address",
          "name": "newOwner",
          "type": "address"
        }
      ],
      "name": "OwnershipTransferred",
      "type": "event"
    },
    {
      "anonymous": false,
      "inputs": [
        {
          "indexed": true,
          "internalType": "address",
          "name": "buyer",
          "type": "address"
        },
        {
          "indexed": true,
          "internalType": "address",
          "name": "artist",
          "type": "address"
        },
        {
          "indexed": false,
          "internalType": "string",
          "name": "releaseId",
          "type": "string"
        },
        {
          "indexed": false,
          "internalType": "string",
          "name": "userId",
          "type": "string"
        },
        {
          "indexed": false,
          "internalType": "uint256",
          "name": "amountPaid",
          "type": "uint256"
        },
        {
          "indexed": false,
          "internalType": "uint256",
          "name": "artistShare",
          "type": "uint256"
        },
        {
          "indexed": false,
          "internalType": "uint256",
          "name": "platformFee",
          "type": "uint256"
        }
      ],
      "name": "Purchase",
      "type": "event"
    },
    {
      "anonymous": false,
      "inputs": [
        {
          "indexed": false,
          "internalType": "address",
          "name": "from",
          "type": "address"
        },
        {
          "indexed": false,
          "internalType": "uint256",
          "name": "amount",
          "type": "uint256"
        }
      ],
      "name": "Received",
      "type": "event"
    },
    {
      "inputs": [
        {
          "components": [
            {
              "internalType": "address",
              "name": "artist",
              "type": "address"
            },
            {
              "internalType": "uint256",
              "name": "amountPaid",
              "type": "uint256"
            },
            {
              "internalType": "string",
              "name": "releaseId",
              "type": "string"
            },
            {
              "internalType": "uint256",
              "name": "releasePrice",
              "type": "uint256"
            }
          ],
          "internalType": "struct GridFirePayment.BasketItem[]",
          "name": "basket",
          "type": "tuple[]"
        },
        {
          "internalType": "string",
          "name": "userId",
          "type": "string"
        }
      ],
      "name": "checkout",
      "outputs": [],
      "stateMutability": "nonpayable",
      "type": "function"
    },
    {
      "inputs": [],
      "name": "claim",
      "outputs": [],
      "stateMutability": "nonpayable",
      "type": "function"
    },
    {
      "inputs": [
        {
          "internalType": "address",
          "name": "artist",
          "type": "address"
        }
      ],
      "name": "getBalance",
      "outputs": [
        {
          "internalType": "uint256",
          "name": "",
          "type": "uint256"
        }
      ],
      "stateMutability": "view",
      "type": "function"
    },
    {
      "inputs": [],
      "name": "getServiceFee",
      "outputs": [
        {
          "internalType": "uint256",
          "name": "",
          "type": "uint256"
        }
      ],
      "stateMutability": "view",
      "type": "function"
    },
    {
      "inputs": [],
      "name": "owner",
      "outputs": [
        {
          "internalType": "address",
          "name": "",
          "type": "address"
        }
      ],
      "stateMutability": "view",
      "type": "function"
    },
    {
      "inputs": [
        {
          "internalType": "address",
          "name": "artist",
          "type": "address"
        },
        {
          "internalType": "string",
          "name": "releaseId",
          "type": "string"
        },
        {
          "internalType": "string",
          "name": "userId",
          "type": "string"
        },
        {
          "internalType": "uint256",
          "name": "amountPaid",
          "type": "uint256"
        },
        {
          "internalType": "uint256",
          "name": "releasePrice",
          "type": "uint256"
        }
      ],
      "name": "purchase",
      "outputs": [],
      "stateMutability": "nonpayable",
      "type": "function"
    },
    {
      "inputs": [],
      "name": "renounceOwnership",
      "outputs": [],
      "stateMutability": "nonpayable",
      "type": "function"
    },
    {
      "inputs": [
        {
          "internalType": "uint256",
          "name": "newServiceFee",
          "type": "uint256"
        }
      ],
      "name": "setServiceFee",
      "outputs": [],
      "stateMutability": "nonpayable",
      "type": "function"
    },
    {
      "inputs": [
        {
          "internalType": "address",
          "name": "newOwner",
          "type": "address"
        }
      ],
      "name": "transferOwnership",
      "outputs": [],
      "stateMutability": "nonpayable",
      "type": "function"
    },
    {
      "inputs": [],
      "name": "withdraw",
      "outputs": [],
      "stateMutability": "nonpayable",
      "type": "function"
    },
    {
      "stateMutability": "payable",
      "type": "receive"
    }
  ],
  "bytecode": "0x6080604052603260015573da10009cbd5d07dd0cecc66161fc93d7c9000da1600360006101000a81548173ffffffffffffffffffffffffffffffffffffffff021916908373ffffffffffffffffffffffffffffffffffffffff16021790555034801561006a57600080fd5b5061008761007c61008c60201b60201c565b61009460201b60201c565b610158565b600033905090565b60008060009054906101000a900473ffffffffffffffffffffffffffffffffffffffff169050816000806101000a81548173ffffffffffffffffffffffffffffffffffffffff021916908373ffffffffffffffffffffffffffffffffffffffff1602179055508173ffffffffffffffffffffffffffffffffffffffff168173ffffffffffffffffffffffffffffffffffffffff167f8be0079c531659141344cd1fd0a4f28419497f9722a3daafe3b4186f6b6457e060405160405180910390a35050565b611b45806101676000396000f3fe6080604052600436106100955760003560e01c806373f41b951161005957806373f41b95146101735780638da5cb5b1461019c578063ad02526f146101c7578063f2fde38b146101f0578063f8b2cb4f14610219576100d5565b806311a1933c146100da5780633ccfd60b146101055780634e71d92d1461011c5780635cdf76f814610133578063715018a61461015c576100d5565b366100d5577f88a5966d370b9919b20f3e2c13ff65706f196a4e32cc2c12bf57088f8852587433346040516100cb929190610fbb565b60405180910390a1005b600080fd5b3480156100e657600080fd5b506100ef610256565b6040516100fc9190610fe4565b60405180910390f35b34801561011157600080fd5b5061011a610260565b005b34801561012857600080fd5b506101316102b1565b005b34801561013f57600080fd5b5061015a60048036038101906101559190611035565b61041c565b005b34801561016857600080fd5b5061017161043c565b005b34801561017f57600080fd5b5061019a600480360381019061019591906110f3565b610450565b005b3480156101a857600080fd5b506101b1610482565b6040516101be91906111af565b60405180910390f35b3480156101d357600080fd5b506101ee60048036038101906101e99190611220565b6104ab565b005b3480156101fc57600080fd5b50610217600480360381019061021291906112a1565b61076c565b005b34801561022557600080fd5b50610240600480360381019061023b91906112a1565b6107f0565b60405161024d9190610fe4565b60405180910390f35b6000600154905090565b610268610839565b3373ffffffffffffffffffffffffffffffffffffffff166108fc479081150290604051600060405180830381858888f193505050501580156102ae573d6000803e3d6000fd5b50565b6000600260003373ffffffffffffffffffffffffffffffffffffffff1673ffffffffffffffffffffffffffffffffffffffff1681526020019081526020016000205490506000811415610339576040517f08c379a00000000000000000000000000000000000000000000000000000000081526004016103309061132b565b60405180910390fd5b6000600260003373ffffffffffffffffffffffffffffffffffffffff1673ffffffffffffffffffffffffffffffffffffffff168152602001908152602001600020819055506103cb3382600360009054906101000a900473ffffffffffffffffffffffffffffffffffffffff1673ffffffffffffffffffffffffffffffffffffffff166108b79092919063ffffffff16565b3373ffffffffffffffffffffffffffffffffffffffff167f47cee97cb7acd717b3c0aa1435d004cd5b3c8c57d70dbceb4e4458bbd60e39d4826040516104119190610fe4565b60405180910390a250565b610424610839565b6103e8811061043257600080fd5b8060018190555050565b610444610839565b61044e600061093d565b565b600082141561045e57600080fd5b8082101561046b57600080fd5b610479878787878787610a01565b50505050505050565b60008060009054906101000a900473ffffffffffffffffffffffffffffffffffffffff16905090565b6000805b8585905081101561057a5760008686838181106104cf576104ce61134b565b5b90506020028101906104e19190611389565b60200135905060008787848181106104fc576104fb61134b565b5b905060200281019061050e9190611389565b60600135905080821015610557576040517f08c379a000000000000000000000000000000000000000000000000000000000815260040161054e906113fd565b60405180910390fd5b8184610563919061144c565b935050508080610572906114a2565b9150506104af565b506105ca333083600360009054906101000a900473ffffffffffffffffffffffffffffffffffffffff1673ffffffffffffffffffffffffffffffffffffffff16610adc909392919063ffffffff16565b60005b858590508110156107165760008686838181106105ed576105ec61134b565b5b90506020028101906105ff9190611389565b600001602081019061061191906112a1565b905060008787848181106106285761062761134b565b5b905060200281019061063a9190611389565b6020013590503660008989868181106106565761065561134b565b5b90506020028101906106689190611389565b806040019061067791906114eb565b915091506000806106888686610b65565b915091508573ffffffffffffffffffffffffffffffffffffffff163373ffffffffffffffffffffffffffffffffffffffff167f6409fc516d44db7943e14a95632f09a9cec5c91f1dc7a01f2fd5496125ef208586868e8e8b89896040516106f5979695949392919061159b565b60405180910390a3505050505050808061070e906114a2565b9150506105cd565b503373ffffffffffffffffffffffffffffffffffffffff167f10190e7f174afbe5482194d509017e9df854671cd62fb4ef901fbd0080c1e6b68260405161075d9190610fe4565b60405180910390a25050505050565b610774610839565b600073ffffffffffffffffffffffffffffffffffffffff168173ffffffffffffffffffffffffffffffffffffffff1614156107e4576040517f08c379a00000000000000000000000000000000000000000000000000000000081526004016107db90611672565b60405180910390fd5b6107ed8161093d565b50565b6000600260008373ffffffffffffffffffffffffffffffffffffffff1673ffffffffffffffffffffffffffffffffffffffff168152602001908152602001600020549050919050565b610841610cdc565b73ffffffffffffffffffffffffffffffffffffffff1661085f610482565b73ffffffffffffffffffffffffffffffffffffffff16146108b5576040517f08c379a00000000000000000000000000000000000000000000000000000000081526004016108ac906116de565b60405180910390fd5b565b6109388363a9059cbb60e01b84846040516024016108d6929190610fbb565b604051602081830303815290604052907bffffffffffffffffffffffffffffffffffffffffffffffffffffffff19166020820180517bffffffffffffffffffffffffffffffffffffffffffffffffffffffff8381831617835250505050610ce4565b505050565b60008060009054906101000a900473ffffffffffffffffffffffffffffffffffffffff169050816000806101000a81548173ffffffffffffffffffffffffffffffffffffffff021916908373ffffffffffffffffffffffffffffffffffffffff1602179055508173ffffffffffffffffffffffffffffffffffffffff168173ffffffffffffffffffffffffffffffffffffffff167f8be0079c531659141344cd1fd0a4f28419497f9722a3daafe3b4186f6b6457e060405160405180910390a35050565b610a50333083600360009054906101000a900473ffffffffffffffffffffffffffffffffffffffff1673ffffffffffffffffffffffffffffffffffffffff16610adc909392919063ffffffff16565b600080610a5d8884610b65565b915091508773ffffffffffffffffffffffffffffffffffffffff163373ffffffffffffffffffffffffffffffffffffffff167f6409fc516d44db7943e14a95632f09a9cec5c91f1dc7a01f2fd5496125ef208589898989898989604051610aca979695949392919061159b565b60405180910390a35050505050505050565b610b5f846323b872dd60e01b858585604051602401610afd939291906116fe565b604051602081830303815290604052907bffffffffffffffffffffffffffffffffffffffffffffffffffffffff19166020820180517bffffffffffffffffffffffffffffffffffffffffffffffffffffffff8381831617835250505050610ce4565b50505050565b6000806000831415610b7d5782600091509150610cd5565b60006001541415610bea5782600260008673ffffffffffffffffffffffffffffffffffffffff1673ffffffffffffffffffffffffffffffffffffffff1681526020019081526020016000206000828254610bd7919061144c565b9250508190555082600091509150610cd5565b60006001546103e885610bfd9190611764565b610c079190611795565b905060008185610c1791906117ef565b90508160026000610c26610482565b73ffffffffffffffffffffffffffffffffffffffff1673ffffffffffffffffffffffffffffffffffffffff1681526020019081526020016000206000828254610c6f919061144c565b9250508190555080600260008873ffffffffffffffffffffffffffffffffffffffff1673ffffffffffffffffffffffffffffffffffffffff1681526020019081526020016000206000828254610cc5919061144c565b9250508190555080829350935050505b9250929050565b600033905090565b6000610d46826040518060400160405280602081526020017f5361666545524332303a206c6f772d6c6576656c2063616c6c206661696c65648152508573ffffffffffffffffffffffffffffffffffffffff16610dab9092919063ffffffff16565b9050600081511115610da65780806020019051810190610d66919061185b565b610da5576040517f08c379a0000000000000000000000000000000000000000000000000000000008152600401610d9c906118fa565b60405180910390fd5b5b505050565b6060610dba8484600085610dc3565b90509392505050565b606082471015610e08576040517f08c379a0000000000000000000000000000000000000000000000000000000008152600401610dff9061198c565b60405180910390fd5b610e1185610ed7565b610e50576040517f08c379a0000000000000000000000000000000000000000000000000000000008152600401610e47906119f8565b60405180910390fd5b6000808673ffffffffffffffffffffffffffffffffffffffff168587604051610e799190611a92565b60006040518083038185875af1925050503d8060008114610eb6576040519150601f19603f3d011682016040523d82523d6000602084013e610ebb565b606091505b5091509150610ecb828286610efa565b92505050949350505050565b6000808273ffffffffffffffffffffffffffffffffffffffff163b119050919050565b60608315610f0a57829050610f5a565b600083511115610f1d5782518084602001fd5b816040517f08c379a0000000000000000000000000000000000000000000000000000000008152600401610f519190611aed565b60405180910390fd5b9392505050565b600073ffffffffffffffffffffffffffffffffffffffff82169050919050565b6000610f8c82610f61565b9050919050565b610f9c81610f81565b82525050565b6000819050919050565b610fb581610fa2565b82525050565b6000604082019050610fd06000830185610f93565b610fdd6020830184610fac565b9392505050565b6000602082019050610ff96000830184610fac565b92915050565b600080fd5b600080fd5b61101281610fa2565b811461101d57600080fd5b50565b60008135905061102f81611009565b92915050565b60006020828403121561104b5761104a610fff565b5b600061105984828501611020565b91505092915050565b61106b81610f81565b811461107657600080fd5b50565b60008135905061108881611062565b92915050565b600080fd5b600080fd5b600080fd5b60008083601f8401126110b3576110b261108e565b5b8235905067ffffffffffffffff8111156110d0576110cf611093565b5b6020830191508360018202830111156110ec576110eb611098565b5b9250929050565b600080600080600080600060a0888a03121561111257611111610fff565b5b60006111208a828b01611079565b975050602088013567ffffffffffffffff81111561114157611140611004565b5b61114d8a828b0161109d565b9650965050604088013567ffffffffffffffff8111156111705761116f611004565b5b61117c8a828b0161109d565b9450945050606061118f8a828b01611020565b92505060806111a08a828b01611020565b91505092959891949750929550565b60006020820190506111c46000830184610f93565b92915050565b60008083601f8401126111e0576111df61108e565b5b8235905067ffffffffffffffff8111156111fd576111fc611093565b5b60208301915083602082028301111561121957611218611098565b5b9250929050565b6000806000806040858703121561123a57611239610fff565b5b600085013567ffffffffffffffff81111561125857611257611004565b5b611264878288016111ca565b9450945050602085013567ffffffffffffffff81111561128757611286611004565b5b6112938782880161109d565b925092505092959194509250565b6000602082840312156112b7576112b6610fff565b5b60006112c584828501611079565b91505092915050565b600082825260208201905092915050565b7f4e6f7468696e6720746f20636c61696d2e000000000000000000000000000000600082015250565b60006113156011836112ce565b9150611320826112df565b602082019050919050565b6000602082019050818103600083015261134481611308565b9050919050565b7f4e487b7100000000000000000000000000000000000000000000000000000000600052603260045260246000fd5b600080fd5b600080fd5b600080fd5b6000823560016080038336030381126113a5576113a461137a565b5b80830191505092915050565b7f5061796d656e7420616d6f756e7420746f6f206c6f772e000000000000000000600082015250565b60006113e76017836112ce565b91506113f2826113b1565b602082019050919050565b60006020820190508181036000830152611416816113da565b9050919050565b7f4e487b7100000000000000000000000000000000000000000000000000000000600052601160045260246000fd5b600061145782610fa2565b915061146283610fa2565b9250827fffffffffffffffffffffffffffffffffffffffffffffffffffffffffffffffff038211156114975761149661141d565b5b828201905092915050565b60006114ad82610fa2565b91507fffffffffffffffffffffffffffffffffffffffffffffffffffffffffffffffff8214156114e0576114df61141d565b5b600182019050919050565b600080833560016020038436030381126115085761150761137a565b5b80840192508235915067ffffffffffffffff82111561152a5761152961137f565b5b60208301925060018202360383131561154657611545611384565b5b509250929050565b82818337600083830152505050565b6000601f19601f8301169050919050565b600061157a83856112ce565b935061158783858461154e565b6115908361155d565b840190509392505050565b600060a08201905081810360008301526115b681898b61156e565b905081810360208301526115cb81878961156e565b90506115da6040830186610fac565b6115e76060830185610fac565b6115f46080830184610fac565b98975050505050505050565b7f4f776e61626c653a206e6577206f776e657220697320746865207a65726f206160008201527f6464726573730000000000000000000000000000000000000000000000000000602082015250565b600061165c6026836112ce565b915061166782611600565b604082019050919050565b6000602082019050818103600083015261168b8161164f565b9050919050565b7f4f776e61626c653a2063616c6c6572206973206e6f7420746865206f776e6572600082015250565b60006116c86020836112ce565b91506116d382611692565b602082019050919050565b600060208201905081810360008301526116f7816116bb565b9050919050565b60006060820190506117136000830186610f93565b6117206020830185610f93565b61172d6040830184610fac565b949350505050565b7f4e487b7100000000000000000000000000000000000000000000000000000000600052601260045260246000fd5b600061176f82610fa2565b915061177a83610fa2565b92508261178a57611789611735565b5b828204905092915050565b60006117a082610fa2565b91506117ab83610fa2565b9250817fffffffffffffffffffffffffffffffffffffffffffffffffffffffffffffffff04831182151516156117e4576117e361141d565b5b828202905092915050565b60006117fa82610fa2565b915061180583610fa2565b9250828210156118185761181761141d565b5b828203905092915050565b60008115159050919050565b61183881611823565b811461184357600080fd5b50565b6000815190506118558161182f565b92915050565b60006020828403121561187157611870610fff565b5b600061187f84828501611846565b91505092915050565b7f5361666545524332303a204552433230206f7065726174696f6e20646964206e60008201527f6f74207375636365656400000000000000000000000000000000000000000000602082015250565b60006118e4602a836112ce565b91506118ef82611888565b604082019050919050565b60006020820190508181036000830152611913816118d7565b9050919050565b7f416464726573733a20696e73756666696369656e742062616c616e636520666f60008201527f722063616c6c0000000000000000000000000000000000000000000000000000602082015250565b60006119766026836112ce565b91506119818261191a565b604082019050919050565b600060208201905081810360008301526119a581611969565b9050919050565b7f416464726573733a2063616c6c20746f206e6f6e2d636f6e7472616374000000600082015250565b60006119e2601d836112ce565b91506119ed826119ac565b602082019050919050565b60006020820190508181036000830152611a11816119d5565b9050919050565b600081519050919050565b600081905092915050565b60005b83811015611a4c578082015181840152602081019050611a31565b83811115611a5b576000848401525b50505050565b6000611a6c82611a18565b611a768185611a23565b9350611a86818560208601611a2e565b80840191505092915050565b6000611a9e8284611a61565b915081905092915050565b600081519050919050565b6000611abf82611aa9565b611ac981856112ce565b9350611ad9818560208601611a2e565b611ae28161155d565b840191505092915050565b60006020820190508181036000830152611b078184611ab4565b90509291505056fea26469706673582212208cf85cee52c8435c106548772f01221d5183fe48f576ac44a1cd0cea45ccb3f064736f6c63430008090033",
  "linkReferences": {},
  "deployedLinkReferences": {}
}