{
  "_format": "hh-sol-artifact-1",
  "contractName": "GridFirePayment",
  "sourceName": "contracts/GridFirePayment.sol",
  "abi": [
    {
      "inputs": [],
      "stateMutability": "nonpayable",
      "type": "constructor"
    },
    {
      "anonymous": false,
      "inputs": [
        {
          "indexed": true,
          "internalType": "address",
          "name": "account",
          "type": "address"
        },
        {
          "indexed": true,
          "internalType": "address",
          "name": "operator",
          "type": "address"
        },
        {
          "indexed": false,
          "internalType": "bool",
          "name": "approved",
          "type": "bool"
        }
      ],
      "name": "ApprovalForAll",
      "type": "event"
    },
    {
      "anonymous": false,
      "inputs": [
        {
          "indexed": true,
          "internalType": "address",
          "name": "buyer",
          "type": "address"
        },
        {
          "indexed": false,
          "internalType": "uint256",
          "name": "amount",
          "type": "uint256"
        }
      ],
      "name": "Checkout",
      "type": "event"
    },
    {
      "anonymous": false,
      "inputs": [
        {
          "indexed": true,
          "internalType": "address",
          "name": "artist",
          "type": "address"
        },
        {
          "indexed": false,
          "internalType": "uint256",
          "name": "amount",
          "type": "uint256"
        }
      ],
      "name": "Claim",
      "type": "event"
    },
    {
      "anonymous": false,
      "inputs": [
        {
          "indexed": true,
          "internalType": "address",
          "name": "previousOwner",
          "type": "address"
        },
        {
          "indexed": true,
          "internalType": "address",
          "name": "newOwner",
          "type": "address"
        }
      ],
      "name": "OwnershipTransferred",
      "type": "event"
    },
    {
      "anonymous": false,
      "inputs": [
        {
          "indexed": true,
          "internalType": "address",
          "name": "buyer",
          "type": "address"
        },
        {
          "indexed": true,
          "internalType": "address",
          "name": "artist",
          "type": "address"
        },
        {
          "indexed": false,
          "internalType": "string",
          "name": "releaseId",
          "type": "string"
        },
        {
          "indexed": false,
          "internalType": "string",
          "name": "userId",
          "type": "string"
        },
        {
          "indexed": false,
          "internalType": "uint256",
          "name": "amountPaid",
          "type": "uint256"
        },
        {
          "indexed": false,
          "internalType": "uint256",
          "name": "artistShare",
          "type": "uint256"
        },
        {
          "indexed": false,
          "internalType": "uint256",
          "name": "platformFee",
          "type": "uint256"
        }
      ],
      "name": "Purchase",
      "type": "event"
    },
    {
      "anonymous": false,
      "inputs": [
        {
          "indexed": true,
          "internalType": "address",
          "name": "buyer",
          "type": "address"
        },
        {
          "indexed": true,
          "internalType": "address",
          "name": "artist",
          "type": "address"
        },
        {
          "indexed": false,
          "internalType": "string",
          "name": "releaseId",
          "type": "string"
        },
        {
          "indexed": false,
          "internalType": "string",
          "name": "userId",
          "type": "string"
        },
        {
          "indexed": false,
          "internalType": "uint256",
          "name": "amountPaid",
          "type": "uint256"
        },
        {
          "indexed": false,
          "internalType": "uint256",
          "name": "artistShare",
          "type": "uint256"
        },
        {
          "indexed": false,
          "internalType": "uint256",
          "name": "platformFee",
          "type": "uint256"
        },
        {
          "indexed": false,
          "internalType": "uint256",
          "name": "editionId",
          "type": "uint256"
        }
      ],
      "name": "PurchaseEdition",
      "type": "event"
    },
    {
      "anonymous": false,
      "inputs": [
        {
          "indexed": false,
          "internalType": "address",
          "name": "from",
          "type": "address"
        },
        {
          "indexed": false,
          "internalType": "uint256",
          "name": "amount",
          "type": "uint256"
        }
      ],
      "name": "Received",
      "type": "event"
    },
    {
      "anonymous": false,
      "inputs": [
        {
          "indexed": true,
          "internalType": "address",
          "name": "operator",
          "type": "address"
        },
        {
          "indexed": true,
          "internalType": "address",
          "name": "from",
          "type": "address"
        },
        {
          "indexed": true,
          "internalType": "address",
          "name": "to",
          "type": "address"
        },
        {
          "indexed": false,
          "internalType": "uint256[]",
          "name": "ids",
          "type": "uint256[]"
        },
        {
          "indexed": false,
          "internalType": "uint256[]",
          "name": "values",
          "type": "uint256[]"
        }
      ],
      "name": "TransferBatch",
      "type": "event"
    },
    {
      "anonymous": false,
      "inputs": [
        {
          "indexed": true,
          "internalType": "address",
          "name": "operator",
          "type": "address"
        },
        {
          "indexed": true,
          "internalType": "address",
          "name": "from",
          "type": "address"
        },
        {
          "indexed": true,
          "internalType": "address",
          "name": "to",
          "type": "address"
        },
        {
          "indexed": false,
          "internalType": "uint256",
          "name": "id",
          "type": "uint256"
        },
        {
          "indexed": false,
          "internalType": "uint256",
          "name": "value",
          "type": "uint256"
        }
      ],
      "name": "TransferSingle",
      "type": "event"
    },
    {
      "anonymous": false,
      "inputs": [
        {
          "indexed": false,
          "internalType": "string",
          "name": "value",
          "type": "string"
        },
        {
          "indexed": true,
          "internalType": "uint256",
          "name": "id",
          "type": "uint256"
        }
      ],
      "name": "URI",
      "type": "event"
    },
    {
      "inputs": [
        {
          "internalType": "address",
          "name": "account",
          "type": "address"
        },
        {
          "internalType": "uint256",
          "name": "id",
          "type": "uint256"
        }
      ],
      "name": "balanceOf",
      "outputs": [
        {
          "internalType": "uint256",
          "name": "",
          "type": "uint256"
        }
      ],
      "stateMutability": "view",
      "type": "function"
    },
    {
      "inputs": [
        {
          "internalType": "address[]",
          "name": "accounts",
          "type": "address[]"
        },
        {
          "internalType": "uint256[]",
          "name": "ids",
          "type": "uint256[]"
        }
      ],
      "name": "balanceOfBatch",
      "outputs": [
        {
          "internalType": "uint256[]",
          "name": "",
          "type": "uint256[]"
        }
      ],
      "stateMutability": "view",
      "type": "function"
    },
    {
      "inputs": [
        {
          "components": [
            {
              "internalType": "address",
              "name": "artist",
              "type": "address"
            },
            {
              "internalType": "uint256",
              "name": "amountPaid",
              "type": "uint256"
            },
            {
              "internalType": "string",
              "name": "releaseId",
              "type": "string"
            },
            {
              "internalType": "uint256",
              "name": "releasePrice",
              "type": "uint256"
            }
          ],
          "internalType": "struct GridFirePayment.BasketItem[]",
          "name": "basket",
          "type": "tuple[]"
        },
        {
          "internalType": "string",
          "name": "userId",
          "type": "string"
        }
      ],
      "name": "checkout",
      "outputs": [],
      "stateMutability": "nonpayable",
      "type": "function"
    },
    {
      "inputs": [],
      "name": "claim",
      "outputs": [],
      "stateMutability": "nonpayable",
      "type": "function"
    },
    {
      "inputs": [
        {
          "internalType": "uint256",
          "name": "id",
          "type": "uint256"
        }
      ],
      "name": "exists",
      "outputs": [
        {
          "internalType": "bool",
          "name": "",
          "type": "bool"
        }
      ],
      "stateMutability": "view",
      "type": "function"
    },
    {
      "inputs": [
        {
          "internalType": "address",
          "name": "artist",
          "type": "address"
        }
      ],
      "name": "getBalance",
      "outputs": [
        {
          "internalType": "uint256",
          "name": "",
          "type": "uint256"
        }
      ],
      "stateMutability": "view",
      "type": "function"
    },
    {
      "inputs": [
        {
          "internalType": "uint256",
          "name": "id",
          "type": "uint256"
        }
      ],
      "name": "getEdition",
      "outputs": [
        {
          "components": [
            {
              "internalType": "address",
              "name": "artist",
              "type": "address"
            },
            {
              "internalType": "uint256",
              "name": "price",
              "type": "uint256"
            },
            {
              "internalType": "string",
              "name": "uri",
              "type": "string"
            },
            {
              "internalType": "string",
              "name": "releaseId",
              "type": "string"
            }
          ],
          "internalType": "struct GridFirePayment.GridFireEdition",
          "name": "",
          "type": "tuple"
        }
      ],
      "stateMutability": "view",
      "type": "function"
    },
    {
      "inputs": [
        {
          "internalType": "string",
          "name": "releaseId",
          "type": "string"
        }
      ],
      "name": "getEditionsByReleaseId",
      "outputs": [
        {
          "internalType": "uint256[]",
          "name": "",
          "type": "uint256[]"
        },
        {
          "components": [
            {
              "internalType": "address",
              "name": "artist",
              "type": "address"
            },
            {
              "internalType": "uint256",
              "name": "price",
              "type": "uint256"
            },
            {
              "internalType": "string",
              "name": "uri",
              "type": "string"
            },
            {
              "internalType": "string",
              "name": "releaseId",
              "type": "string"
            }
          ],
          "internalType": "struct GridFirePayment.GridFireEdition[]",
          "name": "",
          "type": "tuple[]"
        },
        {
          "internalType": "uint256[]",
          "name": "",
          "type": "uint256[]"
        }
      ],
      "stateMutability": "view",
      "type": "function"
    },
    {
      "inputs": [],
      "name": "getServiceFee",
      "outputs": [
        {
          "internalType": "uint256",
          "name": "",
          "type": "uint256"
        }
      ],
      "stateMutability": "view",
      "type": "function"
    },
    {
      "inputs": [
        {
          "internalType": "address",
          "name": "account",
          "type": "address"
        },
        {
          "internalType": "address",
          "name": "operator",
          "type": "address"
        }
      ],
      "name": "isApprovedForAll",
      "outputs": [
        {
          "internalType": "bool",
          "name": "",
          "type": "bool"
        }
      ],
      "stateMutability": "view",
      "type": "function"
    },
    {
      "inputs": [
        {
          "internalType": "uint256",
          "name": "amount",
          "type": "uint256"
        },
        {
          "internalType": "uint256",
          "name": "price",
          "type": "uint256"
        },
        {
          "internalType": "string",
          "name": "metadataUri",
          "type": "string"
        },
        {
          "internalType": "string",
          "name": "releaseId",
          "type": "string"
        }
      ],
      "name": "mintEdition",
      "outputs": [],
      "stateMutability": "nonpayable",
      "type": "function"
    },
    {
      "inputs": [
        {
          "internalType": "address",
          "name": "",
          "type": "address"
        },
        {
          "internalType": "address",
          "name": "",
          "type": "address"
        },
        {
          "internalType": "uint256[]",
          "name": "",
          "type": "uint256[]"
        },
        {
          "internalType": "uint256[]",
          "name": "",
          "type": "uint256[]"
        },
        {
          "internalType": "bytes",
          "name": "",
          "type": "bytes"
        }
      ],
      "name": "onERC1155BatchReceived",
      "outputs": [
        {
          "internalType": "bytes4",
          "name": "",
          "type": "bytes4"
        }
      ],
      "stateMutability": "nonpayable",
      "type": "function"
    },
    {
      "inputs": [
        {
          "internalType": "address",
          "name": "",
          "type": "address"
        },
        {
          "internalType": "address",
          "name": "",
          "type": "address"
        },
        {
          "internalType": "uint256",
          "name": "",
          "type": "uint256"
        },
        {
          "internalType": "uint256",
          "name": "",
          "type": "uint256"
        },
        {
          "internalType": "bytes",
          "name": "",
          "type": "bytes"
        }
      ],
      "name": "onERC1155Received",
      "outputs": [
        {
          "internalType": "bytes4",
          "name": "",
          "type": "bytes4"
        }
      ],
      "stateMutability": "nonpayable",
      "type": "function"
    },
    {
      "inputs": [],
      "name": "owner",
      "outputs": [
        {
          "internalType": "address",
          "name": "",
          "type": "address"
        }
      ],
      "stateMutability": "view",
      "type": "function"
    },
    {
      "inputs": [
        {
          "internalType": "address",
          "name": "artist",
          "type": "address"
        },
        {
          "internalType": "string",
          "name": "releaseId",
          "type": "string"
        },
        {
          "internalType": "string",
          "name": "userId",
          "type": "string"
        },
        {
          "internalType": "uint256",
          "name": "amountPaid",
          "type": "uint256"
        },
        {
          "internalType": "uint256",
          "name": "releasePrice",
          "type": "uint256"
        }
      ],
      "name": "purchase",
      "outputs": [],
      "stateMutability": "nonpayable",
      "type": "function"
    },
    {
      "inputs": [
        {
          "internalType": "address",
          "name": "artist",
          "type": "address"
        },
        {
          "internalType": "uint256",
          "name": "editionId",
          "type": "uint256"
        },
        {
          "internalType": "string",
          "name": "userId",
          "type": "string"
        },
        {
          "internalType": "uint256",
          "name": "amountPaid",
          "type": "uint256"
        }
      ],
      "name": "purchaseGridFireEdition",
      "outputs": [],
      "stateMutability": "nonpayable",
      "type": "function"
    },
    {
      "inputs": [],
      "name": "renounceOwnership",
      "outputs": [],
      "stateMutability": "nonpayable",
      "type": "function"
    },
    {
      "inputs": [
        {
          "internalType": "address",
          "name": "from",
          "type": "address"
        },
        {
          "internalType": "address",
          "name": "to",
          "type": "address"
        },
        {
          "internalType": "uint256[]",
          "name": "ids",
          "type": "uint256[]"
        },
        {
          "internalType": "uint256[]",
          "name": "amounts",
          "type": "uint256[]"
        },
        {
          "internalType": "bytes",
          "name": "data",
          "type": "bytes"
        }
      ],
      "name": "safeBatchTransferFrom",
      "outputs": [],
      "stateMutability": "nonpayable",
      "type": "function"
    },
    {
      "inputs": [
        {
          "internalType": "address",
          "name": "from",
          "type": "address"
        },
        {
          "internalType": "address",
          "name": "to",
          "type": "address"
        },
        {
          "internalType": "uint256",
          "name": "id",
          "type": "uint256"
        },
        {
          "internalType": "uint256",
          "name": "amount",
          "type": "uint256"
        },
        {
          "internalType": "bytes",
          "name": "data",
          "type": "bytes"
        }
      ],
      "name": "safeTransferFrom",
      "outputs": [],
      "stateMutability": "nonpayable",
      "type": "function"
    },
    {
      "inputs": [
        {
          "internalType": "address",
          "name": "operator",
          "type": "address"
        },
        {
          "internalType": "bool",
          "name": "approved",
          "type": "bool"
        }
      ],
      "name": "setApprovalForAll",
      "outputs": [],
      "stateMutability": "nonpayable",
      "type": "function"
    },
    {
      "inputs": [
        {
          "internalType": "uint256",
          "name": "newServiceFee",
          "type": "uint256"
        }
      ],
      "name": "setServiceFee",
      "outputs": [],
      "stateMutability": "nonpayable",
      "type": "function"
    },
    {
      "inputs": [
        {
          "internalType": "bytes4",
          "name": "interfaceId",
          "type": "bytes4"
        }
      ],
      "name": "supportsInterface",
      "outputs": [
        {
          "internalType": "bool",
          "name": "",
          "type": "bool"
        }
      ],
      "stateMutability": "view",
      "type": "function"
    },
    {
      "inputs": [
        {
          "internalType": "uint256",
          "name": "id",
          "type": "uint256"
        }
      ],
      "name": "totalSupply",
      "outputs": [
        {
          "internalType": "uint256",
          "name": "",
          "type": "uint256"
        }
      ],
      "stateMutability": "view",
      "type": "function"
    },
    {
      "inputs": [
        {
          "internalType": "address",
          "name": "newOwner",
          "type": "address"
        }
      ],
      "name": "transferOwnership",
      "outputs": [],
      "stateMutability": "nonpayable",
      "type": "function"
    },
    {
      "inputs": [
        {
          "internalType": "uint256",
          "name": "editionId",
          "type": "uint256"
        }
      ],
      "name": "uri",
      "outputs": [
        {
          "internalType": "string",
          "name": "",
          "type": "string"
        }
      ],
      "stateMutability": "view",
      "type": "function"
    },
    {
      "inputs": [],
      "name": "withdraw",
      "outputs": [],
      "stateMutability": "nonpayable",
      "type": "function"
    },
    {
      "stateMutability": "payable",
      "type": "receive"
    }
  ],
  "bytecode": "0x608060405260326005553480156200001657600080fd5b5060405180602001604052806000815250620000476200003b6200005f60201b60201c565b6200006760201b60201c565b62000058816200012b60201b60201c565b506200025c565b600033905090565b60008060009054906101000a900473ffffffffffffffffffffffffffffffffffffffff169050816000806101000a81548173ffffffffffffffffffffffffffffffffffffffff021916908373ffffffffffffffffffffffffffffffffffffffff1602179055508173ffffffffffffffffffffffffffffffffffffffff168173ffffffffffffffffffffffffffffffffffffffff167f8be0079c531659141344cd1fd0a4f28419497f9722a3daafe3b4186f6b6457e060405160405180910390a35050565b80600390805190602001906200014392919062000147565b5050565b828054620001559062000226565b90600052602060002090601f016020900481019282620001795760008555620001c5565b82601f106200019457805160ff1916838001178555620001c5565b82800160010185558215620001c5579182015b82811115620001c4578251825591602001919060010190620001a7565b5b509050620001d49190620001d8565b5090565b5b80821115620001f3576000816000905550600101620001d9565b5090565b7f4e487b7100000000000000000000000000000000000000000000000000000000600052602260045260246000fd5b600060028204905060018216806200023f57607f821691505b60208210811415620002565762000255620001f7565b5b50919050565b615576806200026c6000396000f3fe6080604052600436106101845760003560e01c8063718abe43116100d1578063bc197c811161008a578063f23a6e6111610064578063f23a6e61146105e7578063f242432a14610624578063f2fde38b1461064d578063f8b2cb4f14610676576101c4565b8063bc197c8114610530578063bd85b0391461056d578063e985e9c5146105aa576101c4565b8063718abe431461042457806373f41b951461044d5780638da5cb5b14610476578063a22cb465146104a1578063a642c032146104ca578063ad02526f14610507576101c4565b80633ccfd60b1161013e5780634f558e79116101185780634f558e791461037e578063519b3254146103bb5780635cdf76f8146103e4578063715018a61461040d576101c4565b80633ccfd60b146103135780634e1273f41461032a5780634e71d92d14610367576101c4565b8062fdd58e146101c957806301ffc9a7146102065780630e89341c146102435780630ee472a51461028057806311a1933c146102bf5780632eb2c2d6146102ea576101c4565b366101c4577f88a5966d370b9919b20f3e2c13ff65706f196a4e32cc2c12bf57088f8852587433346040516101ba929190613448565b60405180910390a1005b600080fd5b3480156101d557600080fd5b506101f060048036038101906101eb91906134dd565b6106b3565b6040516101fd919061351d565b60405180910390f35b34801561021257600080fd5b5061022d60048036038101906102289190613590565b61077d565b60405161023a91906135d8565b60405180910390f35b34801561024f57600080fd5b5061026a600480360381019061026591906135f3565b61078f565b60405161027791906136b9565b60405180910390f35b34801561028c57600080fd5b506102a760048036038101906102a29190613740565b610837565b6040516102b6939291906139d0565b60405180910390f35b3480156102cb57600080fd5b506102d4610be6565b6040516102e1919061351d565b60405180910390f35b3480156102f657600080fd5b50610311600480360381019061030c9190613c0f565b610bf0565b005b34801561031f57600080fd5b50610328610c91565b005b34801561033657600080fd5b50610351600480360381019061034c9190613da1565b610ce2565b60405161035e9190613e19565b60405180910390f35b34801561037357600080fd5b5061037c610dfb565b005b34801561038a57600080fd5b506103a560048036038101906103a091906135f3565b610f58565b6040516103b291906135d8565b60405180910390f35b3480156103c757600080fd5b506103e260048036038101906103dd9190613e3b565b610f6c565b005b3480156103f057600080fd5b5061040b600480360381019061040691906135f3565b6110c0565b005b34801561041957600080fd5b506104226110e0565b005b34801561043057600080fd5b5061044b60048036038101906104469190613ec3565b6110f4565b005b34801561045957600080fd5b50610474600480360381019061046f9190613f6a565b6111e0565b005b34801561048257600080fd5b5061048b611212565b6040516104989190614026565b60405180910390f35b3480156104ad57600080fd5b506104c860048036038101906104c3919061406d565b61123b565b005b3480156104d657600080fd5b506104f160048036038101906104ec91906135f3565b611251565b6040516104fe9190614117565b60405180910390f35b34801561051357600080fd5b5061052e6004803603810190610529919061418f565b611402565b005b34801561053c57600080fd5b5061055760048036038101906105529190613c0f565b6116b5565b604051610564919061421f565b60405180910390f35b34801561057957600080fd5b50610594600480360381019061058f91906135f3565b6116ca565b6040516105a1919061351d565b60405180910390f35b3480156105b657600080fd5b506105d160048036038101906105cc919061423a565b6116e7565b6040516105de91906135d8565b60405180910390f35b3480156105f357600080fd5b5061060e6004803603810190610609919061427a565b61177b565b60405161061b919061421f565b60405180910390f35b34801561063057600080fd5b5061064b6004803603810190610646919061427a565b611790565b005b34801561065957600080fd5b50610674600480360381019061066f9190614311565b611831565b005b34801561068257600080fd5b5061069d60048036038101906106989190614311565b6118b5565b6040516106aa919061351d565b60405180910390f35b60008073ffffffffffffffffffffffffffffffffffffffff168373ffffffffffffffffffffffffffffffffffffffff161415610724576040517f08c379a000000000000000000000000000000000000000000000000000000000815260040161071b906143b0565b60405180910390fd5b6001600083815260200190815260200160002060008473ffffffffffffffffffffffffffffffffffffffff1673ffffffffffffffffffffffffffffffffffffffff16815260200190815260200160002054905092915050565b6000610788826118fe565b9050919050565b60606007600083815260200190815260200160002060020180546107b2906143ff565b80601f01602080910402602001604051908101604052809291908181526020018280546107de906143ff565b801561082b5780601f106108005761010080835404028352916020019161082b565b820191906000526020600020905b81548152906001019060200180831161080e57829003601f168201915b50505050509050919050565b6060806060600060088686604051610850929190614461565b90815260200160405180910390208054806020026020016040519081016040528092919081815260200182805480156108a857602002820191906000526020600020905b815481526020019060010190808311610894575b505050505090506000815167ffffffffffffffff8111156108cc576108cb613a1c565b5b6040519080825280602002602001820160405280156108fa5781602001602082028036833780820191505090505b50905060005b815181101561096a573082828151811061091d5761091c61447a565b5b602002602001019073ffffffffffffffffffffffffffffffffffffffff16908173ffffffffffffffffffffffffffffffffffffffff16815250508080610962906144d8565b915050610900565b5060006109778284610ce2565b90506000835167ffffffffffffffff81111561099657610995613a1c565b5b6040519080825280602002602001820160405280156109cf57816020015b6109bc61330d565b8152602001906001900390816109b45790505b50905060005b8451811015610bd15760008582815181106109f3576109f261447a565b5b60200260200101519050600760008281526020019081526020016000206040518060800160405290816000820160009054906101000a900473ffffffffffffffffffffffffffffffffffffffff1673ffffffffffffffffffffffffffffffffffffffff1673ffffffffffffffffffffffffffffffffffffffff16815260200160018201548152602001600282018054610a8b906143ff565b80601f0160208091040260200160405190810160405280929190818152602001828054610ab7906143ff565b8015610b045780601f10610ad957610100808354040283529160200191610b04565b820191906000526020600020905b815481529060010190602001808311610ae757829003601f168201915b50505050508152602001600382018054610b1d906143ff565b80601f0160208091040260200160405190810160405280929190818152602001828054610b49906143ff565b8015610b965780601f10610b6b57610100808354040283529160200191610b96565b820191906000526020600020905b815481529060010190602001808311610b7957829003601f168201915b505050505081525050838381518110610bb257610bb161447a565b5b6020026020010181905250508080610bc9906144d8565b9150506109d5565b50838183965096509650505050509250925092565b6000600554905090565b610bf86119e0565b73ffffffffffffffffffffffffffffffffffffffff168573ffffffffffffffffffffffffffffffffffffffff161480610c3e5750610c3d85610c386119e0565b6116e7565b5b610c7d576040517f08c379a0000000000000000000000000000000000000000000000000000000008152600401610c7490614593565b60405180910390fd5b610c8a85858585856119e8565b5050505050565b610c99611d0d565b3373ffffffffffffffffffffffffffffffffffffffff166108fc479081150290604051600060405180830381858888f19350505050158015610cdf573d6000803e3d6000fd5b50565b60608151835114610d28576040517f08c379a0000000000000000000000000000000000000000000000000000000008152600401610d1f90614625565b60405180910390fd5b6000835167ffffffffffffffff811115610d4557610d44613a1c565b5b604051908082528060200260200182016040528015610d735781602001602082028036833780820191505090505b50905060005b8451811015610df057610dc0858281518110610d9857610d9761447a565b5b6020026020010151858381518110610db357610db261447a565b5b60200260200101516106b3565b828281518110610dd357610dd261447a565b5b60200260200101818152505080610de9906144d8565b9050610d79565b508091505092915050565b6000600660003373ffffffffffffffffffffffffffffffffffffffff1673ffffffffffffffffffffffffffffffffffffffff1681526020019081526020016000205490506000811415610e83576040517f08c379a0000000000000000000000000000000000000000000000000000000008152600401610e7a90614691565b60405180910390fd5b6000600660003373ffffffffffffffffffffffffffffffffffffffff1673ffffffffffffffffffffffffffffffffffffffff16815260200190815260200160002081905550610f07338273da10009cbd5d07dd0cecc66161fc93d7c9000da173ffffffffffffffffffffffffffffffffffffffff16611d8b9092919063ffffffff16565b3373ffffffffffffffffffffffffffffffffffffffff167f47cee97cb7acd717b3c0aa1435d004cd5b3c8c57d70dbceb4e4458bbd60e39d482604051610f4d919061351d565b60405180910390a250565b600080610f64836116ca565b119050919050565b6000610f7830866106b3565b1415610fb9576040517f08c379a0000000000000000000000000000000000000000000000000000000008152600401610fb090614723565b60405180910390fd5b6000811415610fc757600080fd5b6007600085815260200190815260200160002060010154811015610fea57600080fd5b600060076000868152602001908152602001600020600301805461100d906143ff565b80601f0160208091040260200160405190810160405280929190818152602001828054611039906143ff565b80156110865780601f1061105b57610100808354040283529160200191611086565b820191906000526020600020905b81548152906001019060200180831161106957829003601f168201915b5050505050905061109b86828686868a611e11565b6110b8303387600160405180602001604052806000815250611ede565b505050505050565b6110c8611d0d565b6103e881106110d657600080fd5b8060058190555050565b6110e8611d0d565b6110f2600061217d565b565b6110fe6009612241565b600061110a6009612257565b905061112730828960405180602001604052806000815250612265565b6111318133612417565b61113b8187612470565b6111898184848080601f016020809104026020016040519081016040528093929190818152602001838380828437600081840152601f19601f8201169050808301925050505050505061248f565b6111d78186868080601f016020809104026020016040519081016040528093929190818152602001838380828437600081840152601f19601f82011690508083019250505050505050612503565b50505050505050565b60008214156111ee57600080fd5b808210156111fb57600080fd5b611209878787878787612532565b50505050505050565b60008060009054906101000a900473ffffffffffffffffffffffffffffffffffffffff16905090565b61124d6112466119e0565b83836125ff565b5050565b61125961330d565b600760008381526020019081526020016000206040518060800160405290816000820160009054906101000a900473ffffffffffffffffffffffffffffffffffffffff1673ffffffffffffffffffffffffffffffffffffffff1673ffffffffffffffffffffffffffffffffffffffff168152602001600182015481526020016002820180546112e7906143ff565b80601f0160208091040260200160405190810160405280929190818152602001828054611313906143ff565b80156113605780601f1061133557610100808354040283529160200191611360565b820191906000526020600020905b81548152906001019060200180831161134357829003601f168201915b50505050508152602001600382018054611379906143ff565b80601f01602080910402602001604051908101604052809291908181526020018280546113a5906143ff565b80156113f25780601f106113c7576101008083540402835291602001916113f2565b820191906000526020600020905b8154815290600101906020018083116113d557829003601f168201915b5050505050815250509050919050565b6000805b858590508110156114d15760008686838181106114265761142561447a565b5b90506020028101906114389190614752565b60200135905060008787848181106114535761145261447a565b5b90506020028101906114659190614752565b606001359050808210156114ae576040517f08c379a00000000000000000000000000000000000000000000000000000000081526004016114a5906147c6565b60405180910390fd5b81846114ba91906147e6565b9350505080806114c9906144d8565b915050611406565b5061151333308373da10009cbd5d07dd0cecc66161fc93d7c9000da173ffffffffffffffffffffffffffffffffffffffff1661276c909392919063ffffffff16565b60005b8585905081101561165f5760008686838181106115365761153561447a565b5b90506020028101906115489190614752565b600001602081019061155a9190614311565b905060008787848181106115715761157061447a565b5b90506020028101906115839190614752565b60200135905036600089898681811061159f5761159e61447a565b5b90506020028101906115b19190614752565b80604001906115c0919061483c565b915091506000806115d186866127f5565b915091508573ffffffffffffffffffffffffffffffffffffffff163373ffffffffffffffffffffffffffffffffffffffff167f6409fc516d44db7943e14a95632f09a9cec5c91f1dc7a01f2fd5496125ef208586868e8e8b898960405161163e97969594939291906148cc565b60405180910390a35050505050508080611657906144d8565b915050611516565b503373ffffffffffffffffffffffffffffffffffffffff167f10190e7f174afbe5482194d509017e9df854671cd62fb4ef901fbd0080c1e6b6826040516116a6919061351d565b60405180910390a25050505050565b600063bc197c8160e01b905095945050505050565b600060046000838152602001908152602001600020549050919050565b6000600260008473ffffffffffffffffffffffffffffffffffffffff1673ffffffffffffffffffffffffffffffffffffffff16815260200190815260200160002060008373ffffffffffffffffffffffffffffffffffffffff1673ffffffffffffffffffffffffffffffffffffffff16815260200190815260200160002060009054906101000a900460ff16905092915050565b600063f23a6e6160e01b905095945050505050565b6117986119e0565b73ffffffffffffffffffffffffffffffffffffffff168573ffffffffffffffffffffffffffffffffffffffff1614806117de57506117dd856117d86119e0565b6116e7565b5b61181d576040517f08c379a000000000000000000000000000000000000000000000000000000000815260040161181490614593565b60405180910390fd5b61182a8585858585611ede565b5050505050565b611839611d0d565b600073ffffffffffffffffffffffffffffffffffffffff168173ffffffffffffffffffffffffffffffffffffffff1614156118a9576040517f08c379a00000000000000000000000000000000000000000000000000000000081526004016118a0906149a3565b60405180910390fd5b6118b28161217d565b50565b6000600660008373ffffffffffffffffffffffffffffffffffffffff1673ffffffffffffffffffffffffffffffffffffffff168152602001908152602001600020549050919050565b60007fd9b67a26000000000000000000000000000000000000000000000000000000007bffffffffffffffffffffffffffffffffffffffffffffffffffffffff1916827bffffffffffffffffffffffffffffffffffffffffffffffffffffffff191614806119c957507f0e89341c000000000000000000000000000000000000000000000000000000007bffffffffffffffffffffffffffffffffffffffffffffffffffffffff1916827bffffffffffffffffffffffffffffffffffffffffffffffffffffffff1916145b806119d957506119d88261296c565b5b9050919050565b600033905090565b8151835114611a2c576040517f08c379a0000000000000000000000000000000000000000000000000000000008152600401611a2390614a35565b60405180910390fd5b600073ffffffffffffffffffffffffffffffffffffffff168473ffffffffffffffffffffffffffffffffffffffff161415611a9c576040517f08c379a0000000000000000000000000000000000000000000000000000000008152600401611a9390614ac7565b60405180910390fd5b6000611aa66119e0565b9050611ab68187878787876129e6565b60005b8451811015611c6a576000858281518110611ad757611ad661447a565b5b602002602001015190506000858381518110611af657611af561447a565b5b6020026020010151905060006001600084815260200190815260200160002060008b73ffffffffffffffffffffffffffffffffffffffff1673ffffffffffffffffffffffffffffffffffffffff16815260200190815260200160002054905081811015611b98576040517f08c379a0000000000000000000000000000000000000000000000000000000008152600401611b8f90614b59565b60405180910390fd5b8181036001600085815260200190815260200160002060008c73ffffffffffffffffffffffffffffffffffffffff1673ffffffffffffffffffffffffffffffffffffffff16815260200190815260200160002081905550816001600085815260200190815260200160002060008b73ffffffffffffffffffffffffffffffffffffffff1673ffffffffffffffffffffffffffffffffffffffff1681526020019081526020016000206000828254611c4f91906147e6565b9250508190555050505080611c63906144d8565b9050611ab9565b508473ffffffffffffffffffffffffffffffffffffffff168673ffffffffffffffffffffffffffffffffffffffff168273ffffffffffffffffffffffffffffffffffffffff167f4a39dc06d4c0dbc64b70af90fd698a233a518aa5d07e595d983b8c0526c8f7fb8787604051611ce1929190614b79565b60405180910390a4611cf78187878787876129fc565b611d05818787878787612a04565b505050505050565b611d156119e0565b73ffffffffffffffffffffffffffffffffffffffff16611d33611212565b73ffffffffffffffffffffffffffffffffffffffff1614611d89576040517f08c379a0000000000000000000000000000000000000000000000000000000008152600401611d8090614bfc565b60405180910390fd5b565b611e0c8363a9059cbb60e01b8484604051602401611daa929190613448565b604051602081830303815290604052907bffffffffffffffffffffffffffffffffffffffffffffffffffffffff19166020820180517bffffffffffffffffffffffffffffffffffffffffffffffffffffffff8381831617835250505050612beb565b505050565b611e5233308473da10009cbd5d07dd0cecc66161fc93d7c9000da173ffffffffffffffffffffffffffffffffffffffff1661276c909392919063ffffffff16565b600080611e5f88856127f5565b915091508773ffffffffffffffffffffffffffffffffffffffff163373ffffffffffffffffffffffffffffffffffffffff167f8ec07ca54fc64fcdc3fceb37053473c9c2fc86ad9c88ced87a1575a03cb3ba688989898988888b604051611ecc9796959493929190614c1c565b60405180910390a35050505050505050565b600073ffffffffffffffffffffffffffffffffffffffff168473ffffffffffffffffffffffffffffffffffffffff161415611f4e576040517f08c379a0000000000000000000000000000000000000000000000000000000008152600401611f4590614ac7565b60405180910390fd5b6000611f586119e0565b90506000611f6585612cb2565b90506000611f7285612cb2565b9050611f828389898585896129e6565b60006001600088815260200190815260200160002060008a73ffffffffffffffffffffffffffffffffffffffff1673ffffffffffffffffffffffffffffffffffffffff1681526020019081526020016000205490508581101561201a576040517f08c379a000000000000000000000000000000000000000000000000000000000815260040161201190614b59565b60405180910390fd5b8581036001600089815260200190815260200160002060008b73ffffffffffffffffffffffffffffffffffffffff1673ffffffffffffffffffffffffffffffffffffffff16815260200190815260200160002081905550856001600089815260200190815260200160002060008a73ffffffffffffffffffffffffffffffffffffffff1673ffffffffffffffffffffffffffffffffffffffff16815260200190815260200160002060008282546120d191906147e6565b925050819055508773ffffffffffffffffffffffffffffffffffffffff168973ffffffffffffffffffffffffffffffffffffffff168573ffffffffffffffffffffffffffffffffffffffff167fc3d58168c5ae7397731d063d5bbf3d657854427343f4c083240f7aacaa2d0f628a8a60405161214e929190614c8d565b60405180910390a4612164848a8a86868a6129fc565b612172848a8a8a8a8a612d2c565b505050505050505050565b60008060009054906101000a900473ffffffffffffffffffffffffffffffffffffffff169050816000806101000a81548173ffffffffffffffffffffffffffffffffffffffff021916908373ffffffffffffffffffffffffffffffffffffffff1602179055508173ffffffffffffffffffffffffffffffffffffffff168173ffffffffffffffffffffffffffffffffffffffff167f8be0079c531659141344cd1fd0a4f28419497f9722a3daafe3b4186f6b6457e060405160405180910390a35050565b6001816000016000828254019250508190555050565b600081600001549050919050565b600073ffffffffffffffffffffffffffffffffffffffff168473ffffffffffffffffffffffffffffffffffffffff1614156122d5576040517f08c379a00000000000000000000000000000000000000000000000000000000081526004016122cc90614d28565b60405180910390fd5b60006122df6119e0565b905060006122ec85612cb2565b905060006122f985612cb2565b905061230a836000898585896129e6565b846001600088815260200190815260200160002060008973ffffffffffffffffffffffffffffffffffffffff1673ffffffffffffffffffffffffffffffffffffffff168152602001908152602001600020600082825461236a91906147e6565b925050819055508673ffffffffffffffffffffffffffffffffffffffff16600073ffffffffffffffffffffffffffffffffffffffff168473ffffffffffffffffffffffffffffffffffffffff167fc3d58168c5ae7397731d063d5bbf3d657854427343f4c083240f7aacaa2d0f6289896040516123e8929190614c8d565b60405180910390a46123ff836000898585896129fc565b61240e83600089898989612d2c565b50505050505050565b806007600084815260200190815260200160002060000160006101000a81548173ffffffffffffffffffffffffffffffffffffffff021916908373ffffffffffffffffffffffffffffffffffffffff1602179055505050565b8060076000848152602001908152602001600020600101819055505050565b60088160405161249f9190614d79565b9081526020016040518091039020829080600181540180825580915050600190039060005260206000200160009091909190915055806007600084815260200190815260200160002060030190805190602001906124fe92919061334b565b505050565b8060076000848152602001908152602001600020600201908051906020019061252d92919061334b565b505050565b61257333308373da10009cbd5d07dd0cecc66161fc93d7c9000da173ffffffffffffffffffffffffffffffffffffffff1661276c909392919063ffffffff16565b60008061258088846127f5565b915091508773ffffffffffffffffffffffffffffffffffffffff163373ffffffffffffffffffffffffffffffffffffffff167f6409fc516d44db7943e14a95632f09a9cec5c91f1dc7a01f2fd5496125ef2085898989898989896040516125ed97969594939291906148cc565b60405180910390a35050505050505050565b8173ffffffffffffffffffffffffffffffffffffffff168373ffffffffffffffffffffffffffffffffffffffff16141561266e576040517f08c379a000000000000000000000000000000000000000000000000000000000815260040161266590614e02565b60405180910390fd5b80600260008573ffffffffffffffffffffffffffffffffffffffff1673ffffffffffffffffffffffffffffffffffffffff16815260200190815260200160002060008473ffffffffffffffffffffffffffffffffffffffff1673ffffffffffffffffffffffffffffffffffffffff16815260200190815260200160002060006101000a81548160ff0219169083151502179055508173ffffffffffffffffffffffffffffffffffffffff168373ffffffffffffffffffffffffffffffffffffffff167f17307eab39ab6107e8899845ad3d59bd9653f200f220920489ca2b5937696c318360405161275f91906135d8565b60405180910390a3505050565b6127ef846323b872dd60e01b85858560405160240161278d93929190614e22565b604051602081830303815290604052907bffffffffffffffffffffffffffffffffffffffffffffffffffffffff19166020820180517bffffffffffffffffffffffffffffffffffffffffffffffffffffffff8381831617835250505050612beb565b50505050565b600080600083141561280d5782600091509150612965565b6000600554141561287a5782600660008673ffffffffffffffffffffffffffffffffffffffff1673ffffffffffffffffffffffffffffffffffffffff168152602001908152602001600020600082825461286791906147e6565b9250508190555082600091509150612965565b60006005546103e88561288d9190614e88565b6128979190614eb9565b9050600081856128a79190614f13565b905081600660006128b6611212565b73ffffffffffffffffffffffffffffffffffffffff1673ffffffffffffffffffffffffffffffffffffffff16815260200190815260200160002060008282546128ff91906147e6565b9250508190555080600660008873ffffffffffffffffffffffffffffffffffffffff1673ffffffffffffffffffffffffffffffffffffffff168152602001908152602001600020600082825461295591906147e6565b9250508190555080829350935050505b9250929050565b60007f4e2312e0000000000000000000000000000000000000000000000000000000007bffffffffffffffffffffffffffffffffffffffffffffffffffffffff1916827bffffffffffffffffffffffffffffffffffffffffffffffffffffffff191614806129df57506129de82612f13565b5b9050919050565b6129f4868686868686612f7d565b505050505050565b505050505050565b612a238473ffffffffffffffffffffffffffffffffffffffff1661314f565b15612be3578373ffffffffffffffffffffffffffffffffffffffff1663bc197c8187878686866040518663ffffffff1660e01b8152600401612a69959493929190614f9c565b602060405180830381600087803b158015612a8357600080fd5b505af1925050508015612ab457506040513d601f19601f82011682018060405250810190612ab19190615019565b60015b612b5a57612ac0615053565b806308c379a01415612b1d5750612ad5615075565b80612ae05750612b1f565b806040517f08c379a0000000000000000000000000000000000000000000000000000000008152600401612b1491906136b9565b60405180910390fd5b505b6040517f08c379a0000000000000000000000000000000000000000000000000000000008152600401612b519061517d565b60405180910390fd5b63bc197c8160e01b7bffffffffffffffffffffffffffffffffffffffffffffffffffffffff1916817bffffffffffffffffffffffffffffffffffffffffffffffffffffffff191614612be1576040517f08c379a0000000000000000000000000000000000000000000000000000000008152600401612bd89061520f565b60405180910390fd5b505b505050505050565b6000612c4d826040518060400160405280602081526020017f5361666545524332303a206c6f772d6c6576656c2063616c6c206661696c65648152508573ffffffffffffffffffffffffffffffffffffffff166131729092919063ffffffff16565b9050600081511115612cad5780806020019051810190612c6d9190615244565b612cac576040517f08c379a0000000000000000000000000000000000000000000000000000000008152600401612ca3906152e3565b60405180910390fd5b5b505050565b60606000600167ffffffffffffffff811115612cd157612cd0613a1c565b5b604051908082528060200260200182016040528015612cff5781602001602082028036833780820191505090505b5090508281600081518110612d1757612d1661447a565b5b60200260200101818152505080915050919050565b612d4b8473ffffffffffffffffffffffffffffffffffffffff1661314f565b15612f0b578373ffffffffffffffffffffffffffffffffffffffff1663f23a6e6187878686866040518663ffffffff1660e01b8152600401612d91959493929190615303565b602060405180830381600087803b158015612dab57600080fd5b505af1925050508015612ddc57506040513d601f19601f82011682018060405250810190612dd99190615019565b60015b612e8257612de8615053565b806308c379a01415612e455750612dfd615075565b80612e085750612e47565b806040517f08c379a0000000000000000000000000000000000000000000000000000000008152600401612e3c91906136b9565b60405180910390fd5b505b6040517f08c379a0000000000000000000000000000000000000000000000000000000008152600401612e799061517d565b60405180910390fd5b63f23a6e6160e01b7bffffffffffffffffffffffffffffffffffffffffffffffffffffffff1916817bffffffffffffffffffffffffffffffffffffffffffffffffffffffff191614612f09576040517f08c379a0000000000000000000000000000000000000000000000000000000008152600401612f009061520f565b60405180910390fd5b505b505050505050565b60007f01ffc9a7000000000000000000000000000000000000000000000000000000007bffffffffffffffffffffffffffffffffffffffffffffffffffffffff1916827bffffffffffffffffffffffffffffffffffffffffffffffffffffffff1916149050919050565b612f8b86868686868661318a565b600073ffffffffffffffffffffffffffffffffffffffff168573ffffffffffffffffffffffffffffffffffffffff16141561303d5760005b835181101561303b57828181518110612fdf57612fde61447a565b5b602002602001015160046000868481518110612ffe57612ffd61447a565b5b60200260200101518152602001908152602001600020600082825461302391906147e6565b9250508190555080613034906144d8565b9050612fc3565b505b600073ffffffffffffffffffffffffffffffffffffffff168473ffffffffffffffffffffffffffffffffffffffff1614156131475760005b83518110156131455760008482815181106130935761309261447a565b5b6020026020010151905060008483815181106130b2576130b161447a565b5b6020026020010151905060006004600084815260200190815260200160002054905081811015613117576040517f08c379a000000000000000000000000000000000000000000000000000000000815260040161310e906153cf565b60405180910390fd5b81810360046000858152602001908152602001600020819055505050508061313e906144d8565b9050613075565b505b505050505050565b6000808273ffffffffffffffffffffffffffffffffffffffff163b119050919050565b60606131818484600085613192565b90509392505050565b505050505050565b6060824710156131d7576040517f08c379a00000000000000000000000000000000000000000000000000000000081526004016131ce90615461565b60405180910390fd5b6131e08561314f565b61321f576040517f08c379a0000000000000000000000000000000000000000000000000000000008152600401613216906154cd565b60405180910390fd5b6000808673ffffffffffffffffffffffffffffffffffffffff1685876040516132489190615529565b60006040518083038185875af1925050503d8060008114613285576040519150601f19603f3d011682016040523d82523d6000602084013e61328a565b606091505b509150915061329a8282866132a6565b92505050949350505050565b606083156132b657829050613306565b6000835111156132c95782518084602001fd5b816040517f08c379a00000000000000000000000000000000000000000000000000000000081526004016132fd91906136b9565b60405180910390fd5b9392505050565b6040518060800160405280600073ffffffffffffffffffffffffffffffffffffffff1681526020016000815260200160608152602001606081525090565b828054613357906143ff565b90600052602060002090601f01602090048101928261337957600085556133c0565b82601f1061339257805160ff19168380011785556133c0565b828001600101855582156133c0579182015b828111156133bf5782518255916020019190600101906133a4565b5b5090506133cd91906133d1565b5090565b5b808211156133ea5760008160009055506001016133d2565b5090565b600073ffffffffffffffffffffffffffffffffffffffff82169050919050565b6000613419826133ee565b9050919050565b6134298161340e565b82525050565b6000819050919050565b6134428161342f565b82525050565b600060408201905061345d6000830185613420565b61346a6020830184613439565b9392505050565b6000604051905090565b600080fd5b600080fd5b61348e8161340e565b811461349957600080fd5b50565b6000813590506134ab81613485565b92915050565b6134ba8161342f565b81146134c557600080fd5b50565b6000813590506134d7816134b1565b92915050565b600080604083850312156134f4576134f361347b565b5b60006135028582860161349c565b9250506020613513858286016134c8565b9150509250929050565b60006020820190506135326000830184613439565b92915050565b60007fffffffff0000000000000000000000000000000000000000000000000000000082169050919050565b61356d81613538565b811461357857600080fd5b50565b60008135905061358a81613564565b92915050565b6000602082840312156135a6576135a561347b565b5b60006135b48482850161357b565b91505092915050565b60008115159050919050565b6135d2816135bd565b82525050565b60006020820190506135ed60008301846135c9565b92915050565b6000602082840312156136095761360861347b565b5b6000613617848285016134c8565b91505092915050565b600081519050919050565b600082825260208201905092915050565b60005b8381101561365a57808201518184015260208101905061363f565b83811115613669576000848401525b50505050565b6000601f19601f8301169050919050565b600061368b82613620565b613695818561362b565b93506136a581856020860161363c565b6136ae8161366f565b840191505092915050565b600060208201905081810360008301526136d38184613680565b905092915050565b600080fd5b600080fd5b600080fd5b60008083601f840112613700576136ff6136db565b5b8235905067ffffffffffffffff81111561371d5761371c6136e0565b5b602083019150836001820283011115613739576137386136e5565b5b9250929050565b600080602083850312156137575761375661347b565b5b600083013567ffffffffffffffff81111561377557613774613480565b5b613781858286016136ea565b92509250509250929050565b600081519050919050565b600082825260208201905092915050565b6000819050602082019050919050565b6137c28161342f565b82525050565b60006137d483836137b9565b60208301905092915050565b6000602082019050919050565b60006137f88261378d565b6138028185613798565b935061380d836137a9565b8060005b8381101561383e57815161382588826137c8565b9750613830836137e0565b925050600181019050613811565b5085935050505092915050565b600081519050919050565b600082825260208201905092915050565b6000819050602082019050919050565b6138808161340e565b82525050565b600082825260208201905092915050565b60006138a282613620565b6138ac8185613886565b93506138bc81856020860161363c565b6138c58161366f565b840191505092915050565b60006080830160008301516138e86000860182613877565b5060208301516138fb60208601826137b9565b50604083015184820360408601526139138282613897565b9150506060830151848203606086015261392d8282613897565b9150508091505092915050565b600061394683836138d0565b905092915050565b6000602082019050919050565b60006139668261384b565b6139708185613856565b93508360208202850161398285613867565b8060005b858110156139be578484038952815161399f858261393a565b94506139aa8361394e565b925060208a01995050600181019050613986565b50829750879550505050505092915050565b600060608201905081810360008301526139ea81866137ed565b905081810360208301526139fe818561395b565b90508181036040830152613a1281846137ed565b9050949350505050565b7f4e487b7100000000000000000000000000000000000000000000000000000000600052604160045260246000fd5b613a548261366f565b810181811067ffffffffffffffff82111715613a7357613a72613a1c565b5b80604052505050565b6000613a86613471565b9050613a928282613a4b565b919050565b600067ffffffffffffffff821115613ab257613ab1613a1c565b5b602082029050602081019050919050565b6000613ad6613ad184613a97565b613a7c565b90508083825260208201905060208402830185811115613af957613af86136e5565b5b835b81811015613b225780613b0e88826134c8565b845260208401935050602081019050613afb565b5050509392505050565b600082601f830112613b4157613b406136db565b5b8135613b51848260208601613ac3565b91505092915050565b600080fd5b600067ffffffffffffffff821115613b7a57613b79613a1c565b5b613b838261366f565b9050602081019050919050565b82818337600083830152505050565b6000613bb2613bad84613b5f565b613a7c565b905082815260208101848484011115613bce57613bcd613b5a565b5b613bd9848285613b90565b509392505050565b600082601f830112613bf657613bf56136db565b5b8135613c06848260208601613b9f565b91505092915050565b600080600080600060a08688031215613c2b57613c2a61347b565b5b6000613c398882890161349c565b9550506020613c4a8882890161349c565b945050604086013567ffffffffffffffff811115613c6b57613c6a613480565b5b613c7788828901613b2c565b935050606086013567ffffffffffffffff811115613c9857613c97613480565b5b613ca488828901613b2c565b925050608086013567ffffffffffffffff811115613cc557613cc4613480565b5b613cd188828901613be1565b9150509295509295909350565b600067ffffffffffffffff821115613cf957613cf8613a1c565b5b602082029050602081019050919050565b6000613d1d613d1884613cde565b613a7c565b90508083825260208201905060208402830185811115613d4057613d3f6136e5565b5b835b81811015613d695780613d55888261349c565b845260208401935050602081019050613d42565b5050509392505050565b600082601f830112613d8857613d876136db565b5b8135613d98848260208601613d0a565b91505092915050565b60008060408385031215613db857613db761347b565b5b600083013567ffffffffffffffff811115613dd657613dd5613480565b5b613de285828601613d73565b925050602083013567ffffffffffffffff811115613e0357613e02613480565b5b613e0f85828601613b2c565b9150509250929050565b60006020820190508181036000830152613e3381846137ed565b905092915050565b600080600080600060808688031215613e5757613e5661347b565b5b6000613e658882890161349c565b9550506020613e76888289016134c8565b945050604086013567ffffffffffffffff811115613e9757613e96613480565b5b613ea3888289016136ea565b93509350506060613eb6888289016134c8565b9150509295509295909350565b60008060008060008060808789031215613ee057613edf61347b565b5b6000613eee89828a016134c8565b9650506020613eff89828a016134c8565b955050604087013567ffffffffffffffff811115613f2057613f1f613480565b5b613f2c89828a016136ea565b9450945050606087013567ffffffffffffffff811115613f4f57613f4e613480565b5b613f5b89828a016136ea565b92509250509295509295509295565b600080600080600080600060a0888a031215613f8957613f8861347b565b5b6000613f978a828b0161349c565b975050602088013567ffffffffffffffff811115613fb857613fb7613480565b5b613fc48a828b016136ea565b9650965050604088013567ffffffffffffffff811115613fe757613fe6613480565b5b613ff38a828b016136ea565b945094505060606140068a828b016134c8565b92505060806140178a828b016134c8565b91505092959891949750929550565b600060208201905061403b6000830184613420565b92915050565b61404a816135bd565b811461405557600080fd5b50565b60008135905061406781614041565b92915050565b600080604083850312156140845761408361347b565b5b60006140928582860161349c565b92505060206140a385828601614058565b9150509250929050565b60006080830160008301516140c56000860182613877565b5060208301516140d860208601826137b9565b50604083015184820360408601526140f08282613897565b9150506060830151848203606086015261410a8282613897565b9150508091505092915050565b6000602082019050818103600083015261413181846140ad565b905092915050565b60008083601f84011261414f5761414e6136db565b5b8235905067ffffffffffffffff81111561416c5761416b6136e0565b5b602083019150836020820283011115614188576141876136e5565b5b9250929050565b600080600080604085870312156141a9576141a861347b565b5b600085013567ffffffffffffffff8111156141c7576141c6613480565b5b6141d387828801614139565b9450945050602085013567ffffffffffffffff8111156141f6576141f5613480565b5b614202878288016136ea565b925092505092959194509250565b61421981613538565b82525050565b60006020820190506142346000830184614210565b92915050565b600080604083850312156142515761425061347b565b5b600061425f8582860161349c565b92505060206142708582860161349c565b9150509250929050565b600080600080600060a086880312156142965761429561347b565b5b60006142a48882890161349c565b95505060206142b58882890161349c565b94505060406142c6888289016134c8565b93505060606142d7888289016134c8565b925050608086013567ffffffffffffffff8111156142f8576142f7613480565b5b61430488828901613be1565b9150509295509295909350565b6000602082840312156143275761432661347b565b5b60006143358482850161349c565b91505092915050565b7f455243313135353a2061646472657373207a65726f206973206e6f742061207660008201527f616c6964206f776e657200000000000000000000000000000000000000000000602082015250565b600061439a602a8361362b565b91506143a58261433e565b604082019050919050565b600060208201905081810360008301526143c98161438d565b9050919050565b7f4e487b7100000000000000000000000000000000000000000000000000000000600052602260045260246000fd5b6000600282049050600182168061441757607f821691505b6020821081141561442b5761442a6143d0565b5b50919050565b600081905092915050565b60006144488385614431565b9350614455838584613b90565b82840190509392505050565b600061446e82848661443c565b91508190509392505050565b7f4e487b7100000000000000000000000000000000000000000000000000000000600052603260045260246000fd5b7f4e487b7100000000000000000000000000000000000000000000000000000000600052601160045260246000fd5b60006144e38261342f565b91507fffffffffffffffffffffffffffffffffffffffffffffffffffffffffffffffff821415614516576145156144a9565b5b600182019050919050565b7f455243313135353a2063616c6c6572206973206e6f7420746f6b656e206f776e60008201527f6572206e6f7220617070726f7665640000000000000000000000000000000000602082015250565b600061457d602f8361362b565b915061458882614521565b604082019050919050565b600060208201905081810360008301526145ac81614570565b9050919050565b7f455243313135353a206163636f756e747320616e6420696473206c656e67746860008201527f206d69736d617463680000000000000000000000000000000000000000000000602082015250565b600061460f60298361362b565b915061461a826145b3565b604082019050919050565b6000602082019050818103600083015261463e81614602565b9050919050565b7f4e6f7468696e6720746f20636c61696d2e000000000000000000000000000000600082015250565b600061467b60118361362b565b915061468682614645565b602082019050919050565b600060208201905081810360008301526146aa8161466e565b9050919050565b7f546869732047726964466972652045646974696f6e20697320736f6c64206f7560008201527f742e000000000000000000000000000000000000000000000000000000000000602082015250565b600061470d60228361362b565b9150614718826146b1565b604082019050919050565b6000602082019050818103600083015261473c81614700565b9050919050565b600080fd5b600080fd5b600080fd5b60008235600160800383360303811261476e5761476d614743565b5b80830191505092915050565b7f5061796d656e7420616d6f756e7420746f6f206c6f772e000000000000000000600082015250565b60006147b060178361362b565b91506147bb8261477a565b602082019050919050565b600060208201905081810360008301526147df816147a3565b9050919050565b60006147f18261342f565b91506147fc8361342f565b9250827fffffffffffffffffffffffffffffffffffffffffffffffffffffffffffffffff03821115614831576148306144a9565b5b828201905092915050565b6000808335600160200384360303811261485957614858614743565b5b80840192508235915067ffffffffffffffff82111561487b5761487a614748565b5b6020830192506001820236038313156148975761489661474d565b5b509250929050565b60006148ab838561362b565b93506148b8838584613b90565b6148c18361366f565b840190509392505050565b600060a08201905081810360008301526148e781898b61489f565b905081810360208301526148fc81878961489f565b905061490b6040830186613439565b6149186060830185613439565b6149256080830184613439565b98975050505050505050565b7f4f776e61626c653a206e6577206f776e657220697320746865207a65726f206160008201527f6464726573730000000000000000000000000000000000000000000000000000602082015250565b600061498d60268361362b565b915061499882614931565b604082019050919050565b600060208201905081810360008301526149bc81614980565b9050919050565b7f455243313135353a2069647320616e6420616d6f756e7473206c656e6774682060008201527f6d69736d61746368000000000000000000000000000000000000000000000000602082015250565b6000614a1f60288361362b565b9150614a2a826149c3565b604082019050919050565b60006020820190508181036000830152614a4e81614a12565b9050919050565b7f455243313135353a207472616e7366657220746f20746865207a65726f20616460008201527f6472657373000000000000000000000000000000000000000000000000000000602082015250565b6000614ab160258361362b565b9150614abc82614a55565b604082019050919050565b60006020820190508181036000830152614ae081614aa4565b9050919050565b7f455243313135353a20696e73756666696369656e742062616c616e636520666f60008201527f72207472616e7366657200000000000000000000000000000000000000000000602082015250565b6000614b43602a8361362b565b9150614b4e82614ae7565b604082019050919050565b60006020820190508181036000830152614b7281614b36565b9050919050565b60006040820190508181036000830152614b9381856137ed565b90508181036020830152614ba781846137ed565b90509392505050565b7f4f776e61626c653a2063616c6c6572206973206e6f7420746865206f776e6572600082015250565b6000614be660208361362b565b9150614bf182614bb0565b602082019050919050565b60006020820190508181036000830152614c1581614bd9565b9050919050565b600060c0820190508181036000830152614c36818a613680565b90508181036020830152614c4b81888a61489f565b9050614c5a6040830187613439565b614c676060830186613439565b614c746080830185613439565b614c8160a0830184613439565b98975050505050505050565b6000604082019050614ca26000830185613439565b614caf6020830184613439565b9392505050565b7f455243313135353a206d696e7420746f20746865207a65726f2061646472657360008201527f7300000000000000000000000000000000000000000000000000000000000000602082015250565b6000614d1260218361362b565b9150614d1d82614cb6565b604082019050919050565b60006020820190508181036000830152614d4181614d05565b9050919050565b6000614d5382613620565b614d5d8185614431565b9350614d6d81856020860161363c565b80840191505092915050565b6000614d858284614d48565b915081905092915050565b7f455243313135353a2073657474696e6720617070726f76616c2073746174757360008201527f20666f722073656c660000000000000000000000000000000000000000000000602082015250565b6000614dec60298361362b565b9150614df782614d90565b604082019050919050565b60006020820190508181036000830152614e1b81614ddf565b9050919050565b6000606082019050614e376000830186613420565b614e446020830185613420565b614e516040830184613439565b949350505050565b7f4e487b7100000000000000000000000000000000000000000000000000000000600052601260045260246000fd5b6000614e938261342f565b9150614e9e8361342f565b925082614eae57614ead614e59565b5b828204905092915050565b6000614ec48261342f565b9150614ecf8361342f565b9250817fffffffffffffffffffffffffffffffffffffffffffffffffffffffffffffffff0483118215151615614f0857614f076144a9565b5b828202905092915050565b6000614f1e8261342f565b9150614f298361342f565b925082821015614f3c57614f3b6144a9565b5b828203905092915050565b600081519050919050565b600082825260208201905092915050565b6000614f6e82614f47565b614f788185614f52565b9350614f8881856020860161363c565b614f918161366f565b840191505092915050565b600060a082019050614fb16000830188613420565b614fbe6020830187613420565b8181036040830152614fd081866137ed565b90508181036060830152614fe481856137ed565b90508181036080830152614ff88184614f63565b90509695505050505050565b60008151905061501381613564565b92915050565b60006020828403121561502f5761502e61347b565b5b600061503d84828501615004565b91505092915050565b60008160e01c9050919050565b600060033d11156150725760046000803e61506f600051615046565b90505b90565b600060443d101561508557615108565b61508d613471565b60043d036004823e80513d602482011167ffffffffffffffff821117156150b5575050615108565b808201805167ffffffffffffffff8111156150d35750505050615108565b80602083010160043d0385018111156150f0575050505050615108565b6150ff82602001850186613a4b565b82955050505050505b90565b7f455243313135353a207472616e7366657220746f206e6f6e204552433131353560008201527f526563656976657220696d706c656d656e746572000000000000000000000000602082015250565b600061516760348361362b565b91506151728261510b565b604082019050919050565b600060208201905081810360008301526151968161515a565b9050919050565b7f455243313135353a204552433131353552656365697665722072656a6563746560008201527f6420746f6b656e73000000000000000000000000000000000000000000000000602082015250565b60006151f960288361362b565b91506152048261519d565b604082019050919050565b60006020820190508181036000830152615228816151ec565b9050919050565b60008151905061523e81614041565b92915050565b60006020828403121561525a5761525961347b565b5b60006152688482850161522f565b91505092915050565b7f5361666545524332303a204552433230206f7065726174696f6e20646964206e60008201527f6f74207375636365656400000000000000000000000000000000000000000000602082015250565b60006152cd602a8361362b565b91506152d882615271565b604082019050919050565b600060208201905081810360008301526152fc816152c0565b9050919050565b600060a0820190506153186000830188613420565b6153256020830187613420565b6153326040830186613439565b61533f6060830185613439565b81810360808301526153518184614f63565b90509695505050505050565b7f455243313135353a206275726e20616d6f756e74206578636565647320746f7460008201527f616c537570706c79000000000000000000000000000000000000000000000000602082015250565b60006153b960288361362b565b91506153c48261535d565b604082019050919050565b600060208201905081810360008301526153e8816153ac565b9050919050565b7f416464726573733a20696e73756666696369656e742062616c616e636520666f60008201527f722063616c6c0000000000000000000000000000000000000000000000000000602082015250565b600061544b60268361362b565b9150615456826153ef565b604082019050919050565b6000602082019050818103600083015261547a8161543e565b9050919050565b7f416464726573733a2063616c6c20746f206e6f6e2d636f6e7472616374000000600082015250565b60006154b7601d8361362b565b91506154c282615481565b602082019050919050565b600060208201905081810360008301526154e6816154aa565b9050919050565b600081905092915050565b600061550382614f47565b61550d81856154ed565b935061551d81856020860161363c565b80840191505092915050565b600061553582846154f8565b91508190509291505056fea26469706673582212206d538b1af70e53c87fc0dfd4ab14c6840084b6fce05ded6f2010f52a19bfc9af64736f6c63430008090033",
  "linkReferences": {},
  "deployedLinkReferences": {}
}