{
  "_format": "hh-sol-artifact-1",
  "contractName": "GridFirePayment",
  "sourceName": "contracts/GridFirePayment.sol",
  "abi": [
    {
      "anonymous": false,
      "inputs": [
        {
          "indexed": true,
          "internalType": "address",
          "name": "buyer",
          "type": "address"
        },
        {
          "indexed": false,
          "internalType": "uint256",
          "name": "amount",
          "type": "uint256"
        }
      ],
      "name": "Checkout",
      "type": "event"
    },
    {
      "anonymous": false,
      "inputs": [
        {
          "indexed": true,
          "internalType": "address",
          "name": "artist",
          "type": "address"
        },
        {
          "indexed": false,
          "internalType": "uint256",
          "name": "amount",
          "type": "uint256"
        }
      ],
      "name": "Claim",
      "type": "event"
    },
    {
      "anonymous": false,
      "inputs": [
        {
          "indexed": true,
          "internalType": "address",
          "name": "previousOwner",
          "type": "address"
        },
        {
          "indexed": true,
          "internalType": "address",
          "name": "newOwner",
          "type": "address"
        }
      ],
      "name": "OwnershipTransferred",
      "type": "event"
    },
    {
      "anonymous": false,
      "inputs": [
        {
          "indexed": true,
          "internalType": "address",
          "name": "buyer",
          "type": "address"
        },
        {
          "indexed": true,
          "internalType": "address",
          "name": "artist",
          "type": "address"
        },
        {
          "indexed": false,
          "internalType": "string",
          "name": "id",
          "type": "string"
        },
        {
          "indexed": false,
          "internalType": "uint256",
          "name": "amount",
          "type": "uint256"
        },
        {
          "indexed": false,
          "internalType": "uint256",
          "name": "fee",
          "type": "uint256"
        }
      ],
      "name": "Purchase",
      "type": "event"
    },
    {
      "anonymous": false,
      "inputs": [
        {
          "indexed": false,
          "internalType": "address",
          "name": "from",
          "type": "address"
        },
        {
          "indexed": false,
          "internalType": "uint256",
          "name": "amount",
          "type": "uint256"
        }
      ],
      "name": "Received",
      "type": "event"
    },
    {
      "inputs": [
        {
          "components": [
            {
              "internalType": "address",
              "name": "artist",
              "type": "address"
            },
            {
              "internalType": "uint256",
              "name": "amountPaid",
              "type": "uint256"
            },
            {
              "internalType": "string",
              "name": "id",
              "type": "string"
            },
            {
              "internalType": "uint256",
              "name": "releasePrice",
              "type": "uint256"
            }
          ],
          "internalType": "struct GridFirePayment.BasketItem[]",
          "name": "basket",
          "type": "tuple[]"
        }
      ],
      "name": "checkout",
      "outputs": [],
      "stateMutability": "nonpayable",
      "type": "function"
    },
    {
      "inputs": [],
      "name": "claim",
      "outputs": [],
      "stateMutability": "nonpayable",
      "type": "function"
    },
    {
      "inputs": [
        {
          "internalType": "address",
          "name": "artist",
          "type": "address"
        }
      ],
      "name": "getBalance",
      "outputs": [
        {
          "internalType": "uint256",
          "name": "",
          "type": "uint256"
        }
      ],
      "stateMutability": "view",
      "type": "function"
    },
    {
      "inputs": [],
      "name": "getServiceFee",
      "outputs": [
        {
          "internalType": "uint256",
          "name": "",
          "type": "uint256"
        }
      ],
      "stateMutability": "view",
      "type": "function"
    },
    {
      "inputs": [],
      "name": "owner",
      "outputs": [
        {
          "internalType": "address",
          "name": "",
          "type": "address"
        }
      ],
      "stateMutability": "view",
      "type": "function"
    },
    {
      "inputs": [
        {
          "internalType": "address",
          "name": "artist",
          "type": "address"
        },
        {
          "internalType": "string",
          "name": "id",
          "type": "string"
        },
        {
          "internalType": "uint256",
          "name": "amountPaid",
          "type": "uint256"
        },
        {
          "internalType": "uint256",
          "name": "releasePrice",
          "type": "uint256"
        }
      ],
      "name": "purchase",
      "outputs": [],
      "stateMutability": "nonpayable",
      "type": "function"
    },
    {
      "inputs": [],
      "name": "renounceOwnership",
      "outputs": [],
      "stateMutability": "nonpayable",
      "type": "function"
    },
    {
      "inputs": [
        {
          "internalType": "uint256",
          "name": "newServiceFee",
          "type": "uint256"
        }
      ],
      "name": "setServiceFee",
      "outputs": [],
      "stateMutability": "nonpayable",
      "type": "function"
    },
    {
      "inputs": [
        {
          "internalType": "address",
          "name": "newOwner",
          "type": "address"
        }
      ],
      "name": "transferOwnership",
      "outputs": [],
      "stateMutability": "nonpayable",
      "type": "function"
    },
    {
      "inputs": [],
      "name": "withdraw",
      "outputs": [],
      "stateMutability": "nonpayable",
      "type": "function"
    },
    {
      "stateMutability": "payable",
      "type": "receive"
    }
  ],
  "bytecode": "0x6080604052603260015573da10009cbd5d07dd0cecc66161fc93d7c9000da1600360006101000a81548173ffffffffffffffffffffffffffffffffffffffff021916908373ffffffffffffffffffffffffffffffffffffffff16021790555034801561006a57600080fd5b5061008761007c61008c60201b60201c565b61009460201b60201c565b610158565b600033905090565b60008060009054906101000a900473ffffffffffffffffffffffffffffffffffffffff169050816000806101000a81548173ffffffffffffffffffffffffffffffffffffffff021916908373ffffffffffffffffffffffffffffffffffffffff1602179055508173ffffffffffffffffffffffffffffffffffffffff168173ffffffffffffffffffffffffffffffffffffffff167f8be0079c531659141344cd1fd0a4f28419497f9722a3daafe3b4186f6b6457e060405160405180910390a35050565b611be6806101676000396000f3fe6080604052600436106100955760003560e01c8063715018a611610059578063715018a6146101855780638da5cb5b1461019c578063b78aa416146101c7578063f2fde38b146101f0578063f8b2cb4f14610219576100d5565b80630727a8ca146100da57806311a1933c146101035780633ccfd60b1461012e5780634e71d92d146101455780635cdf76f81461015c576100d5565b366100d5577f88a5966d370b9919b20f3e2c13ff65706f196a4e32cc2c12bf57088f8852587433346040516100cb9291906110ea565b60405180910390a1005b600080fd5b3480156100e657600080fd5b5061010160048036038101906100fc9190611182565b610256565b005b34801561010f57600080fd5b5061011861050f565b60405161012591906111cf565b60405180910390f35b34801561013a57600080fd5b50610143610519565b005b34801561015157600080fd5b5061015a6105de565b005b34801561016857600080fd5b50610183600480360381019061017e9190611216565b610748565b005b34801561019157600080fd5b5061019a6107dc565b005b3480156101a857600080fd5b506101b1610864565b6040516101be9190611243565b60405180910390f35b3480156101d357600080fd5b506101ee60048036038101906101e991906112e0565b61088d565b005b3480156101fc57600080fd5b5061021760048036038101906102129190611368565b6108ba565b005b34801561022557600080fd5b50610240600480360381019061023b9190611368565b6109b1565b60405161024d91906111cf565b60405180910390f35b6000805b8383905081101561031757600084848381811061027a57610279611395565b5b905060200281019061028c91906113d3565b60200135905060008585848181106102a7576102a6611395565b5b90506020028101906102b991906113d3565b60600135905080821015610302576040517f08c379a00000000000000000000000000000000000000000000000000000000081526004016102f990611458565b60405180910390fd5b5050808061030f906114a7565b91505061025a565b5060005b8383905081101561046c57600084848381811061033b5761033a611395565b5b905060200281019061034d91906113d3565b600001602081019061035f9190611368565b9050600085858481811061037657610375611395565b5b905060200281019061038891906113d3565b6020013590503660008787868181106103a4576103a3611395565b5b90506020028101906103b691906113d3565b80604001906103c591906114ef565b9150915082866103d59190611552565b95506000806103e486866109fa565b915091508573ffffffffffffffffffffffffffffffffffffffff163373ffffffffffffffffffffffffffffffffffffffff167f07b7f01426aa6643fafada4ee6bf07fed2e8e333c5a14e6a7d8f471b9f23fdbf8686868660405161044b94939291906115f5565b60405180910390a35050505050508080610464906114a7565b91505061031b565b506104bc333083600360009054906101000a900473ffffffffffffffffffffffffffffffffffffffff1673ffffffffffffffffffffffffffffffffffffffff16610b65909392919063ffffffff16565b3373ffffffffffffffffffffffffffffffffffffffff167f10190e7f174afbe5482194d509017e9df854671cd62fb4ef901fbd0080c1e6b68260405161050291906111cf565b60405180910390a2505050565b6000600154905090565b610521610bee565b73ffffffffffffffffffffffffffffffffffffffff1661053f610864565b73ffffffffffffffffffffffffffffffffffffffff1614610595576040517f08c379a000000000000000000000000000000000000000000000000000000000815260040161058c90611681565b60405180910390fd5b3373ffffffffffffffffffffffffffffffffffffffff166108fc479081150290604051600060405180830381858888f193505050501580156105db573d6000803e3d6000fd5b50565b6000600260003373ffffffffffffffffffffffffffffffffffffffff1673ffffffffffffffffffffffffffffffffffffffff16815260200190815260200160002054905060008103610665576040517f08c379a000000000000000000000000000000000000000000000000000000000815260040161065c906116ed565b60405180910390fd5b6000600260003373ffffffffffffffffffffffffffffffffffffffff1673ffffffffffffffffffffffffffffffffffffffff168152602001908152602001600020819055506106f73382600360009054906101000a900473ffffffffffffffffffffffffffffffffffffffff1673ffffffffffffffffffffffffffffffffffffffff16610bf69092919063ffffffff16565b3373ffffffffffffffffffffffffffffffffffffffff167f47cee97cb7acd717b3c0aa1435d004cd5b3c8c57d70dbceb4e4458bbd60e39d48260405161073d91906111cf565b60405180910390a250565b610750610bee565b73ffffffffffffffffffffffffffffffffffffffff1661076e610864565b73ffffffffffffffffffffffffffffffffffffffff16146107c4576040517f08c379a00000000000000000000000000000000000000000000000000000000081526004016107bb90611681565b60405180910390fd5b6103e881106107d257600080fd5b8060018190555050565b6107e4610bee565b73ffffffffffffffffffffffffffffffffffffffff16610802610864565b73ffffffffffffffffffffffffffffffffffffffff1614610858576040517f08c379a000000000000000000000000000000000000000000000000000000000815260040161084f90611681565b60405180910390fd5b6108626000610c7c565b565b60008060009054906101000a900473ffffffffffffffffffffffffffffffffffffffff16905090565b6000820361089a57600080fd5b808210156108a757600080fd5b6108b385858585610d40565b5050505050565b6108c2610bee565b73ffffffffffffffffffffffffffffffffffffffff166108e0610864565b73ffffffffffffffffffffffffffffffffffffffff1614610936576040517f08c379a000000000000000000000000000000000000000000000000000000000815260040161092d90611681565b60405180910390fd5b600073ffffffffffffffffffffffffffffffffffffffff168173ffffffffffffffffffffffffffffffffffffffff16036109a5576040517f08c379a000000000000000000000000000000000000000000000000000000000815260040161099c9061177f565b60405180910390fd5b6109ae81610c7c565b50565b6000600260008373ffffffffffffffffffffffffffffffffffffffff1673ffffffffffffffffffffffffffffffffffffffff168152602001908152602001600020549050919050565b6000806000808403610a125783819250925050610b5e565b600060015403610a775783600260008773ffffffffffffffffffffffffffffffffffffffff1673ffffffffffffffffffffffffffffffffffffffff1681526020019081526020016000206000828254610a6b9190611552565b92505081905550610b56565b6103e860015485610a88919061179f565b610a929190611828565b90508060026000610aa1610864565b73ffffffffffffffffffffffffffffffffffffffff1673ffffffffffffffffffffffffffffffffffffffff1681526020019081526020016000206000828254610aea9190611552565b925050819055508084610afd9190611859565b935083600260008773ffffffffffffffffffffffffffffffffffffffff1673ffffffffffffffffffffffffffffffffffffffff1681526020019081526020016000206000828254610b4e9190611552565b925050819055505b838192509250505b9250929050565b610be8846323b872dd60e01b858585604051602401610b869392919061188d565b604051602081830303815290604052907bffffffffffffffffffffffffffffffffffffffffffffffffffffffff19166020820180517bffffffffffffffffffffffffffffffffffffffffffffffffffffffff8381831617835250505050610e13565b50505050565b600033905090565b610c778363a9059cbb60e01b8484604051602401610c159291906110ea565b604051602081830303815290604052907bffffffffffffffffffffffffffffffffffffffffffffffffffffffff19166020820180517bffffffffffffffffffffffffffffffffffffffffffffffffffffffff8381831617835250505050610e13565b505050565b60008060009054906101000a900473ffffffffffffffffffffffffffffffffffffffff169050816000806101000a81548173ffffffffffffffffffffffffffffffffffffffff021916908373ffffffffffffffffffffffffffffffffffffffff1602179055508173ffffffffffffffffffffffffffffffffffffffff168173ffffffffffffffffffffffffffffffffffffffff167f8be0079c531659141344cd1fd0a4f28419497f9722a3daafe3b4186f6b6457e060405160405180910390a35050565b600080610d4d86846109fa565b91509150610da0333085600360009054906101000a900473ffffffffffffffffffffffffffffffffffffffff1673ffffffffffffffffffffffffffffffffffffffff16610b65909392919063ffffffff16565b8573ffffffffffffffffffffffffffffffffffffffff163373ffffffffffffffffffffffffffffffffffffffff167f07b7f01426aa6643fafada4ee6bf07fed2e8e333c5a14e6a7d8f471b9f23fdbf87878686604051610e0394939291906115f5565b60405180910390a3505050505050565b6000610e75826040518060400160405280602081526020017f5361666545524332303a206c6f772d6c6576656c2063616c6c206661696c65648152508573ffffffffffffffffffffffffffffffffffffffff16610eda9092919063ffffffff16565b9050600081511115610ed55780806020019051810190610e9591906118fc565b610ed4576040517f08c379a0000000000000000000000000000000000000000000000000000000008152600401610ecb9061199b565b60405180910390fd5b5b505050565b6060610ee98484600085610ef2565b90509392505050565b606082471015610f37576040517f08c379a0000000000000000000000000000000000000000000000000000000008152600401610f2e90611a2d565b60405180910390fd5b610f4085611006565b610f7f576040517f08c379a0000000000000000000000000000000000000000000000000000000008152600401610f7690611a99565b60405180910390fd5b6000808673ffffffffffffffffffffffffffffffffffffffff168587604051610fa89190611b33565b60006040518083038185875af1925050503d8060008114610fe5576040519150601f19603f3d011682016040523d82523d6000602084013e610fea565b606091505b5091509150610ffa828286611029565b92505050949350505050565b6000808273ffffffffffffffffffffffffffffffffffffffff163b119050919050565b6060831561103957829050611089565b60008351111561104c5782518084602001fd5b816040517f08c379a00000000000000000000000000000000000000000000000000000000081526004016110809190611b8e565b60405180910390fd5b9392505050565b600073ffffffffffffffffffffffffffffffffffffffff82169050919050565b60006110bb82611090565b9050919050565b6110cb816110b0565b82525050565b6000819050919050565b6110e4816110d1565b82525050565b60006040820190506110ff60008301856110c2565b61110c60208301846110db565b9392505050565b600080fd5b600080fd5b600080fd5b600080fd5b600080fd5b60008083601f8401126111425761114161111d565b5b8235905067ffffffffffffffff81111561115f5761115e611122565b5b60208301915083602082028301111561117b5761117a611127565b5b9250929050565b6000806020838503121561119957611198611113565b5b600083013567ffffffffffffffff8111156111b7576111b6611118565b5b6111c38582860161112c565b92509250509250929050565b60006020820190506111e460008301846110db565b92915050565b6111f3816110d1565b81146111fe57600080fd5b50565b600081359050611210816111ea565b92915050565b60006020828403121561122c5761122b611113565b5b600061123a84828501611201565b91505092915050565b600060208201905061125860008301846110c2565b92915050565b611267816110b0565b811461127257600080fd5b50565b6000813590506112848161125e565b92915050565b60008083601f8401126112a05761129f61111d565b5b8235905067ffffffffffffffff8111156112bd576112bc611122565b5b6020830191508360018202830111156112d9576112d8611127565b5b9250929050565b6000806000806000608086880312156112fc576112fb611113565b5b600061130a88828901611275565b955050602086013567ffffffffffffffff81111561132b5761132a611118565b5b6113378882890161128a565b9450945050604061134a88828901611201565b925050606061135b88828901611201565b9150509295509295909350565b60006020828403121561137e5761137d611113565b5b600061138c84828501611275565b91505092915050565b7f4e487b7100000000000000000000000000000000000000000000000000000000600052603260045260246000fd5b600080fd5b600080fd5b600080fd5b6000823560016080038336030381126113ef576113ee6113c4565b5b80830191505092915050565b600082825260208201905092915050565b7f5061796d656e7420616d6f756e7420746f6f206c6f772e000000000000000000600082015250565b60006114426017836113fb565b915061144d8261140c565b602082019050919050565b6000602082019050818103600083015261147181611435565b9050919050565b7f4e487b7100000000000000000000000000000000000000000000000000000000600052601160045260246000fd5b60006114b2826110d1565b91507fffffffffffffffffffffffffffffffffffffffffffffffffffffffffffffffff82036114e4576114e3611478565b5b600182019050919050565b6000808335600160200384360303811261150c5761150b6113c4565b5b80840192508235915067ffffffffffffffff82111561152e5761152d6113c9565b5b60208301925060018202360383131561154a576115496113ce565b5b509250929050565b600061155d826110d1565b9150611568836110d1565b9250827fffffffffffffffffffffffffffffffffffffffffffffffffffffffffffffffff0382111561159d5761159c611478565b5b828201905092915050565b82818337600083830152505050565b6000601f19601f8301169050919050565b60006115d483856113fb565b93506115e18385846115a8565b6115ea836115b7565b840190509392505050565b600060608201905081810360008301526116108186886115c8565b905061161f60208301856110db565b61162c60408301846110db565b95945050505050565b7f4f776e61626c653a2063616c6c6572206973206e6f7420746865206f776e6572600082015250565b600061166b6020836113fb565b915061167682611635565b602082019050919050565b6000602082019050818103600083015261169a8161165e565b9050919050565b7f4e6f7468696e6720746f20636c61696d2e000000000000000000000000000000600082015250565b60006116d76011836113fb565b91506116e2826116a1565b602082019050919050565b60006020820190508181036000830152611706816116ca565b9050919050565b7f4f776e61626c653a206e6577206f776e657220697320746865207a65726f206160008201527f6464726573730000000000000000000000000000000000000000000000000000602082015250565b60006117696026836113fb565b91506117748261170d565b604082019050919050565b600060208201905081810360008301526117988161175c565b9050919050565b60006117aa826110d1565b91506117b5836110d1565b9250817fffffffffffffffffffffffffffffffffffffffffffffffffffffffffffffffff04831182151516156117ee576117ed611478565b5b828202905092915050565b7f4e487b7100000000000000000000000000000000000000000000000000000000600052601260045260246000fd5b6000611833826110d1565b915061183e836110d1565b92508261184e5761184d6117f9565b5b828204905092915050565b6000611864826110d1565b915061186f836110d1565b92508282101561188257611881611478565b5b828203905092915050565b60006060820190506118a260008301866110c2565b6118af60208301856110c2565b6118bc60408301846110db565b949350505050565b60008115159050919050565b6118d9816118c4565b81146118e457600080fd5b50565b6000815190506118f6816118d0565b92915050565b60006020828403121561191257611911611113565b5b6000611920848285016118e7565b91505092915050565b7f5361666545524332303a204552433230206f7065726174696f6e20646964206e60008201527f6f74207375636365656400000000000000000000000000000000000000000000602082015250565b6000611985602a836113fb565b915061199082611929565b604082019050919050565b600060208201905081810360008301526119b481611978565b9050919050565b7f416464726573733a20696e73756666696369656e742062616c616e636520666f60008201527f722063616c6c0000000000000000000000000000000000000000000000000000602082015250565b6000611a176026836113fb565b9150611a22826119bb565b604082019050919050565b60006020820190508181036000830152611a4681611a0a565b9050919050565b7f416464726573733a2063616c6c20746f206e6f6e2d636f6e7472616374000000600082015250565b6000611a83601d836113fb565b9150611a8e82611a4d565b602082019050919050565b60006020820190508181036000830152611ab281611a76565b9050919050565b600081519050919050565b600081905092915050565b60005b83811015611aed578082015181840152602081019050611ad2565b83811115611afc576000848401525b50505050565b6000611b0d82611ab9565b611b178185611ac4565b9350611b27818560208601611acf565b80840191505092915050565b6000611b3f8284611b02565b915081905092915050565b600081519050919050565b6000611b6082611b4a565b611b6a81856113fb565b9350611b7a818560208601611acf565b611b83816115b7565b840191505092915050565b60006020820190508181036000830152611ba88184611b55565b90509291505056fea26469706673582212200f598c174995214dcba8ed5daeb8e798ebd82cfbfd73fe680d98130aabd9860c64736f6c634300080e0033",
  "linkReferences": {},
  "deployedLinkReferences": {}
}