{
  "_format": "hh-sol-artifact-1",
  "contractName": "GridFirePayment",
  "sourceName": "contracts/GridFirePayment.sol",
  "abi": [
    {
      "anonymous": false,
      "inputs": [
        {
          "indexed": true,
          "internalType": "address",
          "name": "buyer",
          "type": "address"
        },
        {
          "indexed": false,
          "internalType": "uint256",
          "name": "amount",
          "type": "uint256"
        }
      ],
      "name": "Checkout",
      "type": "event"
    },
    {
      "anonymous": false,
      "inputs": [
        {
          "indexed": true,
          "internalType": "address",
          "name": "artist",
          "type": "address"
        },
        {
          "indexed": false,
          "internalType": "uint256",
          "name": "amount",
          "type": "uint256"
        }
      ],
      "name": "Claim",
      "type": "event"
    },
    {
      "anonymous": false,
      "inputs": [
        {
          "indexed": true,
          "internalType": "address",
          "name": "previousOwner",
          "type": "address"
        },
        {
          "indexed": true,
          "internalType": "address",
          "name": "newOwner",
          "type": "address"
        }
      ],
      "name": "OwnershipTransferred",
      "type": "event"
    },
    {
      "anonymous": false,
      "inputs": [
        {
          "indexed": true,
          "internalType": "address",
          "name": "buyer",
          "type": "address"
        },
        {
          "indexed": true,
          "internalType": "address",
          "name": "artist",
          "type": "address"
        },
        {
          "indexed": false,
          "internalType": "string",
          "name": "id",
          "type": "string"
        },
        {
          "indexed": false,
          "internalType": "uint256",
          "name": "amount",
          "type": "uint256"
        },
        {
          "indexed": false,
          "internalType": "uint256",
          "name": "fee",
          "type": "uint256"
        }
      ],
      "name": "Purchase",
      "type": "event"
    },
    {
      "anonymous": false,
      "inputs": [
        {
          "indexed": false,
          "internalType": "address",
          "name": "from",
          "type": "address"
        },
        {
          "indexed": false,
          "internalType": "uint256",
          "name": "amount",
          "type": "uint256"
        }
      ],
      "name": "Received",
      "type": "event"
    },
    {
      "inputs": [
        {
          "components": [
            {
              "internalType": "address",
              "name": "artist",
              "type": "address"
            },
            {
              "internalType": "uint256",
              "name": "amountPaid",
              "type": "uint256"
            },
            {
              "internalType": "string",
              "name": "id",
              "type": "string"
            },
            {
              "internalType": "uint256",
              "name": "releasePrice",
              "type": "uint256"
            }
          ],
          "internalType": "struct GridFirePayment.BasketItem[]",
          "name": "basket",
          "type": "tuple[]"
        }
      ],
      "name": "checkout",
      "outputs": [],
      "stateMutability": "nonpayable",
      "type": "function"
    },
    {
      "inputs": [],
      "name": "claim",
      "outputs": [],
      "stateMutability": "nonpayable",
      "type": "function"
    },
    {
      "inputs": [
        {
          "internalType": "address",
          "name": "artist",
          "type": "address"
        }
      ],
      "name": "getBalance",
      "outputs": [
        {
          "internalType": "uint256",
          "name": "",
          "type": "uint256"
        }
      ],
      "stateMutability": "view",
      "type": "function"
    },
    {
      "inputs": [],
      "name": "getServiceFee",
      "outputs": [
        {
          "internalType": "uint256",
          "name": "",
          "type": "uint256"
        }
      ],
      "stateMutability": "view",
      "type": "function"
    },
    {
      "inputs": [],
      "name": "owner",
      "outputs": [
        {
          "internalType": "address",
          "name": "",
          "type": "address"
        }
      ],
      "stateMutability": "view",
      "type": "function"
    },
    {
      "inputs": [
        {
          "internalType": "address",
          "name": "artist",
          "type": "address"
        },
        {
          "internalType": "string",
          "name": "id",
          "type": "string"
        },
        {
          "internalType": "uint256",
          "name": "amountPaid",
          "type": "uint256"
        },
        {
          "internalType": "uint256",
          "name": "releasePrice",
          "type": "uint256"
        }
      ],
      "name": "purchase",
      "outputs": [],
      "stateMutability": "nonpayable",
      "type": "function"
    },
    {
      "inputs": [],
      "name": "renounceOwnership",
      "outputs": [],
      "stateMutability": "nonpayable",
      "type": "function"
    },
    {
      "inputs": [
        {
          "internalType": "uint256",
          "name": "newServiceFee",
          "type": "uint256"
        }
      ],
      "name": "setServiceFee",
      "outputs": [],
      "stateMutability": "nonpayable",
      "type": "function"
    },
    {
      "inputs": [
        {
          "internalType": "address",
          "name": "newOwner",
          "type": "address"
        }
      ],
      "name": "transferOwnership",
      "outputs": [],
      "stateMutability": "nonpayable",
      "type": "function"
    },
    {
      "inputs": [],
      "name": "withdraw",
      "outputs": [],
      "stateMutability": "nonpayable",
      "type": "function"
    },
    {
      "stateMutability": "payable",
      "type": "receive"
    }
  ],
  "bytecode": "0x6080604052603260015573da10009cbd5d07dd0cecc66161fc93d7c9000da1600360006101000a81548173ffffffffffffffffffffffffffffffffffffffff021916908373ffffffffffffffffffffffffffffffffffffffff16021790555034801561006a57600080fd5b5061008761007c61008c60201b60201c565b61009460201b60201c565b610158565b600033905090565b60008060009054906101000a900473ffffffffffffffffffffffffffffffffffffffff169050816000806101000a81548173ffffffffffffffffffffffffffffffffffffffff021916908373ffffffffffffffffffffffffffffffffffffffff1602179055508173ffffffffffffffffffffffffffffffffffffffff168173ffffffffffffffffffffffffffffffffffffffff167f8be0079c531659141344cd1fd0a4f28419497f9722a3daafe3b4186f6b6457e060405160405180910390a35050565b6116d1806101676000396000f3fe6080604052600436106100955760003560e01c8063715018a611610059578063715018a6146101855780638da5cb5b1461019c578063b78aa416146101c7578063f2fde38b146101f0578063f8b2cb4f14610219576100d5565b80630727a8ca146100da57806311a1933c146101035780633ccfd60b1461012e5780634e71d92d146101455780635cdf76f81461015c576100d5565b366100d5577f88a5966d370b9919b20f3e2c13ff65706f196a4e32cc2c12bf57088f8852587433346040516100cb929190610e5c565b60405180910390a1005b600080fd5b3480156100e657600080fd5b5061010160048036038101906100fc9190610ef4565b610256565b005b34801561010f57600080fd5b50610118610563565b6040516101259190610f41565b60405180910390f35b34801561013a57600080fd5b5061014361056d565b005b34801561015157600080fd5b5061015a610632565b005b34801561016857600080fd5b50610183600480360381019061017e9190610f88565b6107f2565b005b34801561019157600080fd5b5061019a610886565b005b3480156101a857600080fd5b506101b161090e565b6040516101be9190610fb5565b60405180910390f35b3480156101d357600080fd5b506101ee60048036038101906101e99190611052565b610937565b005b3480156101fc57600080fd5b50610217600480360381019061021291906110da565b610964565b005b34801561022557600080fd5b50610240600480360381019061023b91906110da565b610a5b565b60405161024d9190610f41565b60405180910390f35b6000805b8383905081101561031757600084848381811061027a57610279611107565b5b905060200281019061028c9190611145565b60200135905060008585848181106102a7576102a6611107565b5b90506020028101906102b99190611145565b60600135905080821015610302576040517f08c379a00000000000000000000000000000000000000000000000000000000081526004016102f9906111ca565b60405180910390fd5b5050808061030f90611219565b91505061025a565b5060005b8383905081101561046c57600084848381811061033b5761033a611107565b5b905060200281019061034d9190611145565b600001602081019061035f91906110da565b9050600085858481811061037657610375611107565b5b90506020028101906103889190611145565b6020013590503660008787868181106103a4576103a3611107565b5b90506020028101906103b69190611145565b80604001906103c59190611261565b9150915082866103d591906112c4565b95506000806103e48686610aa4565b915091508573ffffffffffffffffffffffffffffffffffffffff163373ffffffffffffffffffffffffffffffffffffffff167f07b7f01426aa6643fafada4ee6bf07fed2e8e333c5a14e6a7d8f471b9f23fdbf8686868660405161044b9493929190611367565b60405180910390a3505050505050808061046490611219565b91505061031b565b50600360009054906101000a900473ffffffffffffffffffffffffffffffffffffffff1673ffffffffffffffffffffffffffffffffffffffff166323b872dd3330846040518463ffffffff1660e01b81526004016104cc939291906113a7565b6020604051808303816000875af11580156104eb573d6000803e3d6000fd5b505050506040513d601f19601f8201168201806040525081019061050f9190611416565b503373ffffffffffffffffffffffffffffffffffffffff167f10190e7f174afbe5482194d509017e9df854671cd62fb4ef901fbd0080c1e6b6826040516105569190610f41565b60405180910390a2505050565b6000600154905090565b610575610c0f565b73ffffffffffffffffffffffffffffffffffffffff1661059361090e565b73ffffffffffffffffffffffffffffffffffffffff16146105e9576040517f08c379a00000000000000000000000000000000000000000000000000000000081526004016105e09061148f565b60405180910390fd5b3373ffffffffffffffffffffffffffffffffffffffff166108fc479081150290604051600060405180830381858888f1935050505015801561062f573d6000803e3d6000fd5b50565b6000600260003373ffffffffffffffffffffffffffffffffffffffff1673ffffffffffffffffffffffffffffffffffffffff168152602001908152602001600020549050600081036106b9576040517f08c379a00000000000000000000000000000000000000000000000000000000081526004016106b0906114fb565b60405180910390fd5b6000600260003373ffffffffffffffffffffffffffffffffffffffff1673ffffffffffffffffffffffffffffffffffffffff16815260200190815260200160002081905550600360009054906101000a900473ffffffffffffffffffffffffffffffffffffffff1673ffffffffffffffffffffffffffffffffffffffff166323b872dd3033846040518463ffffffff1660e01b815260040161075d939291906113a7565b6020604051808303816000875af115801561077c573d6000803e3d6000fd5b505050506040513d601f19601f820116820180604052508101906107a09190611416565b503373ffffffffffffffffffffffffffffffffffffffff167f47cee97cb7acd717b3c0aa1435d004cd5b3c8c57d70dbceb4e4458bbd60e39d4826040516107e79190610f41565b60405180910390a250565b6107fa610c0f565b73ffffffffffffffffffffffffffffffffffffffff1661081861090e565b73ffffffffffffffffffffffffffffffffffffffff161461086e576040517f08c379a00000000000000000000000000000000000000000000000000000000081526004016108659061148f565b60405180910390fd5b6103e8811061087c57600080fd5b8060018190555050565b61088e610c0f565b73ffffffffffffffffffffffffffffffffffffffff166108ac61090e565b73ffffffffffffffffffffffffffffffffffffffff1614610902576040517f08c379a00000000000000000000000000000000000000000000000000000000081526004016108f99061148f565b60405180910390fd5b61090c6000610c17565b565b60008060009054906101000a900473ffffffffffffffffffffffffffffffffffffffff16905090565b6000820361094457600080fd5b8082101561095157600080fd5b61095d85858585610cdb565b5050505050565b61096c610c0f565b73ffffffffffffffffffffffffffffffffffffffff1661098a61090e565b73ffffffffffffffffffffffffffffffffffffffff16146109e0576040517f08c379a00000000000000000000000000000000000000000000000000000000081526004016109d79061148f565b60405180910390fd5b600073ffffffffffffffffffffffffffffffffffffffff168173ffffffffffffffffffffffffffffffffffffffff1603610a4f576040517f08c379a0000000000000000000000000000000000000000000000000000000008152600401610a469061158d565b60405180910390fd5b610a5881610c17565b50565b6000600260008373ffffffffffffffffffffffffffffffffffffffff1673ffffffffffffffffffffffffffffffffffffffff168152602001908152602001600020549050919050565b6000806000808403610abc5783819250925050610c08565b600060015403610b215783600260008773ffffffffffffffffffffffffffffffffffffffff1673ffffffffffffffffffffffffffffffffffffffff1681526020019081526020016000206000828254610b1591906112c4565b92505081905550610c00565b6103e860015485610b3291906115ad565b610b3c9190611636565b90508060026000610b4b61090e565b73ffffffffffffffffffffffffffffffffffffffff1673ffffffffffffffffffffffffffffffffffffffff1681526020019081526020016000206000828254610b9491906112c4565b925050819055508084610ba79190611667565b935083600260008773ffffffffffffffffffffffffffffffffffffffff1673ffffffffffffffffffffffffffffffffffffffff1681526020019081526020016000206000828254610bf891906112c4565b925050819055505b838192509250505b9250929050565b600033905090565b60008060009054906101000a900473ffffffffffffffffffffffffffffffffffffffff169050816000806101000a81548173ffffffffffffffffffffffffffffffffffffffff021916908373ffffffffffffffffffffffffffffffffffffffff1602179055508173ffffffffffffffffffffffffffffffffffffffff168173ffffffffffffffffffffffffffffffffffffffff167f8be0079c531659141344cd1fd0a4f28419497f9722a3daafe3b4186f6b6457e060405160405180910390a35050565b600080610ce88684610aa4565b91509150600360009054906101000a900473ffffffffffffffffffffffffffffffffffffffff1673ffffffffffffffffffffffffffffffffffffffff166323b872dd3330866040518463ffffffff1660e01b8152600401610d4b939291906113a7565b6020604051808303816000875af1158015610d6a573d6000803e3d6000fd5b505050506040513d601f19601f82011682018060405250810190610d8e9190611416565b508573ffffffffffffffffffffffffffffffffffffffff163373ffffffffffffffffffffffffffffffffffffffff167f07b7f01426aa6643fafada4ee6bf07fed2e8e333c5a14e6a7d8f471b9f23fdbf87878686604051610df29493929190611367565b60405180910390a3505050505050565b600073ffffffffffffffffffffffffffffffffffffffff82169050919050565b6000610e2d82610e02565b9050919050565b610e3d81610e22565b82525050565b6000819050919050565b610e5681610e43565b82525050565b6000604082019050610e716000830185610e34565b610e7e6020830184610e4d565b9392505050565b600080fd5b600080fd5b600080fd5b600080fd5b600080fd5b60008083601f840112610eb457610eb3610e8f565b5b8235905067ffffffffffffffff811115610ed157610ed0610e94565b5b602083019150836020820283011115610eed57610eec610e99565b5b9250929050565b60008060208385031215610f0b57610f0a610e85565b5b600083013567ffffffffffffffff811115610f2957610f28610e8a565b5b610f3585828601610e9e565b92509250509250929050565b6000602082019050610f566000830184610e4d565b92915050565b610f6581610e43565b8114610f7057600080fd5b50565b600081359050610f8281610f5c565b92915050565b600060208284031215610f9e57610f9d610e85565b5b6000610fac84828501610f73565b91505092915050565b6000602082019050610fca6000830184610e34565b92915050565b610fd981610e22565b8114610fe457600080fd5b50565b600081359050610ff681610fd0565b92915050565b60008083601f84011261101257611011610e8f565b5b8235905067ffffffffffffffff81111561102f5761102e610e94565b5b60208301915083600182028301111561104b5761104a610e99565b5b9250929050565b60008060008060006080868803121561106e5761106d610e85565b5b600061107c88828901610fe7565b955050602086013567ffffffffffffffff81111561109d5761109c610e8a565b5b6110a988828901610ffc565b945094505060406110bc88828901610f73565b92505060606110cd88828901610f73565b9150509295509295909350565b6000602082840312156110f0576110ef610e85565b5b60006110fe84828501610fe7565b91505092915050565b7f4e487b7100000000000000000000000000000000000000000000000000000000600052603260045260246000fd5b600080fd5b600080fd5b600080fd5b60008235600160800383360303811261116157611160611136565b5b80830191505092915050565b600082825260208201905092915050565b7f5061796d656e7420616d6f756e7420746f6f206c6f772e000000000000000000600082015250565b60006111b460178361116d565b91506111bf8261117e565b602082019050919050565b600060208201905081810360008301526111e3816111a7565b9050919050565b7f4e487b7100000000000000000000000000000000000000000000000000000000600052601160045260246000fd5b600061122482610e43565b91507fffffffffffffffffffffffffffffffffffffffffffffffffffffffffffffffff8203611256576112556111ea565b5b600182019050919050565b6000808335600160200384360303811261127e5761127d611136565b5b80840192508235915067ffffffffffffffff8211156112a05761129f61113b565b5b6020830192506001820236038313156112bc576112bb611140565b5b509250929050565b60006112cf82610e43565b91506112da83610e43565b9250827fffffffffffffffffffffffffffffffffffffffffffffffffffffffffffffffff0382111561130f5761130e6111ea565b5b828201905092915050565b82818337600083830152505050565b6000601f19601f8301169050919050565b6000611346838561116d565b935061135383858461131a565b61135c83611329565b840190509392505050565b6000606082019050818103600083015261138281868861133a565b90506113916020830185610e4d565b61139e6040830184610e4d565b95945050505050565b60006060820190506113bc6000830186610e34565b6113c96020830185610e34565b6113d66040830184610e4d565b949350505050565b60008115159050919050565b6113f3816113de565b81146113fe57600080fd5b50565b600081519050611410816113ea565b92915050565b60006020828403121561142c5761142b610e85565b5b600061143a84828501611401565b91505092915050565b7f4f776e61626c653a2063616c6c6572206973206e6f7420746865206f776e6572600082015250565b600061147960208361116d565b915061148482611443565b602082019050919050565b600060208201905081810360008301526114a88161146c565b9050919050565b7f4e6f7468696e6720746f20636c61696d2e000000000000000000000000000000600082015250565b60006114e560118361116d565b91506114f0826114af565b602082019050919050565b60006020820190508181036000830152611514816114d8565b9050919050565b7f4f776e61626c653a206e6577206f776e657220697320746865207a65726f206160008201527f6464726573730000000000000000000000000000000000000000000000000000602082015250565b600061157760268361116d565b91506115828261151b565b604082019050919050565b600060208201905081810360008301526115a68161156a565b9050919050565b60006115b882610e43565b91506115c383610e43565b9250817fffffffffffffffffffffffffffffffffffffffffffffffffffffffffffffffff04831182151516156115fc576115fb6111ea565b5b828202905092915050565b7f4e487b7100000000000000000000000000000000000000000000000000000000600052601260045260246000fd5b600061164182610e43565b915061164c83610e43565b92508261165c5761165b611607565b5b828204905092915050565b600061167282610e43565b915061167d83610e43565b9250828210156116905761168f6111ea565b5b82820390509291505056fea26469706673582212202e6d322c74ab1fea03bb51dbdbcd50d8a5ef17f43b77d40ee0ac5752269b574664736f6c634300080e0033",
  "linkReferences": {},
  "deployedLinkReferences": {}
}